{
  "data": {
    "bytecode": {
      "linkReferences": {},
      "object": "6080604052600060075561271060085567011c37937e0800006009556000600c556000600d55601e600e55600a600f55600560105560405180602001604052806000815250601190805190602001906200005b929190620005b4565b506000601260006101000a81548160ff0219169083151502179055506000601260016101000a81548160ff0219169083151502179055506001601260026101000a81548160ff0219169083151502179055506000601260036101000a81548160ff0219169083151502179055507309e1f1f5672dcf434d0ce872050e4c2edbe47e76601460006101000a81548173ffffffffffffffffffffffffffffffffffffffff021916908373ffffffffffffffffffffffffffffffffffffffff1602179055507356f6daf0f8696f9952d471d6c447e497a39e805e601560006101000a81548173ffffffffffffffffffffffffffffffffffffffff021916908373ffffffffffffffffffffffffffffffffffffffff16021790555073cb31144f983859968e242844c4ed3ddb565589c2601660006101000a81548173ffffffffffffffffffffffffffffffffffffffff021916908373ffffffffffffffffffffffffffffffffffffffff1602179055507389ef51e9ca619952eb364ec6f4111009ef66f75e601760006101000a81548173ffffffffffffffffffffffffffffffffffffffff021916908373ffffffffffffffffffffffffffffffffffffffff16021790555073f5d71a9d75abcab2fc79cf7306fbc38e33ed6f2d601860006101000a81548173ffffffffffffffffffffffffffffffffffffffff021916908373ffffffffffffffffffffffffffffffffffffffff1602179055507339ff53ceaa56f6761bb938500a1449eee67d9399601960006101000a81548173ffffffffffffffffffffffffffffffffffffffff021916908373ffffffffffffffffffffffffffffffffffffffff1602179055507381127d3bc3c07dbfe99826e54388c8b7a4494028601a60006101000a81548173ffffffffffffffffffffffffffffffffffffffff021916908373ffffffffffffffffffffffffffffffffffffffff16021790555073605e088c482e4abe79603278f5c5c06dfa51459e601b60006101000a81548173ffffffffffffffffffffffffffffffffffffffff021916908373ffffffffffffffffffffffffffffffffffffffff160217905550736479a51298be79645e936405fb9a783ddbf13ce3601c60006101000a81548173ffffffffffffffffffffffffffffffffffffffff021916908373ffffffffffffffffffffffffffffffffffffffff160217905550348015620003d257600080fd5b50604051620068a2380380620068a28339818101604052810190620003f89190620006ed565b6040518060400160405280600981526020017f54756666204775797300000000000000000000000000000000000000000000008152506040518060400160405280600281526020017f54470000000000000000000000000000000000000000000000000000000000008152506200048462000478620004e860201b60201c565b620004f060201b60201c565b81600190805190602001906200049c929190620005b4565b508060029080519060200190620004b5929190620005b4565b50505082600a8190555081600b819055508060119080519060200190620004de929190620005b4565b50505050620008f0565b600033905090565b60008060009054906101000a900473ffffffffffffffffffffffffffffffffffffffff169050816000806101000a81548173ffffffffffffffffffffffffffffffffffffffff021916908373ffffffffffffffffffffffffffffffffffffffff1602179055508173ffffffffffffffffffffffffffffffffffffffff168173ffffffffffffffffffffffffffffffffffffffff167f8be0079c531659141344cd1fd0a4f28419497f9722a3daafe3b4186f6b6457e060405160405180910390a35050565b828054620005c290620007fb565b90600052602060002090601f016020900481019282620005e6576000855562000632565b82601f106200060157805160ff191683800117855562000632565b8280016001018555821562000632579182015b828111156200063157825182559160200191906001019062000614565b5b50905062000641919062000645565b5090565b5b808211156200066057600081600090555060010162000646565b5090565b60006200067b620006758462000785565b6200075c565b9050828152602081018484840111156200069457600080fd5b620006a1848285620007c5565b509392505050565b600082601f830112620006bb57600080fd5b8151620006cd84826020860162000664565b91505092915050565b600081519050620006e781620008d6565b92915050565b6000806000606084860312156200070357600080fd5b60006200071386828701620006d6565b93505060206200072686828701620006d6565b925050604084015167ffffffffffffffff8111156200074457600080fd5b6200075286828701620006a9565b9150509250925092565b6000620007686200077b565b905062000776828262000831565b919050565b6000604051905090565b600067ffffffffffffffff821115620007a357620007a262000896565b5b620007ae82620008c5565b9050602081019050919050565b6000819050919050565b60005b83811015620007e5578082015181840152602081019050620007c8565b83811115620007f5576000848401525b50505050565b600060028204905060018216806200081457607f821691505b602082108114156200082b576200082a62000867565b5b50919050565b6200083c82620008c5565b810181811067ffffffffffffffff821117156200085e576200085d62000896565b5b80604052505050565b7f4e487b7100000000000000000000000000000000000000000000000000000000600052602260045260246000fd5b7f4e487b7100000000000000000000000000000000000000000000000000000000600052604160045260246000fd5b6000601f19601f8301169050919050565b620008e181620007bb565b8114620008ed57600080fd5b50565b615fa280620009006000396000f3fe6080604052600436106103505760003560e01c806394034b39116101c6578063d2e31447116100f7578063e6f1704511610095578063e9999ea81161006f578063e9999ea814610bee578063f2fde38b14610c19578063f5bb8cce14610c42578063fc05ce5514610c6d57610350565b8063e6f1704514610b5d578063e933beaa14610b86578063e985e9c514610bb157610350565b8063db2e21bc116100d1578063db2e21bc14610ac7578063db3e269b14610ade578063de33dfbe14610b07578063de61830614610b3257610350565b8063d2e3144714610a46578063d7be7e2f14610a71578063d93a9f4514610a9c57610350565b8063a739505611610164578063c87b56dd1161013e578063c87b56dd14610999578063ccaac9e9146109d6578063cf0b3f3814610a01578063d156393114610a2a57610350565b8063a73950561461091c578063b88d4fde14610947578063c8624b7b1461097057610350565b806395d89b41116101a057806395d89b41146108725780639c84cff61461089d578063a035b1fe146108c8578063a22cb465146108f357610350565b806394034b39146107f557806394df91991461081e57806395ae66111461084757610350565b806352ec383b116102a057806370a082311161023e57806381b9bb131161021857806381b9bb1314610739578063879ac1531461076257806388f9e8351461078d5780638da5cb5b146107ca57610350565b806370a08231146106ba578063715018a6146106f7578063780d64091461070e57610350565b80635e487f1c1161027a5780635e487f1c1461060b57806360334aa6146106275780636352211e146106525780636c0360eb1461068f57610350565b806352ec383b1461058c57806356e6bded146105c95780635d06c482146105f457610350565b80632381c76f1161030d57806337a50397116102e757806337a50397146104f65780633ccfd60b1461052157806342842e0e1461053857806347f1339e1461056157610350565b80632381c76f1461047757806323b872dd146104a25780632a95d6c7146104cb57610350565b806301ffc9a71461035557806306fdde0314610392578063081812fc146103bd578063095ea7b3146103fa5780630a036ef2146104235780631a2e50e11461044e575b600080fd5b34801561036157600080fd5b5061037c6004803603810190610377919061453e565b610c98565b6040516103899190614d11565b60405180910390f35b34801561039e57600080fd5b506103a7610d7a565b6040516103b49190614d2c565b60405180910390f35b3480156103c957600080fd5b506103e460048036038101906103df91906145d1565b610e0c565b6040516103f19190614caa565b60405180910390f35b34801561040657600080fd5b50610421600480360381019061041c919061447c565b610e91565b005b34801561042f57600080fd5b50610438610fa9565b6040516104459190614d11565b60405180910390f35b34801561045a57600080fd5b50610475600480360381019061047091906145d1565b610fbc565b005b34801561048357600080fd5b5061048c611042565b6040516104999190614caa565b60405180910390f35b3480156104ae57600080fd5b506104c960048036038101906104c49190614376565b611068565b005b3480156104d757600080fd5b506104e06110c8565b6040516104ed9190614caa565b60405180910390f35b34801561050257600080fd5b5061050b6110ee565b6040516105189190614d11565b60405180910390f35b34801561052d57600080fd5b50610536611101565b005b34801561054457600080fd5b5061055f600480360381019061055a9190614376565b6118b5565b005b34801561056d57600080fd5b506105766118d5565b6040516105839190614caa565b60405180910390f35b34801561059857600080fd5b506105b360048036038101906105ae91906142e8565b6118fb565b6040516105c09190614d11565b60405180910390f35b3480156105d557600080fd5b506105de6119d0565b6040516105eb91906151ae565b60405180910390f35b34801561060057600080fd5b506106096119d6565b005b610625600480360381019061062091906145d1565b611b6f565b005b34801561063357600080fd5b5061063c611d12565b6040516106499190614caa565b60405180910390f35b34801561065e57600080fd5b50610679600480360381019061067491906145d1565b611d38565b6040516106869190614caa565b60405180910390f35b34801561069b57600080fd5b506106a4611dea565b6040516106b19190614d2c565b60405180910390f35b3480156106c657600080fd5b506106e160048036038101906106dc91906142e8565b611e78565b6040516106ee91906151ae565b60405180910390f35b34801561070357600080fd5b5061070c611f30565b005b34801561071a57600080fd5b50610723611fb8565b60405161073091906151ae565b60405180910390f35b34801561074557600080fd5b50610760600480360381019061075b91906145d1565b611fbe565b005b34801561076e57600080fd5b50610777612167565b60405161078491906151ae565b60405180910390f35b34801561079957600080fd5b506107b460048036038101906107af91906145d1565b61216d565b6040516107c19190614caa565b60405180910390f35b3480156107d657600080fd5b506107df6121ac565b6040516107ec9190614caa565b60405180910390f35b34801561080157600080fd5b5061081c600480360381019061081791906145d1565b6121d5565b005b34801561082a57600080fd5b5061084560048036038101906108409190614590565b612333565b005b34801561085357600080fd5b5061085c6123c9565b6040516108699190614caa565b60405180910390f35b34801561087e57600080fd5b506108876123ef565b6040516108949190614d2c565b60405180910390f35b3480156108a957600080fd5b506108b2612481565b6040516108bf91906151ae565b60405180910390f35b3480156108d457600080fd5b506108dd612487565b6040516108ea91906151ae565b60405180910390f35b3480156108ff57600080fd5b5061091a60048036038101906109159190614440565b61248d565b005b34801561092857600080fd5b5061093161260e565b60405161093e9190614d11565b60405180910390f35b34801561095357600080fd5b5061096e600480360381019061096991906143c5565b612621565b005b34801561097c57600080fd5b50610997600480360381019061099291906145d1565b612683565b005b3480156109a557600080fd5b506109c060048036038101906109bb91906145d1565b612709565b6040516109cd9190614d2c565b60405180910390f35b3480156109e257600080fd5b506109eb6127b1565b6040516109f891906151ae565b60405180910390f35b348015610a0d57600080fd5b50610a286004803603810190610a2391906144fd565b6127b7565b005b610a446004803603810190610a3f91906145d1565b612aab565b005b348015610a5257600080fd5b50610a5b612d0c565b604051610a689190614d11565b60405180910390f35b348015610a7d57600080fd5b50610a86612d1f565b604051610a9391906151ae565b60405180910390f35b348015610aa857600080fd5b50610ab1612d25565b604051610abe91906151ae565b60405180910390f35b348015610ad357600080fd5b50610adc612d2b565b005b348015610aea57600080fd5b50610b056004803603810190610b0091906145fa565b612e78565b005b348015610b1357600080fd5b50610b1c612f9f565b604051610b2991906151ae565b60405180910390f35b348015610b3e57600080fd5b50610b47612fa5565b604051610b549190614caa565b60405180910390f35b348015610b6957600080fd5b50610b846004803603810190610b7f91906144b8565b612fcb565b005b348015610b9257600080fd5b50610b9b61306b565b604051610ba89190614caa565b60405180910390f35b348015610bbd57600080fd5b50610bd86004803603810190610bd3919061433a565b613091565b604051610be59190614d11565b60405180910390f35b348015610bfa57600080fd5b50610c03613125565b604051610c1091906151ae565b60405180910390f35b348015610c2557600080fd5b50610c406004803603810190610c3b91906142e8565b61312b565b005b348015610c4e57600080fd5b50610c57613223565b604051610c649190614caa565b60405180910390f35b348015610c7957600080fd5b50610c82613249565b604051610c8f9190614caa565b60405180910390f35b60007f80ac58cd000000000000000000000000000000000000000000000000000000007bffffffffffffffffffffffffffffffffffffffffffffffffffffffff1916827bffffffffffffffffffffffffffffffffffffffffffffffffffffffff19161480610d6357507f5b5e139f000000000000000000000000000000000000000000000000000000007bffffffffffffffffffffffffffffffffffffffffffffffffffffffff1916827bffffffffffffffffffffffffffffffffffffffffffffffffffffffff1916145b80610d735750610d728261326f565b5b9050919050565b606060018054610d89906154aa565b80601f0160208091040260200160405190810160405280929190818152602001828054610db5906154aa565b8015610e025780601f10610dd757610100808354040283529160200191610e02565b820191906000526020600020905b815481529060010190602001808311610de557829003601f168201915b5050505050905090565b6000610e17826132d9565b610e56576040517f08c379a0000000000000000000000000000000000000000000000000000000008152600401610e4d90614fae565b60405180910390fd5b6005600083815260200190815260200160002060009054906101000a900473ffffffffffffffffffffffffffffffffffffffff169050919050565b6000610e9c82611d38565b90508073ffffffffffffffffffffffffffffffffffffffff168373ffffffffffffffffffffffffffffffffffffffff161415610f0d576040517f08c379a0000000000000000000000000000000000000000000000000000000008152600401610f049061508e565b60405180910390fd5b8073ffffffffffffffffffffffffffffffffffffffff16610f2c613345565b73ffffffffffffffffffffffffffffffffffffffff161480610f5b5750610f5a81610f55613345565b613091565b5b610f9a576040517f08c379a0000000000000000000000000000000000000000000000000000000008152600401610f9190614ece565b60405180910390fd5b610fa4838361334d565b505050565b601260009054906101000a900460ff1681565b610fc4613345565b73ffffffffffffffffffffffffffffffffffffffff16610fe26121ac565b73ffffffffffffffffffffffffffffffffffffffff1614611038576040517f08c379a000000000000000000000000000000000000000000000000000000000815260040161102f90614fee565b60405180910390fd5b8060078190555050565b601460009054906101000a900473ffffffffffffffffffffffffffffffffffffffff1681565b611079611073613345565b82613406565b6110b8576040517f08c379a00000000000000000000000000000000000000000000000000000000081526004016110af906150ee565b60405180910390fd5b6110c38383836134e4565b505050565b601660009054906101000a900473ffffffffffffffffffffffffffffffffffffffff1681565b601260019054906101000a900460ff1681565b611109613345565b73ffffffffffffffffffffffffffffffffffffffff166111276121ac565b73ffffffffffffffffffffffffffffffffffffffff161461117d576040517f08c379a000000000000000000000000000000000000000000000000000000000815260040161117490614fee565b60405180910390fd5b600047116111c0576040517f08c379a00000000000000000000000000000000000000000000000000000000081526004016111b790614f8e565b60405180910390fd5b60004790506000601460009054906101000a900473ffffffffffffffffffffffffffffffffffffffff1673ffffffffffffffffffffffffffffffffffffffff1661122961271061121b6106c68661374090919063ffffffff16565b61375690919063ffffffff16565b60405161123590614c95565b60006040518083038185875af1925050503d8060008114611272576040519150601f19603f3d011682016040523d82523d6000602084013e611277565b606091505b505090506000601560009054906101000a900473ffffffffffffffffffffffffffffffffffffffff1673ffffffffffffffffffffffffffffffffffffffff166112df6127106112d16106c68761374090919063ffffffff16565b61375690919063ffffffff16565b6040516112eb90614c95565b60006040518083038185875af1925050503d8060008114611328576040519150601f19603f3d011682016040523d82523d6000602084013e61132d565b606091505b505090506000601660009054906101000a900473ffffffffffffffffffffffffffffffffffffffff1673ffffffffffffffffffffffffffffffffffffffff166113956127106113876106c68861374090919063ffffffff16565b61375690919063ffffffff16565b6040516113a190614c95565b60006040518083038185875af1925050503d80600081146113de576040519150601f19603f3d011682016040523d82523d6000602084013e6113e3565b606091505b505090506000601760009054906101000a900473ffffffffffffffffffffffffffffffffffffffff1673ffffffffffffffffffffffffffffffffffffffff16611449606461143b600b8961374090919063ffffffff16565b61375690919063ffffffff16565b60405161145590614c95565b60006040518083038185875af1925050503d8060008114611492576040519150601f19603f3d011682016040523d82523d6000602084013e611497565b606091505b505090506000601860009054906101000a900473ffffffffffffffffffffffffffffffffffffffff1673ffffffffffffffffffffffffffffffffffffffff166114fe6103e86114f0600f8a61374090919063ffffffff16565b61375690919063ffffffff16565b60405161150a90614c95565b60006040518083038185875af1925050503d8060008114611547576040519150601f19603f3d011682016040523d82523d6000602084013e61154c565b606091505b505090506000601960009054906101000a900473ffffffffffffffffffffffffffffffffffffffff1673ffffffffffffffffffffffffffffffffffffffff166115b260646115a460038b61374090919063ffffffff16565b61375690919063ffffffff16565b6040516115be90614c95565b60006040518083038185875af1925050503d80600081146115fb576040519150601f19603f3d011682016040523d82523d6000602084013e611600565b606091505b505090506000601a60009054906101000a900473ffffffffffffffffffffffffffffffffffffffff1673ffffffffffffffffffffffffffffffffffffffff166116676103e861165960af8c61374090919063ffffffff16565b61375690919063ffffffff16565b60405161167390614c95565b60006040518083038185875af1925050503d80600081146116b0576040519150601f19603f3d011682016040523d82523d6000602084013e6116b5565b606091505b505090506000601b60009054906101000a900473ffffffffffffffffffffffffffffffffffffffff1673ffffffffffffffffffffffffffffffffffffffff1661171b606461170d60058d61374090919063ffffffff16565b61375690919063ffffffff16565b60405161172790614c95565b60006040518083038185875af1925050503d8060008114611764576040519150601f19603f3d011682016040523d82523d6000602084013e611769565b606091505b505090506000601c60009054906101000a900473ffffffffffffffffffffffffffffffffffffffff1673ffffffffffffffffffffffffffffffffffffffff166117cf60646117c1600a8e61374090919063ffffffff16565b61375690919063ffffffff16565b6040516117db90614c95565b60006040518083038185875af1925050503d8060008114611818576040519150601f19603f3d011682016040523d82523d6000602084013e61181d565b606091505b5050905088801561182b5750875b80156118345750865b801561183d5750855b80156118465750845b801561184f5750835b80156118585750825b80156118615750815b801561186a5750805b6118a9576040517f08c379a00000000000000000000000000000000000000000000000000000000081526004016118a09061514e565b60405180910390fd5b50505050505050505050565b6118d083838360405180602001604052806000815250612621565b505050565b601560009054906101000a900473ffffffffffffffffffffffffffffffffffffffff1681565b600080600090505b6013805490508110156119c5578273ffffffffffffffffffffffffffffffffffffffff1660138281548110611961577f4e487b7100000000000000000000000000000000000000000000000000000000600052603260045260246000fd5b9060005260206000200160009054906101000a900473ffffffffffffffffffffffffffffffffffffffff1673ffffffffffffffffffffffffffffffffffffffff1614156119b25760019150506119cb565b80806119bd9061550d565b915050611903565b50600090505b919050565b600b5481565b6119de613345565b73ffffffffffffffffffffffffffffffffffffffff166119fc6121ac565b73ffffffffffffffffffffffffffffffffffffffff1614611a52576040517f08c379a0000000000000000000000000000000000000000000000000000000008152600401611a4990614fee565b60405180910390fd5b60004711611a95576040517f08c379a0000000000000000000000000000000000000000000000000000000008152600401611a8c90614e6e565b60405180910390fd5b6000601a60009054906101000a900473ffffffffffffffffffffffffffffffffffffffff1673ffffffffffffffffffffffffffffffffffffffff16680246ddf97976680000604051611ae690614c95565b60006040518083038185875af1925050503d8060008114611b23576040519150601f19603f3d011682016040523d82523d6000602084013e611b28565b606091505b5050905080611b6c576040517f08c379a0000000000000000000000000000000000000000000000000000000008152600401611b639061512e565b60405180910390fd5b50565b601260019054906101000a900460ff16611bbe576040517f08c379a0000000000000000000000000000000000000000000000000000000008152600401611bb590614e4e565b60405180910390fd5b600f54811115611c03576040517f08c379a0000000000000000000000000000000000000000000000000000000008152600401611bfa906150ce565b60405180910390fd5b611c188160095461374090919063ffffffff16565b341015611c5a576040517f08c379a0000000000000000000000000000000000000000000000000000000008152600401611c5190614f4e565b60405180910390fd5b600a54611c7282600c5461376c90919063ffffffff16565b1115611cb3576040517f08c379a0000000000000000000000000000000000000000000000000000000008152600401611caa9061500e565b60405180910390fd5b6000600c54905060005b82811015611d0d57600182611cd291906152df565b9150611cea6001600c5461376c90919063ffffffff16565b600c81905550611cfa3383613782565b8080611d059061550d565b915050611cbd565b505050565b601860009054906101000a900473ffffffffffffffffffffffffffffffffffffffff1681565b6000806003600084815260200190815260200160002060009054906101000a900473ffffffffffffffffffffffffffffffffffffffff169050600073ffffffffffffffffffffffffffffffffffffffff168173ffffffffffffffffffffffffffffffffffffffff161415611de1576040517f08c379a0000000000000000000000000000000000000000000000000000000008152600401611dd890614f2e565b60405180910390fd5b80915050919050565b60118054611df7906154aa565b80601f0160208091040260200160405190810160405280929190818152602001828054611e23906154aa565b8015611e705780601f10611e4557610100808354040283529160200191611e70565b820191906000526020600020905b815481529060010190602001808311611e5357829003601f168201915b505050505081565b60008073ffffffffffffffffffffffffffffffffffffffff168273ffffffffffffffffffffffffffffffffffffffff161415611ee9576040517f08c379a0000000000000000000000000000000000000000000000000000000008152600401611ee090614f0e565b60405180910390fd5b600460008373ffffffffffffffffffffffffffffffffffffffff1673ffffffffffffffffffffffffffffffffffffffff168152602001908152602001600020549050919050565b611f38613345565b73ffffffffffffffffffffffffffffffffffffffff16611f566121ac565b73ffffffffffffffffffffffffffffffffffffffff1614611fac576040517f08c379a0000000000000000000000000000000000000000000000000000000008152600401611fa390614fee565b60405180910390fd5b611fb660006137a0565b565b600f5481565b611fc6613345565b73ffffffffffffffffffffffffffffffffffffffff16611fe46121ac565b73ffffffffffffffffffffffffffffffffffffffff161461203a576040517f08c379a000000000000000000000000000000000000000000000000000000000815260040161203190614fee565b60405180910390fd5b600a5461205282600c5461376c90919063ffffffff16565b1115612093576040517f08c379a000000000000000000000000000000000000000000000000000000000815260040161208a9061500e565b60405180910390fd5b600e546120ab82600d5461376c90919063ffffffff16565b11156120ec576040517f08c379a00000000000000000000000000000000000000000000000000000000081526004016120e390614eae565b60405180910390fd5b6000600c54905060005b828110156121625760018261210b91906152df565b91506121236001600c5461376c90919063ffffffff16565b600c8190555061213f6001600d5461376c90919063ffffffff16565b600d8190555061214f3383613782565b808061215a9061550d565b9150506120f6565b505050565b60105481565b6013818154811061217d57600080fd5b906000526020600020016000915054906101000a900473ffffffffffffffffffffffffffffffffffffffff1681565b60008060009054906101000a900473ffffffffffffffffffffffffffffffffffffffff16905090565b6121dd613345565b73ffffffffffffffffffffffffffffffffffffffff166121fb6121ac565b73ffffffffffffffffffffffffffffffffffffffff1614612251576040517f08c379a000000000000000000000000000000000000000000000000000000000815260040161224890614fee565b60405180910390fd5b600081141561228957601260039054906101000a900460ff1615601260036101000a81548160ff021916908315150217905550612330565b60018114156122c157601260019054906101000a900460ff1615601260016101000a81548160ff02191690831515021790555061232f565b60028114156122f957601260029054906101000a900460ff1615601260026101000a81548160ff02191690831515021790555061232e565b600381141561232d57601260009054906101000a900460ff1615601260006101000a81548160ff0219169083151502179055505b5b5b5b50565b61233b613345565b73ffffffffffffffffffffffffffffffffffffffff166123596121ac565b73ffffffffffffffffffffffffffffffffffffffff16146123af576040517f08c379a00000000000000000000000000000000000000000000000000000000081526004016123a690614fee565b60405180910390fd5b80601190805190602001906123c5929190613f56565b5050565b601a60009054906101000a900473ffffffffffffffffffffffffffffffffffffffff1681565b6060600280546123fe906154aa565b80601f016020809104026020016040519081016040528092919081815260200182805461242a906154aa565b80156124775780601f1061244c57610100808354040283529160200191612477565b820191906000526020600020905b81548152906001019060200180831161245a57829003601f168201915b5050505050905090565b60085481565b60095481565b612495613345565b73ffffffffffffffffffffffffffffffffffffffff168273ffffffffffffffffffffffffffffffffffffffff161415612503576040517f08c379a00000000000000000000000000000000000000000000000000000000081526004016124fa90614e0e565b60405180910390fd5b8060066000612510613345565b73ffffffffffffffffffffffffffffffffffffffff1673ffffffffffffffffffffffffffffffffffffffff16815260200190815260200160002060008473ffffffffffffffffffffffffffffffffffffffff1673ffffffffffffffffffffffffffffffffffffffff16815260200190815260200160002060006101000a81548160ff0219169083151502179055508173ffffffffffffffffffffffffffffffffffffffff166125bd613345565b73ffffffffffffffffffffffffffffffffffffffff167f17307eab39ab6107e8899845ad3d59bd9653f200f220920489ca2b5937696c31836040516126029190614d11565b60405180910390a35050565b601260039054906101000a900460ff1681565b61263261262c613345565b83613406565b612671576040517f08c379a0000000000000000000000000000000000000000000000000000000008152600401612668906150ee565b60405180910390fd5b61267d84848484613864565b50505050565b61268b613345565b73ffffffffffffffffffffffffffffffffffffffff166126a96121ac565b73ffffffffffffffffffffffffffffffffffffffff16146126ff576040517f08c379a00000000000000000000000000000000000000000000000000000000081526004016126f690614fee565b60405180910390fd5b8060088190555050565b6060612714826132d9565b612753576040517f08c379a000000000000000000000000000000000000000000000000000000000815260040161274a90614fce565b60405180910390fd5b600060118054612762906154aa565b90501161277e57604051806020016040528060008152506127aa565b6011612789836138c0565b60405160200161279a929190614c71565b6040516020818303038152906040525b9050919050565b600e5481565b8060005b815181101561290d573373ffffffffffffffffffffffffffffffffffffffff163073ffffffffffffffffffffffffffffffffffffffff16636352211e848481518110612830577f4e487b7100000000000000000000000000000000000000000000000000000000600052603260045260246000fd5b60200260200101516040518263ffffffff1660e01b815260040161285491906151ae565b60206040518083038186803b15801561286c57600080fd5b505afa158015612880573d6000803e3d6000fd5b505050506040513d601f19601f820116820180604052508101906128a49190614311565b73ffffffffffffffffffffffffffffffffffffffff16146128fa576040517f08c379a00000000000000000000000000000000000000000000000000000000081526004016128f19061506e565b60405180910390fd5b80806129059061550d565b9150506127bb565b50600060075411612953576040517f08c379a000000000000000000000000000000000000000000000000000000000815260040161294a90614eee565b60405180910390fd5b601260009054906101000a900460ff166129a2576040517f08c379a00000000000000000000000000000000000000000000000000000000081526004016129999061510e565b60405180910390fd5b6002825110156129e7576040517f08c379a00000000000000000000000000000000000000000000000000000000081526004016129de9061502e565b60405180910390fd5b60005b8251811015612a4f57612a3c838281518110612a2f577f4e487b7100000000000000000000000000000000000000000000000000000000600052603260045260246000fd5b6020026020010151613a6d565b8080612a479061550d565b9150506129ea565b5060006008549050600181612a6491906152df565b9050612a7c600160085461376c90919063ffffffff16565b600881905550612a8c3382613782565b600160076000828254612a9f91906153c0565b92505081905550505050565b601260039054906101000a900460ff16612afa576040517f08c379a0000000000000000000000000000000000000000000000000000000008152600401612af190614d8e565b60405180910390fd5b601054811115612b3f576040517f08c379a0000000000000000000000000000000000000000000000000000000008152600401612b36906150ce565b60405180910390fd5b612b548160095461374090919063ffffffff16565b341015612b96576040517f08c379a0000000000000000000000000000000000000000000000000000000008152600401612b8d90614f4e565b60405180910390fd5b600b54612bae82600c5461376c90919063ffffffff16565b1115612bef576040517f08c379a0000000000000000000000000000000000000000000000000000000008152600401612be69061518e565b60405180910390fd5b601260029054906101000a900460ff16612c64576000600c54905060005b82811015612c5d57600182612c2291906152df565b9150612c3a6001600c5461376c90919063ffffffff16565b600c81905550612c4a3383613782565b8080612c559061550d565b915050612c0d565b5050612d09565b612c6d336118fb565b612cac576040517f08c379a0000000000000000000000000000000000000000000000000000000008152600401612ca390614e8e565b60405180910390fd5b6000600c54905060005b82811015612d0657600182612ccb91906152df565b9150612ce36001600c5461376c90919063ffffffff16565b600c81905550612cf33383613782565b8080612cfe9061550d565b915050612cb6565b50505b50565b601260029054906101000a900460ff1681565b600d5481565b600a5481565b612d33613345565b73ffffffffffffffffffffffffffffffffffffffff16612d516121ac565b73ffffffffffffffffffffffffffffffffffffffff1614612da7576040517f08c379a0000000000000000000000000000000000000000000000000000000008152600401612d9e90614fee565b60405180910390fd5b6000601a60009054906101000a900473ffffffffffffffffffffffffffffffffffffffff1673ffffffffffffffffffffffffffffffffffffffff1647604051612def90614c95565b60006040518083038185875af1925050503d8060008114612e2c576040519150601f19603f3d011682016040523d82523d6000602084013e612e31565b606091505b5050905080612e75576040517f08c379a0000000000000000000000000000000000000000000000000000000008152600401612e6c906150ae565b60405180910390fd5b50565b612e80613345565b73ffffffffffffffffffffffffffffffffffffffff16612e9e6121ac565b73ffffffffffffffffffffffffffffffffffffffff1614612ef4576040517f08c379a0000000000000000000000000000000000000000000000000000000008152600401612eeb90614fee565b60405180910390fd5b6000811415612f4e57600c54821015612f42576040517f08c379a0000000000000000000000000000000000000000000000000000000008152600401612f3990614dce565b60405180910390fd5b81600a81905550612f9b565b600b54821015612f93576040517f08c379a0000000000000000000000000000000000000000000000000000000008152600401612f8a9061516e565b60405180910390fd5b81600b819055505b5050565b60075481565b601b60009054906101000a900473ffffffffffffffffffffffffffffffffffffffff1681565b612fd3613345565b73ffffffffffffffffffffffffffffffffffffffff16612ff16121ac565b73ffffffffffffffffffffffffffffffffffffffff1614613047576040517f08c379a000000000000000000000000000000000000000000000000000000000815260040161303e90614fee565b60405180910390fd5b601360006130559190613fdc565b818160139190613066929190613ffd565b505050565b601760009054906101000a900473ffffffffffffffffffffffffffffffffffffffff1681565b6000600660008473ffffffffffffffffffffffffffffffffffffffff1673ffffffffffffffffffffffffffffffffffffffff16815260200190815260200160002060008373ffffffffffffffffffffffffffffffffffffffff1673ffffffffffffffffffffffffffffffffffffffff16815260200190815260200160002060009054906101000a900460ff16905092915050565b600c5481565b613133613345565b73ffffffffffffffffffffffffffffffffffffffff166131516121ac565b73ffffffffffffffffffffffffffffffffffffffff16146131a7576040517f08c379a000000000000000000000000000000000000000000000000000000000815260040161319e90614fee565b60405180910390fd5b600073ffffffffffffffffffffffffffffffffffffffff168173ffffffffffffffffffffffffffffffffffffffff161415613217576040517f08c379a000000000000000000000000000000000000000000000000000000000815260040161320e90614d6e565b60405180910390fd5b613220816137a0565b50565b601960009054906101000a900473ffffffffffffffffffffffffffffffffffffffff1681565b601c60009054906101000a900473ffffffffffffffffffffffffffffffffffffffff1681565b60007f01ffc9a7000000000000000000000000000000000000000000000000000000007bffffffffffffffffffffffffffffffffffffffffffffffffffffffff1916827bffffffffffffffffffffffffffffffffffffffffffffffffffffffff1916149050919050565b60008073ffffffffffffffffffffffffffffffffffffffff166003600084815260200190815260200160002060009054906101000a900473ffffffffffffffffffffffffffffffffffffffff1673ffffffffffffffffffffffffffffffffffffffff1614159050919050565b600033905090565b816005600083815260200190815260200160002060006101000a81548173ffffffffffffffffffffffffffffffffffffffff021916908373ffffffffffffffffffffffffffffffffffffffff160217905550808273ffffffffffffffffffffffffffffffffffffffff166133c083611d38565b73ffffffffffffffffffffffffffffffffffffffff167f8c5be1e5ebec7d5bd14f71427d1e84f3dd0314c0f7b2291e5b200ac8c7c3b92560405160405180910390a45050565b6000613411826132d9565b613450576040517f08c379a000000000000000000000000000000000000000000000000000000000815260040161344790614e2e565b60405180910390fd5b600061345b83611d38565b90508073ffffffffffffffffffffffffffffffffffffffff168473ffffffffffffffffffffffffffffffffffffffff1614806134ca57508373ffffffffffffffffffffffffffffffffffffffff166134b284610e0c565b73ffffffffffffffffffffffffffffffffffffffff16145b806134db57506134da8185613091565b5b91505092915050565b8273ffffffffffffffffffffffffffffffffffffffff1661350482611d38565b73ffffffffffffffffffffffffffffffffffffffff161461355a576040517f08c379a00000000000000000000000000000000000000000000000000000000081526004016135519061504e565b60405180910390fd5b600073ffffffffffffffffffffffffffffffffffffffff168273ffffffffffffffffffffffffffffffffffffffff1614156135ca576040517f08c379a00000000000000000000000000000000000000000000000000000000081526004016135c190614dee565b60405180910390fd5b6135d5838383613b7e565b6135e060008261334d565b6001600460008573ffffffffffffffffffffffffffffffffffffffff1673ffffffffffffffffffffffffffffffffffffffff168152602001908152602001600020600082825461363091906153c0565b925050819055506001600460008473ffffffffffffffffffffffffffffffffffffffff1673ffffffffffffffffffffffffffffffffffffffff168152602001908152602001600020600082825461368791906152df565b92505081905550816003600083815260200190815260200160002060006101000a81548173ffffffffffffffffffffffffffffffffffffffff021916908373ffffffffffffffffffffffffffffffffffffffff160217905550808273ffffffffffffffffffffffffffffffffffffffff168473ffffffffffffffffffffffffffffffffffffffff167fddf252ad1be2c89b69c2b068fc378daa952ba7f163c4a11628f55a4df523b3ef60405160405180910390a4505050565b6000818361374e9190615366565b905092915050565b600081836137649190615335565b905092915050565b6000818361377a91906152df565b905092915050565b61379c828260405180602001604052806000815250613b83565b5050565b60008060009054906101000a900473ffffffffffffffffffffffffffffffffffffffff169050816000806101000a81548173ffffffffffffffffffffffffffffffffffffffff021916908373ffffffffffffffffffffffffffffffffffffffff1602179055508173ffffffffffffffffffffffffffffffffffffffff168173ffffffffffffffffffffffffffffffffffffffff167f8be0079c531659141344cd1fd0a4f28419497f9722a3daafe3b4186f6b6457e060405160405180910390a35050565b61386f8484846134e4565b61387b84848484613bde565b6138ba576040517f08c379a00000000000000000000000000000000000000000000000000000000081526004016138b190614d4e565b60405180910390fd5b50505050565b60606000821415613908576040518060400160405280600181526020017f30000000000000000000000000000000000000000000000000000000000000008152509050613a68565b600082905060005b6000821461393a5780806139239061550d565b915050600a826139339190615335565b9150613910565b60008167ffffffffffffffff81111561397c577f4e487b7100000000000000000000000000000000000000000000000000000000600052604160045260246000fd5b6040519080825280601f01601f1916602001820160405280156139ae5781602001600182028036833780820191505090505b5090505b60008514613a61576001826139c791906153c0565b9150600a856139d69190615556565b60306139e291906152df565b60f81b818381518110613a1e577f4e487b7100000000000000000000000000000000000000000000000000000000600052603260045260246000fd5b60200101907effffffffffffffffffffffffffffffffffffffffffffffffffffffffffffff1916908160001a905350600a85613a5a9190615335565b94506139b2565b8093505050505b919050565b6000613a7882611d38565b9050613a8681600084613b7e565b613a9160008361334d565b6001600460008373ffffffffffffffffffffffffffffffffffffffff1673ffffffffffffffffffffffffffffffffffffffff1681526020019081526020016000206000828254613ae191906153c0565b925050819055506003600083815260200190815260200160002060006101000a81549073ffffffffffffffffffffffffffffffffffffffff021916905581600073ffffffffffffffffffffffffffffffffffffffff168273ffffffffffffffffffffffffffffffffffffffff167fddf252ad1be2c89b69c2b068fc378daa952ba7f163c4a11628f55a4df523b3ef60405160405180910390a45050565b505050565b613b8d8383613d75565b613b9a6000848484613bde565b613bd9576040517f08c379a0000000000000000000000000000000000000000000000000000000008152600401613bd090614d4e565b60405180910390fd5b505050565b6000613bff8473ffffffffffffffffffffffffffffffffffffffff16613f43565b15613d68578373ffffffffffffffffffffffffffffffffffffffff1663150b7a02613c28613345565b8786866040518563ffffffff1660e01b8152600401613c4a9493929190614cc5565b602060405180830381600087803b158015613c6457600080fd5b505af1925050508015613c9557506040513d601f19601f82011682018060405250810190613c929190614567565b60015b613d18573d8060008114613cc5576040519150601f19603f3d011682016040523d82523d6000602084013e613cca565b606091505b50600081511415613d10576040517f08c379a0000000000000000000000000000000000000000000000000000000008152600401613d0790614d4e565b60405180910390fd5b805181602001fd5b63150b7a0260e01b7bffffffffffffffffffffffffffffffffffffffffffffffffffffffff1916817bffffffffffffffffffffffffffffffffffffffffffffffffffffffff191614915050613d6d565b600190505b949350505050565b600073ffffffffffffffffffffffffffffffffffffffff168273ffffffffffffffffffffffffffffffffffffffff161415613de5576040517f08c379a0000000000000000000000000000000000000000000000000000000008152600401613ddc90614f6e565b60405180910390fd5b613dee816132d9565b15613e2e576040517f08c379a0000000000000000000000000000000000000000000000000000000008152600401613e2590614dae565b60405180910390fd5b613e3a60008383613b7e565b6001600460008473ffffffffffffffffffffffffffffffffffffffff1673ffffffffffffffffffffffffffffffffffffffff1681526020019081526020016000206000828254613e8a91906152df565b92505081905550816003600083815260200190815260200160002060006101000a81548173ffffffffffffffffffffffffffffffffffffffff021916908373ffffffffffffffffffffffffffffffffffffffff160217905550808273ffffffffffffffffffffffffffffffffffffffff16600073ffffffffffffffffffffffffffffffffffffffff167fddf252ad1be2c89b69c2b068fc378daa952ba7f163c4a11628f55a4df523b3ef60405160405180910390a45050565b600080823b905060008111915050919050565b828054613f62906154aa565b90600052602060002090601f016020900481019282613f845760008555613fcb565b82601f10613f9d57805160ff1916838001178555613fcb565b82800160010185558215613fcb579182015b82811115613fca578251825591602001919060010190613faf565b5b509050613fd8919061409d565b5090565b5080546000825590600052602060002090810190613ffa919061409d565b50565b82805482825590600052602060002090810192821561408c579160200282015b8281111561408b57823573ffffffffffffffffffffffffffffffffffffffff168260006101000a81548173ffffffffffffffffffffffffffffffffffffffff021916908373ffffffffffffffffffffffffffffffffffffffff1602179055509160200191906001019061401d565b5b509050614099919061409d565b5090565b5b808211156140b657600081600090555060010161409e565b5090565b60006140cd6140c8846151ee565b6151c9565b905080838252602082019050828560208602820111156140ec57600080fd5b60005b8581101561411c578161410288826142d3565b8452602084019350602083019250506001810190506140ef565b5050509392505050565b60006141396141348461521a565b6151c9565b90508281526020810184848401111561415157600080fd5b61415c848285615468565b509392505050565b60006141776141728461524b565b6151c9565b90508281526020810184848401111561418f57600080fd5b61419a848285615468565b509392505050565b6000813590506141b181615f10565b92915050565b6000815190506141c681615f10565b92915050565b60008083601f8401126141de57600080fd5b8235905067ffffffffffffffff8111156141f757600080fd5b60208301915083602082028301111561420f57600080fd5b9250929050565b600082601f83011261422757600080fd5b81356142378482602086016140ba565b91505092915050565b60008135905061424f81615f27565b92915050565b60008135905061426481615f3e565b92915050565b60008151905061427981615f3e565b92915050565b600082601f83011261429057600080fd5b81356142a0848260208601614126565b91505092915050565b600082601f8301126142ba57600080fd5b81356142ca848260208601614164565b91505092915050565b6000813590506142e281615f55565b92915050565b6000602082840312156142fa57600080fd5b6000614308848285016141a2565b91505092915050565b60006020828403121561432357600080fd5b6000614331848285016141b7565b91505092915050565b6000806040838503121561434d57600080fd5b600061435b858286016141a2565b925050602061436c858286016141a2565b9150509250929050565b60008060006060848603121561438b57600080fd5b6000614399868287016141a2565b93505060206143aa868287016141a2565b92505060406143bb868287016142d3565b9150509250925092565b600080600080608085870312156143db57600080fd5b60006143e9878288016141a2565b94505060206143fa878288016141a2565b935050604061440b878288016142d3565b925050606085013567ffffffffffffffff81111561442857600080fd5b6144348782880161427f565b91505092959194509250565b6000806040838503121561445357600080fd5b6000614461858286016141a2565b925050602061447285828601614240565b9150509250929050565b6000806040838503121561448f57600080fd5b600061449d858286016141a2565b92505060206144ae858286016142d3565b9150509250929050565b600080602083850312156144cb57600080fd5b600083013567ffffffffffffffff8111156144e557600080fd5b6144f1858286016141cc565b92509250509250929050565b60006020828403121561450f57600080fd5b600082013567ffffffffffffffff81111561452957600080fd5b61453584828501614216565b91505092915050565b60006020828403121561455057600080fd5b600061455e84828501614255565b91505092915050565b60006020828403121561457957600080fd5b60006145878482850161426a565b91505092915050565b6000602082840312156145a257600080fd5b600082013567ffffffffffffffff8111156145bc57600080fd5b6145c8848285016142a9565b91505092915050565b6000602082840312156145e357600080fd5b60006145f1848285016142d3565b91505092915050565b6000806040838503121561460d57600080fd5b600061461b858286016142d3565b925050602061462c858286016142d3565b9150509250929050565b61463f816153f4565b82525050565b61464e81615406565b82525050565b600061465f82615291565b61466981856152a7565b9350614679818560208601615477565b61468281615643565b840191505092915050565b60006146988261529c565b6146a281856152c3565b93506146b2818560208601615477565b6146bb81615643565b840191505092915050565b60006146d18261529c565b6146db81856152d4565b93506146eb818560208601615477565b80840191505092915050565b60008154614704816154aa565b61470e81866152d4565b94506001821660008114614729576001811461473a5761476d565b60ff1983168652818601935061476d565b6147438561527c565b60005b8381101561476557815481890152600182019150602081019050614746565b838801955050505b50505092915050565b60006147836032836152c3565b915061478e82615654565b604082019050919050565b60006147a66026836152c3565b91506147b1826156a3565b604082019050919050565b60006147c9602d836152c3565b91506147d4826156f2565b604082019050919050565b60006147ec601c836152c3565b91506147f782615741565b602082019050919050565b600061480f601e836152c3565b915061481a8261576a565b602082019050919050565b60006148326024836152c3565b915061483d82615793565b604082019050919050565b60006148556019836152c3565b9150614860826157e2565b602082019050919050565b6000614878602c836152c3565b91506148838261580b565b604082019050919050565b600061489b602e836152c3565b91506148a68261585a565b604082019050919050565b60006148be600e836152c3565b91506148c9826158a9565b602082019050919050565b60006148e1600e836152c3565b91506148ec826158d2565b602082019050919050565b60006149046047836152c3565b915061490f826158fb565b606082019050919050565b60006149276038836152c3565b915061493282615970565b604082019050919050565b600061494a600e836152c3565b9150614955826159bf565b602082019050919050565b600061496d602a836152c3565b9150614978826159e8565b604082019050919050565b60006149906029836152c3565b915061499b82615a37565b604082019050919050565b60006149b36034836152c3565b91506149be82615a86565b604082019050919050565b60006149d66020836152c3565b91506149e182615ad5565b602082019050919050565b60006149f96004836152c3565b9150614a0482615afe565b602082019050919050565b6000614a1c602c836152c3565b9150614a2782615b27565b604082019050919050565b6000614a3f6011836152c3565b9150614a4a82615b76565b602082019050919050565b6000614a626020836152c3565b9150614a6d82615b9f565b602082019050919050565b6000614a85601c836152c3565b9150614a9082615bc8565b602082019050919050565b6000614aa86024836152c3565b9150614ab382615bf1565b604082019050919050565b6000614acb6029836152c3565b9150614ad682615c40565b604082019050919050565b6000614aee6013836152c3565b9150614af982615c8f565b602082019050919050565b6000614b116021836152c3565b9150614b1c82615cb8565b604082019050919050565b6000614b346000836152b8565b9150614b3f82615d07565b600082019050919050565b6000614b57600e836152c3565b9150614b6282615d0a565b602082019050919050565b6000614b7a602c836152c3565b9150614b8582615d33565b604082019050919050565b6000614b9d6031836152c3565b9150614ba882615d82565b604082019050919050565b6000614bc06013836152c3565b9150614bcb82615dd1565b602082019050919050565b6000614be36024836152c3565b9150614bee82615dfa565b604082019050919050565b6000614c06601a836152c3565b9150614c1182615e49565b602082019050919050565b6000614c296026836152c3565b9150614c3482615e72565b604082019050919050565b6000614c4c6028836152c3565b9150614c5782615ec1565b604082019050919050565b614c6b8161545e565b82525050565b6000614c7d82856146f7565b9150614c8982846146c6565b91508190509392505050565b6000614ca082614b27565b9150819050919050565b6000602082019050614cbf6000830184614636565b92915050565b6000608082019050614cda6000830187614636565b614ce76020830186614636565b614cf46040830185614c62565b8181036060830152614d068184614654565b905095945050505050565b6000602082019050614d266000830184614645565b92915050565b60006020820190508181036000830152614d46818461468d565b905092915050565b60006020820190508181036000830152614d6781614776565b9050919050565b60006020820190508181036000830152614d8781614799565b9050919050565b60006020820190508181036000830152614da7816147bc565b9050919050565b60006020820190508181036000830152614dc7816147df565b9050919050565b60006020820190508181036000830152614de781614802565b9050919050565b60006020820190508181036000830152614e0781614825565b9050919050565b60006020820190508181036000830152614e2781614848565b9050919050565b60006020820190508181036000830152614e478161486b565b9050919050565b60006020820190508181036000830152614e678161488e565b9050919050565b60006020820190508181036000830152614e87816148b1565b9050919050565b60006020820190508181036000830152614ea7816148d4565b9050919050565b60006020820190508181036000830152614ec7816148f7565b9050919050565b60006020820190508181036000830152614ee78161491a565b9050919050565b60006020820190508181036000830152614f078161493d565b9050919050565b60006020820190508181036000830152614f2781614960565b9050919050565b60006020820190508181036000830152614f4781614983565b9050919050565b60006020820190508181036000830152614f67816149a6565b9050919050565b60006020820190508181036000830152614f87816149c9565b9050919050565b60006020820190508181036000830152614fa7816149ec565b9050919050565b60006020820190508181036000830152614fc781614a0f565b9050919050565b60006020820190508181036000830152614fe781614a32565b9050919050565b6000602082019050818103600083015261500781614a55565b9050919050565b6000602082019050818103600083015261502781614a78565b9050919050565b6000602082019050818103600083015261504781614a9b565b9050919050565b6000602082019050818103600083015261506781614abe565b9050919050565b6000602082019050818103600083015261508781614ae1565b9050919050565b600060208201905081810360008301526150a781614b04565b9050919050565b600060208201905081810360008301526150c781614b4a565b9050919050565b600060208201905081810360008301526150e781614b6d565b9050919050565b6000602082019050818103600083015261510781614b90565b9050919050565b6000602082019050818103600083015261512781614bb3565b9050919050565b6000602082019050818103600083015261514781614bd6565b9050919050565b6000602082019050818103600083015261516781614bf9565b9050919050565b6000602082019050818103600083015261518781614c1c565b9050919050565b600060208201905081810360008301526151a781614c3f565b9050919050565b60006020820190506151c36000830184614c62565b92915050565b60006151d36151e4565b90506151df82826154dc565b919050565b6000604051905090565b600067ffffffffffffffff82111561520957615208615614565b5b602082029050602081019050919050565b600067ffffffffffffffff82111561523557615234615614565b5b61523e82615643565b9050602081019050919050565b600067ffffffffffffffff82111561526657615265615614565b5b61526f82615643565b9050602081019050919050565b60008190508160005260206000209050919050565b600081519050919050565b600081519050919050565b600082825260208201905092915050565b600081905092915050565b600082825260208201905092915050565b600081905092915050565b60006152ea8261545e565b91506152f58361545e565b9250827fffffffffffffffffffffffffffffffffffffffffffffffffffffffffffffffff0382111561532a57615329615587565b5b828201905092915050565b60006153408261545e565b915061534b8361545e565b92508261535b5761535a6155b6565b5b828204905092915050565b60006153718261545e565b915061537c8361545e565b9250817fffffffffffffffffffffffffffffffffffffffffffffffffffffffffffffffff04831182151516156153b5576153b4615587565b5b828202905092915050565b60006153cb8261545e565b91506153d68361545e565b9250828210156153e9576153e8615587565b5b828203905092915050565b60006153ff8261543e565b9050919050565b60008115159050919050565b60007fffffffff0000000000000000000000000000000000000000000000000000000082169050919050565b600073ffffffffffffffffffffffffffffffffffffffff82169050919050565b6000819050919050565b82818337600083830152505050565b60005b8381101561549557808201518184015260208101905061547a565b838111156154a4576000848401525b50505050565b600060028204905060018216806154c257607f821691505b602082108114156154d6576154d56155e5565b5b50919050565b6154e582615643565b810181811067ffffffffffffffff8211171561550457615503615614565b5b80604052505050565b60006155188261545e565b91507fffffffffffffffffffffffffffffffffffffffffffffffffffffffffffffffff82141561554b5761554a615587565b5b600182019050919050565b60006155618261545e565b915061556c8361545e565b92508261557c5761557b6155b6565b5b828206905092915050565b7f4e487b7100000000000000000000000000000000000000000000000000000000600052601160045260246000fd5b7f4e487b7100000000000000000000000000000000000000000000000000000000600052601260045260246000fd5b7f4e487b7100000000000000000000000000000000000000000000000000000000600052602260045260246000fd5b7f4e487b7100000000000000000000000000000000000000000000000000000000600052604160045260246000fd5b6000601f19601f8301169050919050565b7f4552433732313a207472616e7366657220746f206e6f6e20455243373231526560008201527f63656976657220696d706c656d656e7465720000000000000000000000000000602082015250565b7f4f776e61626c653a206e6577206f776e657220697320746865207a65726f206160008201527f6464726573730000000000000000000000000000000000000000000000000000602082015250565b7f536c6f7720446f776e21205072652053616c652069736e277420617661696c6160008201527f626c65206a757374207965742e00000000000000000000000000000000000000602082015250565b7f4552433732313a20746f6b656e20616c7265616479206d696e74656400000000600082015250565b7f4572726f72206368616e67696e6720547566662047757920416d6f756e740000600082015250565b7f4552433732313a207472616e7366657220746f20746865207a65726f2061646460008201527f7265737300000000000000000000000000000000000000000000000000000000602082015250565b7f4552433732313a20617070726f766520746f2063616c6c657200000000000000600082015250565b7f4552433732313a206f70657261746f7220717565727920666f72206e6f6e657860008201527f697374656e7420746f6b656e0000000000000000000000000000000000000000602082015250565b7f536c6f7720446f776e21204d61696e2053616c652069736e277420617661696c60008201527f61626c65206a757374207965742e000000000000000000000000000000000000602082015250565b7f4e6f7420656e6f75676820657468000000000000000000000000000000000000600082015250565b7f4e6f7420696e2050726573616c65000000000000000000000000000000000000600082015250565b7f4e6f7420656e6f75676820547566662047757973206c65667420746f206d696e60008201527f7420666f722067697665617761797320616e6420636f6d6d756e69747920657660208201527f656e7473203a2800000000000000000000000000000000000000000000000000604082015250565b7f4552433732313a20617070726f76652063616c6c6572206973206e6f74206f7760008201527f6e6572206e6f7220617070726f76656420666f7220616c6c0000000000000000602082015250565b7f4e6f20467573696f6e204c656674000000000000000000000000000000000000600082015250565b7f4552433732313a2062616c616e636520717565727920666f7220746865207a6560008201527f726f206164647265737300000000000000000000000000000000000000000000602082015250565b7f4552433732313a206f776e657220717565727920666f72206e6f6e657869737460008201527f656e7420746f6b656e0000000000000000000000000000000000000000000000602082015250565b7f4f6f707321204c6f6f6b73206c696b65207765206469646e277420726563656960008201527f76652074686520726571756972652066756e6473000000000000000000000000602082015250565b7f4552433732313a206d696e7420746f20746865207a65726f2061646472657373600082015250565b7f4e6f6e6500000000000000000000000000000000000000000000000000000000600082015250565b7f4552433732313a20617070726f76656420717565727920666f72206e6f6e657860008201527f697374656e7420746f6b656e0000000000000000000000000000000000000000602082015250565b7f6e6f6e6578697374656e7420746f6b656e000000000000000000000000000000600082015250565b7f4f776e61626c653a2063616c6c6572206973206e6f7420746865206f776e6572600082015250565b7f4e6f7420656e6f75676820547566662047757973206c656674203a2800000000600082015250565b7f576f61682e2050726f76696465206d6520736f6d65206d6f726520547566662060008201527f4775797300000000000000000000000000000000000000000000000000000000602082015250565b7f4552433732313a207472616e73666572206f6620746f6b656e2074686174206960008201527f73206e6f74206f776e0000000000000000000000000000000000000000000000602082015250565b7f547566662047757973206e6f74206f776e656400000000000000000000000000600082015250565b7f4552433732313a20617070726f76616c20746f2063757272656e74206f776e6560008201527f7200000000000000000000000000000000000000000000000000000000000000602082015250565b50565b7f43616e2774205769746864726177000000000000000000000000000000000000600082015250565b7f576f616821204c6561766520736f6d6520547566664775797320666f7220746860008201527f652072657374206f662075730000000000000000000000000000000000000000602082015250565b7f4552433732313a207472616e736665722063616c6c6572206973206e6f74206f60008201527f776e6572206e6f7220617070726f766564000000000000000000000000000000602082015250565b7f467573696f6e73206e6f7420656e61626c656400000000000000000000000000600082015250565b7f576f616821204e6f7420656e6f7567682045544820696e2074686520636f6e7460008201527f7261637400000000000000000000000000000000000000000000000000000000602082015250565b7f5475666620477579205769746864726177616c204661696c6564000000000000600082015250565b7f4572726f72206368616e676564205072652053616c652054756666204775792060008201527f416d6f756e740000000000000000000000000000000000000000000000000000602082015250565b7f4e6f7420656e6f75676820547566662047757973206c65667420666f7220707260008201527f6573616c65203a28000000000000000000000000000000000000000000000000602082015250565b615f19816153f4565b8114615f2457600080fd5b50565b615f3081615406565b8114615f3b57600080fd5b50565b615f4781615412565b8114615f5257600080fd5b50565b615f5e8161545e565b8114615f6957600080fd5b5056fea2646970667358221220a9786d29b24b4ce510c6eb55f64c4727ba0fa3fd54c185790d4440cf3d7ee75164736f6c63430008040033",
      "opcodes": "PUSH1 0x80 PUSH1 0x40 MSTORE PUSH1 0x0 PUSH1 0x7 SSTORE PUSH2 0x2710 PUSH1 0x8 SSTORE PUSH8 0x11C37937E080000 PUSH1 0x9 SSTORE PUSH1 0x0 PUSH1 0xC SSTORE PUSH1 0x0 PUSH1 0xD SSTORE PUSH1 0x1E PUSH1 0xE SSTORE PUSH1 0xA PUSH1 0xF SSTORE PUSH1 0x5 PUSH1 0x10 SSTORE PUSH1 0x40 MLOAD DUP1 PUSH1 0x20 ADD PUSH1 0x40 MSTORE DUP1 PUSH1 0x0 DUP2 MSTORE POP PUSH1 0x11 SWAP1 DUP1 MLOAD SWAP1 PUSH1 0x20 ADD SWAP1 PUSH3 0x5B SWAP3 SWAP2 SWAP1 PUSH3 0x5B4 JUMP JUMPDEST POP PUSH1 0x0 PUSH1 0x12 PUSH1 0x0 PUSH2 0x100 EXP DUP2 SLOAD DUP2 PUSH1 0xFF MUL NOT AND SWAP1 DUP4 ISZERO ISZERO MUL OR SWAP1 SSTORE POP PUSH1 0x0 PUSH1 0x12 PUSH1 0x1 PUSH2 0x100 EXP DUP2 SLOAD DUP2 PUSH1 0xFF MUL NOT AND SWAP1 DUP4 ISZERO ISZERO MUL OR SWAP1 SSTORE POP PUSH1 0x1 PUSH1 0x12 PUSH1 0x2 PUSH2 0x100 EXP DUP2 SLOAD DUP2 PUSH1 0xFF MUL NOT AND SWAP1 DUP4 ISZERO ISZERO MUL OR SWAP1 SSTORE POP PUSH1 0x0 PUSH1 0x12 PUSH1 0x3 PUSH2 0x100 EXP DUP2 SLOAD DUP2 PUSH1 0xFF MUL NOT AND SWAP1 DUP4 ISZERO ISZERO MUL OR SWAP1 SSTORE POP PUSH20 0x9E1F1F5672DCF434D0CE872050E4C2EDBE47E76 PUSH1 0x14 PUSH1 0x0 PUSH2 0x100 EXP DUP2 SLOAD DUP2 PUSH20 0xFFFFFFFFFFFFFFFFFFFFFFFFFFFFFFFFFFFFFFFF MUL NOT AND SWAP1 DUP4 PUSH20 0xFFFFFFFFFFFFFFFFFFFFFFFFFFFFFFFFFFFFFFFF AND MUL OR SWAP1 SSTORE POP PUSH20 0x56F6DAF0F8696F9952D471D6C447E497A39E805E PUSH1 0x15 PUSH1 0x0 PUSH2 0x100 EXP DUP2 SLOAD DUP2 PUSH20 0xFFFFFFFFFFFFFFFFFFFFFFFFFFFFFFFFFFFFFFFF MUL NOT AND SWAP1 DUP4 PUSH20 0xFFFFFFFFFFFFFFFFFFFFFFFFFFFFFFFFFFFFFFFF AND MUL OR SWAP1 SSTORE POP PUSH20 0xCB31144F983859968E242844C4ED3DDB565589C2 PUSH1 0x16 PUSH1 0x0 PUSH2 0x100 EXP DUP2 SLOAD DUP2 PUSH20 0xFFFFFFFFFFFFFFFFFFFFFFFFFFFFFFFFFFFFFFFF MUL NOT AND SWAP1 DUP4 PUSH20 0xFFFFFFFFFFFFFFFFFFFFFFFFFFFFFFFFFFFFFFFF AND MUL OR SWAP1 SSTORE POP PUSH20 0x89EF51E9CA619952EB364EC6F4111009EF66F75E PUSH1 0x17 PUSH1 0x0 PUSH2 0x100 EXP DUP2 SLOAD DUP2 PUSH20 0xFFFFFFFFFFFFFFFFFFFFFFFFFFFFFFFFFFFFFFFF MUL NOT AND SWAP1 DUP4 PUSH20 0xFFFFFFFFFFFFFFFFFFFFFFFFFFFFFFFFFFFFFFFF AND MUL OR SWAP1 SSTORE POP PUSH20 0xF5D71A9D75ABCAB2FC79CF7306FBC38E33ED6F2D PUSH1 0x18 PUSH1 0x0 PUSH2 0x100 EXP DUP2 SLOAD DUP2 PUSH20 0xFFFFFFFFFFFFFFFFFFFFFFFFFFFFFFFFFFFFFFFF MUL NOT AND SWAP1 DUP4 PUSH20 0xFFFFFFFFFFFFFFFFFFFFFFFFFFFFFFFFFFFFFFFF AND MUL OR SWAP1 SSTORE POP PUSH20 0x39FF53CEAA56F6761BB938500A1449EEE67D9399 PUSH1 0x19 PUSH1 0x0 PUSH2 0x100 EXP DUP2 SLOAD DUP2 PUSH20 0xFFFFFFFFFFFFFFFFFFFFFFFFFFFFFFFFFFFFFFFF MUL NOT AND SWAP1 DUP4 PUSH20 0xFFFFFFFFFFFFFFFFFFFFFFFFFFFFFFFFFFFFFFFF AND MUL OR SWAP1 SSTORE POP PUSH20 0x81127D3BC3C07DBFE99826E54388C8B7A4494028 PUSH1 0x1A PUSH1 0x0 PUSH2 0x100 EXP DUP2 SLOAD DUP2 PUSH20 0xFFFFFFFFFFFFFFFFFFFFFFFFFFFFFFFFFFFFFFFF MUL NOT AND SWAP1 DUP4 PUSH20 0xFFFFFFFFFFFFFFFFFFFFFFFFFFFFFFFFFFFFFFFF AND MUL OR SWAP1 SSTORE POP PUSH20 0x605E088C482E4ABE79603278F5C5C06DFA51459E PUSH1 0x1B PUSH1 0x0 PUSH2 0x100 EXP DUP2 SLOAD DUP2 PUSH20 0xFFFFFFFFFFFFFFFFFFFFFFFFFFFFFFFFFFFFFFFF MUL NOT AND SWAP1 DUP4 PUSH20 0xFFFFFFFFFFFFFFFFFFFFFFFFFFFFFFFFFFFFFFFF AND MUL OR SWAP1 SSTORE POP PUSH20 0x6479A51298BE79645E936405FB9A783DDBF13CE3 PUSH1 0x1C PUSH1 0x0 PUSH2 0x100 EXP DUP2 SLOAD DUP2 PUSH20 0xFFFFFFFFFFFFFFFFFFFFFFFFFFFFFFFFFFFFFFFF MUL NOT AND SWAP1 DUP4 PUSH20 0xFFFFFFFFFFFFFFFFFFFFFFFFFFFFFFFFFFFFFFFF AND MUL OR SWAP1 SSTORE POP CALLVALUE DUP1 ISZERO PUSH3 0x3D2 JUMPI PUSH1 0x0 DUP1 REVERT JUMPDEST POP PUSH1 0x40 MLOAD PUSH3 0x68A2 CODESIZE SUB DUP1 PUSH3 0x68A2 DUP4 CODECOPY DUP2 DUP2 ADD PUSH1 0x40 MSTORE DUP2 ADD SWAP1 PUSH3 0x3F8 SWAP2 SWAP1 PUSH3 0x6ED JUMP JUMPDEST PUSH1 0x40 MLOAD DUP1 PUSH1 0x40 ADD PUSH1 0x40 MSTORE DUP1 PUSH1 0x9 DUP2 MSTORE PUSH1 0x20 ADD PUSH32 0x5475666620477579730000000000000000000000000000000000000000000000 DUP2 MSTORE POP PUSH1 0x40 MLOAD DUP1 PUSH1 0x40 ADD PUSH1 0x40 MSTORE DUP1 PUSH1 0x2 DUP2 MSTORE PUSH1 0x20 ADD PUSH32 0x5447000000000000000000000000000000000000000000000000000000000000 DUP2 MSTORE POP PUSH3 0x484 PUSH3 0x478 PUSH3 0x4E8 PUSH1 0x20 SHL PUSH1 0x20 SHR JUMP JUMPDEST PUSH3 0x4F0 PUSH1 0x20 SHL PUSH1 0x20 SHR JUMP JUMPDEST DUP2 PUSH1 0x1 SWAP1 DUP1 MLOAD SWAP1 PUSH1 0x20 ADD SWAP1 PUSH3 0x49C SWAP3 SWAP2 SWAP1 PUSH3 0x5B4 JUMP JUMPDEST POP DUP1 PUSH1 0x2 SWAP1 DUP1 MLOAD SWAP1 PUSH1 0x20 ADD SWAP1 PUSH3 0x4B5 SWAP3 SWAP2 SWAP1 PUSH3 0x5B4 JUMP JUMPDEST POP POP POP DUP3 PUSH1 0xA DUP2 SWAP1 SSTORE POP DUP2 PUSH1 0xB DUP2 SWAP1 SSTORE POP DUP1 PUSH1 0x11 SWAP1 DUP1 MLOAD SWAP1 PUSH1 0x20 ADD SWAP1 PUSH3 0x4DE SWAP3 SWAP2 SWAP1 PUSH3 0x5B4 JUMP JUMPDEST POP POP POP POP PUSH3 0x8F0 JUMP JUMPDEST PUSH1 0x0 CALLER SWAP1 POP SWAP1 JUMP JUMPDEST PUSH1 0x0 DUP1 PUSH1 0x0 SWAP1 SLOAD SWAP1 PUSH2 0x100 EXP SWAP1 DIV PUSH20 0xFFFFFFFFFFFFFFFFFFFFFFFFFFFFFFFFFFFFFFFF AND SWAP1 POP DUP2 PUSH1 0x0 DUP1 PUSH2 0x100 EXP DUP2 SLOAD DUP2 PUSH20 0xFFFFFFFFFFFFFFFFFFFFFFFFFFFFFFFFFFFFFFFF MUL NOT AND SWAP1 DUP4 PUSH20 0xFFFFFFFFFFFFFFFFFFFFFFFFFFFFFFFFFFFFFFFF AND MUL OR SWAP1 SSTORE POP DUP2 PUSH20 0xFFFFFFFFFFFFFFFFFFFFFFFFFFFFFFFFFFFFFFFF AND DUP2 PUSH20 0xFFFFFFFFFFFFFFFFFFFFFFFFFFFFFFFFFFFFFFFF AND PUSH32 0x8BE0079C531659141344CD1FD0A4F28419497F9722A3DAAFE3B4186F6B6457E0 PUSH1 0x40 MLOAD PUSH1 0x40 MLOAD DUP1 SWAP2 SUB SWAP1 LOG3 POP POP JUMP JUMPDEST DUP3 DUP1 SLOAD PUSH3 0x5C2 SWAP1 PUSH3 0x7FB JUMP JUMPDEST SWAP1 PUSH1 0x0 MSTORE PUSH1 0x20 PUSH1 0x0 KECCAK256 SWAP1 PUSH1 0x1F ADD PUSH1 0x20 SWAP1 DIV DUP2 ADD SWAP3 DUP3 PUSH3 0x5E6 JUMPI PUSH1 0x0 DUP6 SSTORE PUSH3 0x632 JUMP JUMPDEST DUP3 PUSH1 0x1F LT PUSH3 0x601 JUMPI DUP1 MLOAD PUSH1 0xFF NOT AND DUP4 DUP1 ADD OR DUP6 SSTORE PUSH3 0x632 JUMP JUMPDEST DUP3 DUP1 ADD PUSH1 0x1 ADD DUP6 SSTORE DUP3 ISZERO PUSH3 0x632 JUMPI SWAP2 DUP3 ADD JUMPDEST DUP3 DUP2 GT ISZERO PUSH3 0x631 JUMPI DUP3 MLOAD DUP3 SSTORE SWAP2 PUSH1 0x20 ADD SWAP2 SWAP1 PUSH1 0x1 ADD SWAP1 PUSH3 0x614 JUMP JUMPDEST JUMPDEST POP SWAP1 POP PUSH3 0x641 SWAP2 SWAP1 PUSH3 0x645 JUMP JUMPDEST POP SWAP1 JUMP JUMPDEST JUMPDEST DUP1 DUP3 GT ISZERO PUSH3 0x660 JUMPI PUSH1 0x0 DUP2 PUSH1 0x0 SWAP1 SSTORE POP PUSH1 0x1 ADD PUSH3 0x646 JUMP JUMPDEST POP SWAP1 JUMP JUMPDEST PUSH1 0x0 PUSH3 0x67B PUSH3 0x675 DUP5 PUSH3 0x785 JUMP JUMPDEST PUSH3 0x75C JUMP JUMPDEST SWAP1 POP DUP3 DUP2 MSTORE PUSH1 0x20 DUP2 ADD DUP5 DUP5 DUP5 ADD GT ISZERO PUSH3 0x694 JUMPI PUSH1 0x0 DUP1 REVERT JUMPDEST PUSH3 0x6A1 DUP5 DUP3 DUP6 PUSH3 0x7C5 JUMP JUMPDEST POP SWAP4 SWAP3 POP POP POP JUMP JUMPDEST PUSH1 0x0 DUP3 PUSH1 0x1F DUP4 ADD SLT PUSH3 0x6BB JUMPI PUSH1 0x0 DUP1 REVERT JUMPDEST DUP2 MLOAD PUSH3 0x6CD DUP5 DUP3 PUSH1 0x20 DUP7 ADD PUSH3 0x664 JUMP JUMPDEST SWAP2 POP POP SWAP3 SWAP2 POP POP JUMP JUMPDEST PUSH1 0x0 DUP2 MLOAD SWAP1 POP PUSH3 0x6E7 DUP2 PUSH3 0x8D6 JUMP JUMPDEST SWAP3 SWAP2 POP POP JUMP JUMPDEST PUSH1 0x0 DUP1 PUSH1 0x0 PUSH1 0x60 DUP5 DUP7 SUB SLT ISZERO PUSH3 0x703 JUMPI PUSH1 0x0 DUP1 REVERT JUMPDEST PUSH1 0x0 PUSH3 0x713 DUP7 DUP3 DUP8 ADD PUSH3 0x6D6 JUMP JUMPDEST SWAP4 POP POP PUSH1 0x20 PUSH3 0x726 DUP7 DUP3 DUP8 ADD PUSH3 0x6D6 JUMP JUMPDEST SWAP3 POP POP PUSH1 0x40 DUP5 ADD MLOAD PUSH8 0xFFFFFFFFFFFFFFFF DUP2 GT ISZERO PUSH3 0x744 JUMPI PUSH1 0x0 DUP1 REVERT JUMPDEST PUSH3 0x752 DUP7 DUP3 DUP8 ADD PUSH3 0x6A9 JUMP JUMPDEST SWAP2 POP POP SWAP3 POP SWAP3 POP SWAP3 JUMP JUMPDEST PUSH1 0x0 PUSH3 0x768 PUSH3 0x77B JUMP JUMPDEST SWAP1 POP PUSH3 0x776 DUP3 DUP3 PUSH3 0x831 JUMP JUMPDEST SWAP2 SWAP1 POP JUMP JUMPDEST PUSH1 0x0 PUSH1 0x40 MLOAD SWAP1 POP SWAP1 JUMP JUMPDEST PUSH1 0x0 PUSH8 0xFFFFFFFFFFFFFFFF DUP3 GT ISZERO PUSH3 0x7A3 JUMPI PUSH3 0x7A2 PUSH3 0x896 JUMP JUMPDEST JUMPDEST PUSH3 0x7AE DUP3 PUSH3 0x8C5 JUMP JUMPDEST SWAP1 POP PUSH1 0x20 DUP2 ADD SWAP1 POP SWAP2 SWAP1 POP JUMP JUMPDEST PUSH1 0x0 DUP2 SWAP1 POP SWAP2 SWAP1 POP JUMP JUMPDEST PUSH1 0x0 JUMPDEST DUP4 DUP2 LT ISZERO PUSH3 0x7E5 JUMPI DUP1 DUP3 ADD MLOAD DUP2 DUP5 ADD MSTORE PUSH1 0x20 DUP2 ADD SWAP1 POP PUSH3 0x7C8 JUMP JUMPDEST DUP4 DUP2 GT ISZERO PUSH3 0x7F5 JUMPI PUSH1 0x0 DUP5 DUP5 ADD MSTORE JUMPDEST POP POP POP POP JUMP JUMPDEST PUSH1 0x0 PUSH1 0x2 DUP3 DIV SWAP1 POP PUSH1 0x1 DUP3 AND DUP1 PUSH3 0x814 JUMPI PUSH1 0x7F DUP3 AND SWAP2 POP JUMPDEST PUSH1 0x20 DUP3 LT DUP2 EQ ISZERO PUSH3 0x82B JUMPI PUSH3 0x82A PUSH3 0x867 JUMP JUMPDEST JUMPDEST POP SWAP2 SWAP1 POP JUMP JUMPDEST PUSH3 0x83C DUP3 PUSH3 0x8C5 JUMP JUMPDEST DUP2 ADD DUP2 DUP2 LT PUSH8 0xFFFFFFFFFFFFFFFF DUP3 GT OR ISZERO PUSH3 0x85E JUMPI PUSH3 0x85D PUSH3 0x896 JUMP JUMPDEST JUMPDEST DUP1 PUSH1 0x40 MSTORE POP POP POP JUMP JUMPDEST PUSH32 0x4E487B7100000000000000000000000000000000000000000000000000000000 PUSH1 0x0 MSTORE PUSH1 0x22 PUSH1 0x4 MSTORE PUSH1 0x24 PUSH1 0x0 REVERT JUMPDEST PUSH32 0x4E487B7100000000000000000000000000000000000000000000000000000000 PUSH1 0x0 MSTORE PUSH1 0x41 PUSH1 0x4 MSTORE PUSH1 0x24 PUSH1 0x0 REVERT JUMPDEST PUSH1 0x0 PUSH1 0x1F NOT PUSH1 0x1F DUP4 ADD AND SWAP1 POP SWAP2 SWAP1 POP JUMP JUMPDEST PUSH3 0x8E1 DUP2 PUSH3 0x7BB JUMP JUMPDEST DUP2 EQ PUSH3 0x8ED JUMPI PUSH1 0x0 DUP1 REVERT JUMPDEST POP JUMP JUMPDEST PUSH2 0x5FA2 DUP1 PUSH3 0x900 PUSH1 0x0 CODECOPY PUSH1 0x0 RETURN INVALID PUSH1 0x80 PUSH1 0x40 MSTORE PUSH1 0x4 CALLDATASIZE LT PUSH2 0x350 JUMPI PUSH1 0x0 CALLDATALOAD PUSH1 0xE0 SHR DUP1 PUSH4 0x94034B39 GT PUSH2 0x1C6 JUMPI DUP1 PUSH4 0xD2E31447 GT PUSH2 0xF7 JUMPI DUP1 PUSH4 0xE6F17045 GT PUSH2 0x95 JUMPI DUP1 PUSH4 0xE9999EA8 GT PUSH2 0x6F JUMPI DUP1 PUSH4 0xE9999EA8 EQ PUSH2 0xBEE JUMPI DUP1 PUSH4 0xF2FDE38B EQ PUSH2 0xC19 JUMPI DUP1 PUSH4 0xF5BB8CCE EQ PUSH2 0xC42 JUMPI DUP1 PUSH4 0xFC05CE55 EQ PUSH2 0xC6D JUMPI PUSH2 0x350 JUMP JUMPDEST DUP1 PUSH4 0xE6F17045 EQ PUSH2 0xB5D JUMPI DUP1 PUSH4 0xE933BEAA EQ PUSH2 0xB86 JUMPI DUP1 PUSH4 0xE985E9C5 EQ PUSH2 0xBB1 JUMPI PUSH2 0x350 JUMP JUMPDEST DUP1 PUSH4 0xDB2E21BC GT PUSH2 0xD1 JUMPI DUP1 PUSH4 0xDB2E21BC EQ PUSH2 0xAC7 JUMPI DUP1 PUSH4 0xDB3E269B EQ PUSH2 0xADE JUMPI DUP1 PUSH4 0xDE33DFBE EQ PUSH2 0xB07 JUMPI DUP1 PUSH4 0xDE618306 EQ PUSH2 0xB32 JUMPI PUSH2 0x350 JUMP JUMPDEST DUP1 PUSH4 0xD2E31447 EQ PUSH2 0xA46 JUMPI DUP1 PUSH4 0xD7BE7E2F EQ PUSH2 0xA71 JUMPI DUP1 PUSH4 0xD93A9F45 EQ PUSH2 0xA9C JUMPI PUSH2 0x350 JUMP JUMPDEST DUP1 PUSH4 0xA7395056 GT PUSH2 0x164 JUMPI DUP1 PUSH4 0xC87B56DD GT PUSH2 0x13E JUMPI DUP1 PUSH4 0xC87B56DD EQ PUSH2 0x999 JUMPI DUP1 PUSH4 0xCCAAC9E9 EQ PUSH2 0x9D6 JUMPI DUP1 PUSH4 0xCF0B3F38 EQ PUSH2 0xA01 JUMPI DUP1 PUSH4 0xD1563931 EQ PUSH2 0xA2A JUMPI PUSH2 0x350 JUMP JUMPDEST DUP1 PUSH4 0xA7395056 EQ PUSH2 0x91C JUMPI DUP1 PUSH4 0xB88D4FDE EQ PUSH2 0x947 JUMPI DUP1 PUSH4 0xC8624B7B EQ PUSH2 0x970 JUMPI PUSH2 0x350 JUMP JUMPDEST DUP1 PUSH4 0x95D89B41 GT PUSH2 0x1A0 JUMPI DUP1 PUSH4 0x95D89B41 EQ PUSH2 0x872 JUMPI DUP1 PUSH4 0x9C84CFF6 EQ PUSH2 0x89D JUMPI DUP1 PUSH4 0xA035B1FE EQ PUSH2 0x8C8 JUMPI DUP1 PUSH4 0xA22CB465 EQ PUSH2 0x8F3 JUMPI PUSH2 0x350 JUMP JUMPDEST DUP1 PUSH4 0x94034B39 EQ PUSH2 0x7F5 JUMPI DUP1 PUSH4 0x94DF9199 EQ PUSH2 0x81E JUMPI DUP1 PUSH4 0x95AE6611 EQ PUSH2 0x847 JUMPI PUSH2 0x350 JUMP JUMPDEST DUP1 PUSH4 0x52EC383B GT PUSH2 0x2A0 JUMPI DUP1 PUSH4 0x70A08231 GT PUSH2 0x23E JUMPI DUP1 PUSH4 0x81B9BB13 GT PUSH2 0x218 JUMPI DUP1 PUSH4 0x81B9BB13 EQ PUSH2 0x739 JUMPI DUP1 PUSH4 0x879AC153 EQ PUSH2 0x762 JUMPI DUP1 PUSH4 0x88F9E835 EQ PUSH2 0x78D JUMPI DUP1 PUSH4 0x8DA5CB5B EQ PUSH2 0x7CA JUMPI PUSH2 0x350 JUMP JUMPDEST DUP1 PUSH4 0x70A08231 EQ PUSH2 0x6BA JUMPI DUP1 PUSH4 0x715018A6 EQ PUSH2 0x6F7 JUMPI DUP1 PUSH4 0x780D6409 EQ PUSH2 0x70E JUMPI PUSH2 0x350 JUMP JUMPDEST DUP1 PUSH4 0x5E487F1C GT PUSH2 0x27A JUMPI DUP1 PUSH4 0x5E487F1C EQ PUSH2 0x60B JUMPI DUP1 PUSH4 0x60334AA6 EQ PUSH2 0x627 JUMPI DUP1 PUSH4 0x6352211E EQ PUSH2 0x652 JUMPI DUP1 PUSH4 0x6C0360EB EQ PUSH2 0x68F JUMPI PUSH2 0x350 JUMP JUMPDEST DUP1 PUSH4 0x52EC383B EQ PUSH2 0x58C JUMPI DUP1 PUSH4 0x56E6BDED EQ PUSH2 0x5C9 JUMPI DUP1 PUSH4 0x5D06C482 EQ PUSH2 0x5F4 JUMPI PUSH2 0x350 JUMP JUMPDEST DUP1 PUSH4 0x2381C76F GT PUSH2 0x30D JUMPI DUP1 PUSH4 0x37A50397 GT PUSH2 0x2E7 JUMPI DUP1 PUSH4 0x37A50397 EQ PUSH2 0x4F6 JUMPI DUP1 PUSH4 0x3CCFD60B EQ PUSH2 0x521 JUMPI DUP1 PUSH4 0x42842E0E EQ PUSH2 0x538 JUMPI DUP1 PUSH4 0x47F1339E EQ PUSH2 0x561 JUMPI PUSH2 0x350 JUMP JUMPDEST DUP1 PUSH4 0x2381C76F EQ PUSH2 0x477 JUMPI DUP1 PUSH4 0x23B872DD EQ PUSH2 0x4A2 JUMPI DUP1 PUSH4 0x2A95D6C7 EQ PUSH2 0x4CB JUMPI PUSH2 0x350 JUMP JUMPDEST DUP1 PUSH4 0x1FFC9A7 EQ PUSH2 0x355 JUMPI DUP1 PUSH4 0x6FDDE03 EQ PUSH2 0x392 JUMPI DUP1 PUSH4 0x81812FC EQ PUSH2 0x3BD JUMPI DUP1 PUSH4 0x95EA7B3 EQ PUSH2 0x3FA JUMPI DUP1 PUSH4 0xA036EF2 EQ PUSH2 0x423 JUMPI DUP1 PUSH4 0x1A2E50E1 EQ PUSH2 0x44E JUMPI JUMPDEST PUSH1 0x0 DUP1 REVERT JUMPDEST CALLVALUE DUP1 ISZERO PUSH2 0x361 JUMPI PUSH1 0x0 DUP1 REVERT JUMPDEST POP PUSH2 0x37C PUSH1 0x4 DUP1 CALLDATASIZE SUB DUP2 ADD SWAP1 PUSH2 0x377 SWAP2 SWAP1 PUSH2 0x453E JUMP JUMPDEST PUSH2 0xC98 JUMP JUMPDEST PUSH1 0x40 MLOAD PUSH2 0x389 SWAP2 SWAP1 PUSH2 0x4D11 JUMP JUMPDEST PUSH1 0x40 MLOAD DUP1 SWAP2 SUB SWAP1 RETURN JUMPDEST CALLVALUE DUP1 ISZERO PUSH2 0x39E JUMPI PUSH1 0x0 DUP1 REVERT JUMPDEST POP PUSH2 0x3A7 PUSH2 0xD7A JUMP JUMPDEST PUSH1 0x40 MLOAD PUSH2 0x3B4 SWAP2 SWAP1 PUSH2 0x4D2C JUMP JUMPDEST PUSH1 0x40 MLOAD DUP1 SWAP2 SUB SWAP1 RETURN JUMPDEST CALLVALUE DUP1 ISZERO PUSH2 0x3C9 JUMPI PUSH1 0x0 DUP1 REVERT JUMPDEST POP PUSH2 0x3E4 PUSH1 0x4 DUP1 CALLDATASIZE SUB DUP2 ADD SWAP1 PUSH2 0x3DF SWAP2 SWAP1 PUSH2 0x45D1 JUMP JUMPDEST PUSH2 0xE0C JUMP JUMPDEST PUSH1 0x40 MLOAD PUSH2 0x3F1 SWAP2 SWAP1 PUSH2 0x4CAA JUMP JUMPDEST PUSH1 0x40 MLOAD DUP1 SWAP2 SUB SWAP1 RETURN JUMPDEST CALLVALUE DUP1 ISZERO PUSH2 0x406 JUMPI PUSH1 0x0 DUP1 REVERT JUMPDEST POP PUSH2 0x421 PUSH1 0x4 DUP1 CALLDATASIZE SUB DUP2 ADD SWAP1 PUSH2 0x41C SWAP2 SWAP1 PUSH2 0x447C JUMP JUMPDEST PUSH2 0xE91 JUMP JUMPDEST STOP JUMPDEST CALLVALUE DUP1 ISZERO PUSH2 0x42F JUMPI PUSH1 0x0 DUP1 REVERT JUMPDEST POP PUSH2 0x438 PUSH2 0xFA9 JUMP JUMPDEST PUSH1 0x40 MLOAD PUSH2 0x445 SWAP2 SWAP1 PUSH2 0x4D11 JUMP JUMPDEST PUSH1 0x40 MLOAD DUP1 SWAP2 SUB SWAP1 RETURN JUMPDEST CALLVALUE DUP1 ISZERO PUSH2 0x45A JUMPI PUSH1 0x0 DUP1 REVERT JUMPDEST POP PUSH2 0x475 PUSH1 0x4 DUP1 CALLDATASIZE SUB DUP2 ADD SWAP1 PUSH2 0x470 SWAP2 SWAP1 PUSH2 0x45D1 JUMP JUMPDEST PUSH2 0xFBC JUMP JUMPDEST STOP JUMPDEST CALLVALUE DUP1 ISZERO PUSH2 0x483 JUMPI PUSH1 0x0 DUP1 REVERT JUMPDEST POP PUSH2 0x48C PUSH2 0x1042 JUMP JUMPDEST PUSH1 0x40 MLOAD PUSH2 0x499 SWAP2 SWAP1 PUSH2 0x4CAA JUMP JUMPDEST PUSH1 0x40 MLOAD DUP1 SWAP2 SUB SWAP1 RETURN JUMPDEST CALLVALUE DUP1 ISZERO PUSH2 0x4AE JUMPI PUSH1 0x0 DUP1 REVERT JUMPDEST POP PUSH2 0x4C9 PUSH1 0x4 DUP1 CALLDATASIZE SUB DUP2 ADD SWAP1 PUSH2 0x4C4 SWAP2 SWAP1 PUSH2 0x4376 JUMP JUMPDEST PUSH2 0x1068 JUMP JUMPDEST STOP JUMPDEST CALLVALUE DUP1 ISZERO PUSH2 0x4D7 JUMPI PUSH1 0x0 DUP1 REVERT JUMPDEST POP PUSH2 0x4E0 PUSH2 0x10C8 JUMP JUMPDEST PUSH1 0x40 MLOAD PUSH2 0x4ED SWAP2 SWAP1 PUSH2 0x4CAA JUMP JUMPDEST PUSH1 0x40 MLOAD DUP1 SWAP2 SUB SWAP1 RETURN JUMPDEST CALLVALUE DUP1 ISZERO PUSH2 0x502 JUMPI PUSH1 0x0 DUP1 REVERT JUMPDEST POP PUSH2 0x50B PUSH2 0x10EE JUMP JUMPDEST PUSH1 0x40 MLOAD PUSH2 0x518 SWAP2 SWAP1 PUSH2 0x4D11 JUMP JUMPDEST PUSH1 0x40 MLOAD DUP1 SWAP2 SUB SWAP1 RETURN JUMPDEST CALLVALUE DUP1 ISZERO PUSH2 0x52D JUMPI PUSH1 0x0 DUP1 REVERT JUMPDEST POP PUSH2 0x536 PUSH2 0x1101 JUMP JUMPDEST STOP JUMPDEST CALLVALUE DUP1 ISZERO PUSH2 0x544 JUMPI PUSH1 0x0 DUP1 REVERT JUMPDEST POP PUSH2 0x55F PUSH1 0x4 DUP1 CALLDATASIZE SUB DUP2 ADD SWAP1 PUSH2 0x55A SWAP2 SWAP1 PUSH2 0x4376 JUMP JUMPDEST PUSH2 0x18B5 JUMP JUMPDEST STOP JUMPDEST CALLVALUE DUP1 ISZERO PUSH2 0x56D JUMPI PUSH1 0x0 DUP1 REVERT JUMPDEST POP PUSH2 0x576 PUSH2 0x18D5 JUMP JUMPDEST PUSH1 0x40 MLOAD PUSH2 0x583 SWAP2 SWAP1 PUSH2 0x4CAA JUMP JUMPDEST PUSH1 0x40 MLOAD DUP1 SWAP2 SUB SWAP1 RETURN JUMPDEST CALLVALUE DUP1 ISZERO PUSH2 0x598 JUMPI PUSH1 0x0 DUP1 REVERT JUMPDEST POP PUSH2 0x5B3 PUSH1 0x4 DUP1 CALLDATASIZE SUB DUP2 ADD SWAP1 PUSH2 0x5AE SWAP2 SWAP1 PUSH2 0x42E8 JUMP JUMPDEST PUSH2 0x18FB JUMP JUMPDEST PUSH1 0x40 MLOAD PUSH2 0x5C0 SWAP2 SWAP1 PUSH2 0x4D11 JUMP JUMPDEST PUSH1 0x40 MLOAD DUP1 SWAP2 SUB SWAP1 RETURN JUMPDEST CALLVALUE DUP1 ISZERO PUSH2 0x5D5 JUMPI PUSH1 0x0 DUP1 REVERT JUMPDEST POP PUSH2 0x5DE PUSH2 0x19D0 JUMP JUMPDEST PUSH1 0x40 MLOAD PUSH2 0x5EB SWAP2 SWAP1 PUSH2 0x51AE JUMP JUMPDEST PUSH1 0x40 MLOAD DUP1 SWAP2 SUB SWAP1 RETURN JUMPDEST CALLVALUE DUP1 ISZERO PUSH2 0x600 JUMPI PUSH1 0x0 DUP1 REVERT JUMPDEST POP PUSH2 0x609 PUSH2 0x19D6 JUMP JUMPDEST STOP JUMPDEST PUSH2 0x625 PUSH1 0x4 DUP1 CALLDATASIZE SUB DUP2 ADD SWAP1 PUSH2 0x620 SWAP2 SWAP1 PUSH2 0x45D1 JUMP JUMPDEST PUSH2 0x1B6F JUMP JUMPDEST STOP JUMPDEST CALLVALUE DUP1 ISZERO PUSH2 0x633 JUMPI PUSH1 0x0 DUP1 REVERT JUMPDEST POP PUSH2 0x63C PUSH2 0x1D12 JUMP JUMPDEST PUSH1 0x40 MLOAD PUSH2 0x649 SWAP2 SWAP1 PUSH2 0x4CAA JUMP JUMPDEST PUSH1 0x40 MLOAD DUP1 SWAP2 SUB SWAP1 RETURN JUMPDEST CALLVALUE DUP1 ISZERO PUSH2 0x65E JUMPI PUSH1 0x0 DUP1 REVERT JUMPDEST POP PUSH2 0x679 PUSH1 0x4 DUP1 CALLDATASIZE SUB DUP2 ADD SWAP1 PUSH2 0x674 SWAP2 SWAP1 PUSH2 0x45D1 JUMP JUMPDEST PUSH2 0x1D38 JUMP JUMPDEST PUSH1 0x40 MLOAD PUSH2 0x686 SWAP2 SWAP1 PUSH2 0x4CAA JUMP JUMPDEST PUSH1 0x40 MLOAD DUP1 SWAP2 SUB SWAP1 RETURN JUMPDEST CALLVALUE DUP1 ISZERO PUSH2 0x69B JUMPI PUSH1 0x0 DUP1 REVERT JUMPDEST POP PUSH2 0x6A4 PUSH2 0x1DEA JUMP JUMPDEST PUSH1 0x40 MLOAD PUSH2 0x6B1 SWAP2 SWAP1 PUSH2 0x4D2C JUMP JUMPDEST PUSH1 0x40 MLOAD DUP1 SWAP2 SUB SWAP1 RETURN JUMPDEST CALLVALUE DUP1 ISZERO PUSH2 0x6C6 JUMPI PUSH1 0x0 DUP1 REVERT JUMPDEST POP PUSH2 0x6E1 PUSH1 0x4 DUP1 CALLDATASIZE SUB DUP2 ADD SWAP1 PUSH2 0x6DC SWAP2 SWAP1 PUSH2 0x42E8 JUMP JUMPDEST PUSH2 0x1E78 JUMP JUMPDEST PUSH1 0x40 MLOAD PUSH2 0x6EE SWAP2 SWAP1 PUSH2 0x51AE JUMP JUMPDEST PUSH1 0x40 MLOAD DUP1 SWAP2 SUB SWAP1 RETURN JUMPDEST CALLVALUE DUP1 ISZERO PUSH2 0x703 JUMPI PUSH1 0x0 DUP1 REVERT JUMPDEST POP PUSH2 0x70C PUSH2 0x1F30 JUMP JUMPDEST STOP JUMPDEST CALLVALUE DUP1 ISZERO PUSH2 0x71A JUMPI PUSH1 0x0 DUP1 REVERT JUMPDEST POP PUSH2 0x723 PUSH2 0x1FB8 JUMP JUMPDEST PUSH1 0x40 MLOAD PUSH2 0x730 SWAP2 SWAP1 PUSH2 0x51AE JUMP JUMPDEST PUSH1 0x40 MLOAD DUP1 SWAP2 SUB SWAP1 RETURN JUMPDEST CALLVALUE DUP1 ISZERO PUSH2 0x745 JUMPI PUSH1 0x0 DUP1 REVERT JUMPDEST POP PUSH2 0x760 PUSH1 0x4 DUP1 CALLDATASIZE SUB DUP2 ADD SWAP1 PUSH2 0x75B SWAP2 SWAP1 PUSH2 0x45D1 JUMP JUMPDEST PUSH2 0x1FBE JUMP JUMPDEST STOP JUMPDEST CALLVALUE DUP1 ISZERO PUSH2 0x76E JUMPI PUSH1 0x0 DUP1 REVERT JUMPDEST POP PUSH2 0x777 PUSH2 0x2167 JUMP JUMPDEST PUSH1 0x40 MLOAD PUSH2 0x784 SWAP2 SWAP1 PUSH2 0x51AE JUMP JUMPDEST PUSH1 0x40 MLOAD DUP1 SWAP2 SUB SWAP1 RETURN JUMPDEST CALLVALUE DUP1 ISZERO PUSH2 0x799 JUMPI PUSH1 0x0 DUP1 REVERT JUMPDEST POP PUSH2 0x7B4 PUSH1 0x4 DUP1 CALLDATASIZE SUB DUP2 ADD SWAP1 PUSH2 0x7AF SWAP2 SWAP1 PUSH2 0x45D1 JUMP JUMPDEST PUSH2 0x216D JUMP JUMPDEST PUSH1 0x40 MLOAD PUSH2 0x7C1 SWAP2 SWAP1 PUSH2 0x4CAA JUMP JUMPDEST PUSH1 0x40 MLOAD DUP1 SWAP2 SUB SWAP1 RETURN JUMPDEST CALLVALUE DUP1 ISZERO PUSH2 0x7D6 JUMPI PUSH1 0x0 DUP1 REVERT JUMPDEST POP PUSH2 0x7DF PUSH2 0x21AC JUMP JUMPDEST PUSH1 0x40 MLOAD PUSH2 0x7EC SWAP2 SWAP1 PUSH2 0x4CAA JUMP JUMPDEST PUSH1 0x40 MLOAD DUP1 SWAP2 SUB SWAP1 RETURN JUMPDEST CALLVALUE DUP1 ISZERO PUSH2 0x801 JUMPI PUSH1 0x0 DUP1 REVERT JUMPDEST POP PUSH2 0x81C PUSH1 0x4 DUP1 CALLDATASIZE SUB DUP2 ADD SWAP1 PUSH2 0x817 SWAP2 SWAP1 PUSH2 0x45D1 JUMP JUMPDEST PUSH2 0x21D5 JUMP JUMPDEST STOP JUMPDEST CALLVALUE DUP1 ISZERO PUSH2 0x82A JUMPI PUSH1 0x0 DUP1 REVERT JUMPDEST POP PUSH2 0x845 PUSH1 0x4 DUP1 CALLDATASIZE SUB DUP2 ADD SWAP1 PUSH2 0x840 SWAP2 SWAP1 PUSH2 0x4590 JUMP JUMPDEST PUSH2 0x2333 JUMP JUMPDEST STOP JUMPDEST CALLVALUE DUP1 ISZERO PUSH2 0x853 JUMPI PUSH1 0x0 DUP1 REVERT JUMPDEST POP PUSH2 0x85C PUSH2 0x23C9 JUMP JUMPDEST PUSH1 0x40 MLOAD PUSH2 0x869 SWAP2 SWAP1 PUSH2 0x4CAA JUMP JUMPDEST PUSH1 0x40 MLOAD DUP1 SWAP2 SUB SWAP1 RETURN JUMPDEST CALLVALUE DUP1 ISZERO PUSH2 0x87E JUMPI PUSH1 0x0 DUP1 REVERT JUMPDEST POP PUSH2 0x887 PUSH2 0x23EF JUMP JUMPDEST PUSH1 0x40 MLOAD PUSH2 0x894 SWAP2 SWAP1 PUSH2 0x4D2C JUMP JUMPDEST PUSH1 0x40 MLOAD DUP1 SWAP2 SUB SWAP1 RETURN JUMPDEST CALLVALUE DUP1 ISZERO PUSH2 0x8A9 JUMPI PUSH1 0x0 DUP1 REVERT JUMPDEST POP PUSH2 0x8B2 PUSH2 0x2481 JUMP JUMPDEST PUSH1 0x40 MLOAD PUSH2 0x8BF SWAP2 SWAP1 PUSH2 0x51AE JUMP JUMPDEST PUSH1 0x40 MLOAD DUP1 SWAP2 SUB SWAP1 RETURN JUMPDEST CALLVALUE DUP1 ISZERO PUSH2 0x8D4 JUMPI PUSH1 0x0 DUP1 REVERT JUMPDEST POP PUSH2 0x8DD PUSH2 0x2487 JUMP JUMPDEST PUSH1 0x40 MLOAD PUSH2 0x8EA SWAP2 SWAP1 PUSH2 0x51AE JUMP JUMPDEST PUSH1 0x40 MLOAD DUP1 SWAP2 SUB SWAP1 RETURN JUMPDEST CALLVALUE DUP1 ISZERO PUSH2 0x8FF JUMPI PUSH1 0x0 DUP1 REVERT JUMPDEST POP PUSH2 0x91A PUSH1 0x4 DUP1 CALLDATASIZE SUB DUP2 ADD SWAP1 PUSH2 0x915 SWAP2 SWAP1 PUSH2 0x4440 JUMP JUMPDEST PUSH2 0x248D JUMP JUMPDEST STOP JUMPDEST CALLVALUE DUP1 ISZERO PUSH2 0x928 JUMPI PUSH1 0x0 DUP1 REVERT JUMPDEST POP PUSH2 0x931 PUSH2 0x260E JUMP JUMPDEST PUSH1 0x40 MLOAD PUSH2 0x93E SWAP2 SWAP1 PUSH2 0x4D11 JUMP JUMPDEST PUSH1 0x40 MLOAD DUP1 SWAP2 SUB SWAP1 RETURN JUMPDEST CALLVALUE DUP1 ISZERO PUSH2 0x953 JUMPI PUSH1 0x0 DUP1 REVERT JUMPDEST POP PUSH2 0x96E PUSH1 0x4 DUP1 CALLDATASIZE SUB DUP2 ADD SWAP1 PUSH2 0x969 SWAP2 SWAP1 PUSH2 0x43C5 JUMP JUMPDEST PUSH2 0x2621 JUMP JUMPDEST STOP JUMPDEST CALLVALUE DUP1 ISZERO PUSH2 0x97C JUMPI PUSH1 0x0 DUP1 REVERT JUMPDEST POP PUSH2 0x997 PUSH1 0x4 DUP1 CALLDATASIZE SUB DUP2 ADD SWAP1 PUSH2 0x992 SWAP2 SWAP1 PUSH2 0x45D1 JUMP JUMPDEST PUSH2 0x2683 JUMP JUMPDEST STOP JUMPDEST CALLVALUE DUP1 ISZERO PUSH2 0x9A5 JUMPI PUSH1 0x0 DUP1 REVERT JUMPDEST POP PUSH2 0x9C0 PUSH1 0x4 DUP1 CALLDATASIZE SUB DUP2 ADD SWAP1 PUSH2 0x9BB SWAP2 SWAP1 PUSH2 0x45D1 JUMP JUMPDEST PUSH2 0x2709 JUMP JUMPDEST PUSH1 0x40 MLOAD PUSH2 0x9CD SWAP2 SWAP1 PUSH2 0x4D2C JUMP JUMPDEST PUSH1 0x40 MLOAD DUP1 SWAP2 SUB SWAP1 RETURN JUMPDEST CALLVALUE DUP1 ISZERO PUSH2 0x9E2 JUMPI PUSH1 0x0 DUP1 REVERT JUMPDEST POP PUSH2 0x9EB PUSH2 0x27B1 JUMP JUMPDEST PUSH1 0x40 MLOAD PUSH2 0x9F8 SWAP2 SWAP1 PUSH2 0x51AE JUMP JUMPDEST PUSH1 0x40 MLOAD DUP1 SWAP2 SUB SWAP1 RETURN JUMPDEST CALLVALUE DUP1 ISZERO PUSH2 0xA0D JUMPI PUSH1 0x0 DUP1 REVERT JUMPDEST POP PUSH2 0xA28 PUSH1 0x4 DUP1 CALLDATASIZE SUB DUP2 ADD SWAP1 PUSH2 0xA23 SWAP2 SWAP1 PUSH2 0x44FD JUMP JUMPDEST PUSH2 0x27B7 JUMP JUMPDEST STOP JUMPDEST PUSH2 0xA44 PUSH1 0x4 DUP1 CALLDATASIZE SUB DUP2 ADD SWAP1 PUSH2 0xA3F SWAP2 SWAP1 PUSH2 0x45D1 JUMP JUMPDEST PUSH2 0x2AAB JUMP JUMPDEST STOP JUMPDEST CALLVALUE DUP1 ISZERO PUSH2 0xA52 JUMPI PUSH1 0x0 DUP1 REVERT JUMPDEST POP PUSH2 0xA5B PUSH2 0x2D0C JUMP JUMPDEST PUSH1 0x40 MLOAD PUSH2 0xA68 SWAP2 SWAP1 PUSH2 0x4D11 JUMP JUMPDEST PUSH1 0x40 MLOAD DUP1 SWAP2 SUB SWAP1 RETURN JUMPDEST CALLVALUE DUP1 ISZERO PUSH2 0xA7D JUMPI PUSH1 0x0 DUP1 REVERT JUMPDEST POP PUSH2 0xA86 PUSH2 0x2D1F JUMP JUMPDEST PUSH1 0x40 MLOAD PUSH2 0xA93 SWAP2 SWAP1 PUSH2 0x51AE JUMP JUMPDEST PUSH1 0x40 MLOAD DUP1 SWAP2 SUB SWAP1 RETURN JUMPDEST CALLVALUE DUP1 ISZERO PUSH2 0xAA8 JUMPI PUSH1 0x0 DUP1 REVERT JUMPDEST POP PUSH2 0xAB1 PUSH2 0x2D25 JUMP JUMPDEST PUSH1 0x40 MLOAD PUSH2 0xABE SWAP2 SWAP1 PUSH2 0x51AE JUMP JUMPDEST PUSH1 0x40 MLOAD DUP1 SWAP2 SUB SWAP1 RETURN JUMPDEST CALLVALUE DUP1 ISZERO PUSH2 0xAD3 JUMPI PUSH1 0x0 DUP1 REVERT JUMPDEST POP PUSH2 0xADC PUSH2 0x2D2B JUMP JUMPDEST STOP JUMPDEST CALLVALUE DUP1 ISZERO PUSH2 0xAEA JUMPI PUSH1 0x0 DUP1 REVERT JUMPDEST POP PUSH2 0xB05 PUSH1 0x4 DUP1 CALLDATASIZE SUB DUP2 ADD SWAP1 PUSH2 0xB00 SWAP2 SWAP1 PUSH2 0x45FA JUMP JUMPDEST PUSH2 0x2E78 JUMP JUMPDEST STOP JUMPDEST CALLVALUE DUP1 ISZERO PUSH2 0xB13 JUMPI PUSH1 0x0 DUP1 REVERT JUMPDEST POP PUSH2 0xB1C PUSH2 0x2F9F JUMP JUMPDEST PUSH1 0x40 MLOAD PUSH2 0xB29 SWAP2 SWAP1 PUSH2 0x51AE JUMP JUMPDEST PUSH1 0x40 MLOAD DUP1 SWAP2 SUB SWAP1 RETURN JUMPDEST CALLVALUE DUP1 ISZERO PUSH2 0xB3E JUMPI PUSH1 0x0 DUP1 REVERT JUMPDEST POP PUSH2 0xB47 PUSH2 0x2FA5 JUMP JUMPDEST PUSH1 0x40 MLOAD PUSH2 0xB54 SWAP2 SWAP1 PUSH2 0x4CAA JUMP JUMPDEST PUSH1 0x40 MLOAD DUP1 SWAP2 SUB SWAP1 RETURN JUMPDEST CALLVALUE DUP1 ISZERO PUSH2 0xB69 JUMPI PUSH1 0x0 DUP1 REVERT JUMPDEST POP PUSH2 0xB84 PUSH1 0x4 DUP1 CALLDATASIZE SUB DUP2 ADD SWAP1 PUSH2 0xB7F SWAP2 SWAP1 PUSH2 0x44B8 JUMP JUMPDEST PUSH2 0x2FCB JUMP JUMPDEST STOP JUMPDEST CALLVALUE DUP1 ISZERO PUSH2 0xB92 JUMPI PUSH1 0x0 DUP1 REVERT JUMPDEST POP PUSH2 0xB9B PUSH2 0x306B JUMP JUMPDEST PUSH1 0x40 MLOAD PUSH2 0xBA8 SWAP2 SWAP1 PUSH2 0x4CAA JUMP JUMPDEST PUSH1 0x40 MLOAD DUP1 SWAP2 SUB SWAP1 RETURN JUMPDEST CALLVALUE DUP1 ISZERO PUSH2 0xBBD JUMPI PUSH1 0x0 DUP1 REVERT JUMPDEST POP PUSH2 0xBD8 PUSH1 0x4 DUP1 CALLDATASIZE SUB DUP2 ADD SWAP1 PUSH2 0xBD3 SWAP2 SWAP1 PUSH2 0x433A JUMP JUMPDEST PUSH2 0x3091 JUMP JUMPDEST PUSH1 0x40 MLOAD PUSH2 0xBE5 SWAP2 SWAP1 PUSH2 0x4D11 JUMP JUMPDEST PUSH1 0x40 MLOAD DUP1 SWAP2 SUB SWAP1 RETURN JUMPDEST CALLVALUE DUP1 ISZERO PUSH2 0xBFA JUMPI PUSH1 0x0 DUP1 REVERT JUMPDEST POP PUSH2 0xC03 PUSH2 0x3125 JUMP JUMPDEST PUSH1 0x40 MLOAD PUSH2 0xC10 SWAP2 SWAP1 PUSH2 0x51AE JUMP JUMPDEST PUSH1 0x40 MLOAD DUP1 SWAP2 SUB SWAP1 RETURN JUMPDEST CALLVALUE DUP1 ISZERO PUSH2 0xC25 JUMPI PUSH1 0x0 DUP1 REVERT JUMPDEST POP PUSH2 0xC40 PUSH1 0x4 DUP1 CALLDATASIZE SUB DUP2 ADD SWAP1 PUSH2 0xC3B SWAP2 SWAP1 PUSH2 0x42E8 JUMP JUMPDEST PUSH2 0x312B JUMP JUMPDEST STOP JUMPDEST CALLVALUE DUP1 ISZERO PUSH2 0xC4E JUMPI PUSH1 0x0 DUP1 REVERT JUMPDEST POP PUSH2 0xC57 PUSH2 0x3223 JUMP JUMPDEST PUSH1 0x40 MLOAD PUSH2 0xC64 SWAP2 SWAP1 PUSH2 0x4CAA JUMP JUMPDEST PUSH1 0x40 MLOAD DUP1 SWAP2 SUB SWAP1 RETURN JUMPDEST CALLVALUE DUP1 ISZERO PUSH2 0xC79 JUMPI PUSH1 0x0 DUP1 REVERT JUMPDEST POP PUSH2 0xC82 PUSH2 0x3249 JUMP JUMPDEST PUSH1 0x40 MLOAD PUSH2 0xC8F SWAP2 SWAP1 PUSH2 0x4CAA JUMP JUMPDEST PUSH1 0x40 MLOAD DUP1 SWAP2 SUB SWAP1 RETURN JUMPDEST PUSH1 0x0 PUSH32 0x80AC58CD00000000000000000000000000000000000000000000000000000000 PUSH28 0xFFFFFFFFFFFFFFFFFFFFFFFFFFFFFFFFFFFFFFFFFFFFFFFFFFFFFFFF NOT AND DUP3 PUSH28 0xFFFFFFFFFFFFFFFFFFFFFFFFFFFFFFFFFFFFFFFFFFFFFFFFFFFFFFFF NOT AND EQ DUP1 PUSH2 0xD63 JUMPI POP PUSH32 0x5B5E139F00000000000000000000000000000000000000000000000000000000 PUSH28 0xFFFFFFFFFFFFFFFFFFFFFFFFFFFFFFFFFFFFFFFFFFFFFFFFFFFFFFFF NOT AND DUP3 PUSH28 0xFFFFFFFFFFFFFFFFFFFFFFFFFFFFFFFFFFFFFFFFFFFFFFFFFFFFFFFF NOT AND EQ JUMPDEST DUP1 PUSH2 0xD73 JUMPI POP PUSH2 0xD72 DUP3 PUSH2 0x326F JUMP JUMPDEST JUMPDEST SWAP1 POP SWAP2 SWAP1 POP JUMP JUMPDEST PUSH1 0x60 PUSH1 0x1 DUP1 SLOAD PUSH2 0xD89 SWAP1 PUSH2 0x54AA JUMP JUMPDEST DUP1 PUSH1 0x1F ADD PUSH1 0x20 DUP1 SWAP2 DIV MUL PUSH1 0x20 ADD PUSH1 0x40 MLOAD SWAP1 DUP2 ADD PUSH1 0x40 MSTORE DUP1 SWAP3 SWAP2 SWAP1 DUP2 DUP2 MSTORE PUSH1 0x20 ADD DUP3 DUP1 SLOAD PUSH2 0xDB5 SWAP1 PUSH2 0x54AA JUMP JUMPDEST DUP1 ISZERO PUSH2 0xE02 JUMPI DUP1 PUSH1 0x1F LT PUSH2 0xDD7 JUMPI PUSH2 0x100 DUP1 DUP4 SLOAD DIV MUL DUP4 MSTORE SWAP2 PUSH1 0x20 ADD SWAP2 PUSH2 0xE02 JUMP JUMPDEST DUP3 ADD SWAP2 SWAP1 PUSH1 0x0 MSTORE PUSH1 0x20 PUSH1 0x0 KECCAK256 SWAP1 JUMPDEST DUP2 SLOAD DUP2 MSTORE SWAP1 PUSH1 0x1 ADD SWAP1 PUSH1 0x20 ADD DUP1 DUP4 GT PUSH2 0xDE5 JUMPI DUP3 SWAP1 SUB PUSH1 0x1F AND DUP3 ADD SWAP2 JUMPDEST POP POP POP POP POP SWAP1 POP SWAP1 JUMP JUMPDEST PUSH1 0x0 PUSH2 0xE17 DUP3 PUSH2 0x32D9 JUMP JUMPDEST PUSH2 0xE56 JUMPI PUSH1 0x40 MLOAD PUSH32 0x8C379A000000000000000000000000000000000000000000000000000000000 DUP2 MSTORE PUSH1 0x4 ADD PUSH2 0xE4D SWAP1 PUSH2 0x4FAE JUMP JUMPDEST PUSH1 0x40 MLOAD DUP1 SWAP2 SUB SWAP1 REVERT JUMPDEST PUSH1 0x5 PUSH1 0x0 DUP4 DUP2 MSTORE PUSH1 0x20 ADD SWAP1 DUP2 MSTORE PUSH1 0x20 ADD PUSH1 0x0 KECCAK256 PUSH1 0x0 SWAP1 SLOAD SWAP1 PUSH2 0x100 EXP SWAP1 DIV PUSH20 0xFFFFFFFFFFFFFFFFFFFFFFFFFFFFFFFFFFFFFFFF AND SWAP1 POP SWAP2 SWAP1 POP JUMP JUMPDEST PUSH1 0x0 PUSH2 0xE9C DUP3 PUSH2 0x1D38 JUMP JUMPDEST SWAP1 POP DUP1 PUSH20 0xFFFFFFFFFFFFFFFFFFFFFFFFFFFFFFFFFFFFFFFF AND DUP4 PUSH20 0xFFFFFFFFFFFFFFFFFFFFFFFFFFFFFFFFFFFFFFFF AND EQ ISZERO PUSH2 0xF0D JUMPI PUSH1 0x40 MLOAD PUSH32 0x8C379A000000000000000000000000000000000000000000000000000000000 DUP2 MSTORE PUSH1 0x4 ADD PUSH2 0xF04 SWAP1 PUSH2 0x508E JUMP JUMPDEST PUSH1 0x40 MLOAD DUP1 SWAP2 SUB SWAP1 REVERT JUMPDEST DUP1 PUSH20 0xFFFFFFFFFFFFFFFFFFFFFFFFFFFFFFFFFFFFFFFF AND PUSH2 0xF2C PUSH2 0x3345 JUMP JUMPDEST PUSH20 0xFFFFFFFFFFFFFFFFFFFFFFFFFFFFFFFFFFFFFFFF AND EQ DUP1 PUSH2 0xF5B JUMPI POP PUSH2 0xF5A DUP2 PUSH2 0xF55 PUSH2 0x3345 JUMP JUMPDEST PUSH2 0x3091 JUMP JUMPDEST JUMPDEST PUSH2 0xF9A JUMPI PUSH1 0x40 MLOAD PUSH32 0x8C379A000000000000000000000000000000000000000000000000000000000 DUP2 MSTORE PUSH1 0x4 ADD PUSH2 0xF91 SWAP1 PUSH2 0x4ECE JUMP JUMPDEST PUSH1 0x40 MLOAD DUP1 SWAP2 SUB SWAP1 REVERT JUMPDEST PUSH2 0xFA4 DUP4 DUP4 PUSH2 0x334D JUMP JUMPDEST POP POP POP JUMP JUMPDEST PUSH1 0x12 PUSH1 0x0 SWAP1 SLOAD SWAP1 PUSH2 0x100 EXP SWAP1 DIV PUSH1 0xFF AND DUP2 JUMP JUMPDEST PUSH2 0xFC4 PUSH2 0x3345 JUMP JUMPDEST PUSH20 0xFFFFFFFFFFFFFFFFFFFFFFFFFFFFFFFFFFFFFFFF AND PUSH2 0xFE2 PUSH2 0x21AC JUMP JUMPDEST PUSH20 0xFFFFFFFFFFFFFFFFFFFFFFFFFFFFFFFFFFFFFFFF AND EQ PUSH2 0x1038 JUMPI PUSH1 0x40 MLOAD PUSH32 0x8C379A000000000000000000000000000000000000000000000000000000000 DUP2 MSTORE PUSH1 0x4 ADD PUSH2 0x102F SWAP1 PUSH2 0x4FEE JUMP JUMPDEST PUSH1 0x40 MLOAD DUP1 SWAP2 SUB SWAP1 REVERT JUMPDEST DUP1 PUSH1 0x7 DUP2 SWAP1 SSTORE POP POP JUMP JUMPDEST PUSH1 0x14 PUSH1 0x0 SWAP1 SLOAD SWAP1 PUSH2 0x100 EXP SWAP1 DIV PUSH20 0xFFFFFFFFFFFFFFFFFFFFFFFFFFFFFFFFFFFFFFFF AND DUP2 JUMP JUMPDEST PUSH2 0x1079 PUSH2 0x1073 PUSH2 0x3345 JUMP JUMPDEST DUP3 PUSH2 0x3406 JUMP JUMPDEST PUSH2 0x10B8 JUMPI PUSH1 0x40 MLOAD PUSH32 0x8C379A000000000000000000000000000000000000000000000000000000000 DUP2 MSTORE PUSH1 0x4 ADD PUSH2 0x10AF SWAP1 PUSH2 0x50EE JUMP JUMPDEST PUSH1 0x40 MLOAD DUP1 SWAP2 SUB SWAP1 REVERT JUMPDEST PUSH2 0x10C3 DUP4 DUP4 DUP4 PUSH2 0x34E4 JUMP JUMPDEST POP POP POP JUMP JUMPDEST PUSH1 0x16 PUSH1 0x0 SWAP1 SLOAD SWAP1 PUSH2 0x100 EXP SWAP1 DIV PUSH20 0xFFFFFFFFFFFFFFFFFFFFFFFFFFFFFFFFFFFFFFFF AND DUP2 JUMP JUMPDEST PUSH1 0x12 PUSH1 0x1 SWAP1 SLOAD SWAP1 PUSH2 0x100 EXP SWAP1 DIV PUSH1 0xFF AND DUP2 JUMP JUMPDEST PUSH2 0x1109 PUSH2 0x3345 JUMP JUMPDEST PUSH20 0xFFFFFFFFFFFFFFFFFFFFFFFFFFFFFFFFFFFFFFFF AND PUSH2 0x1127 PUSH2 0x21AC JUMP JUMPDEST PUSH20 0xFFFFFFFFFFFFFFFFFFFFFFFFFFFFFFFFFFFFFFFF AND EQ PUSH2 0x117D JUMPI PUSH1 0x40 MLOAD PUSH32 0x8C379A000000000000000000000000000000000000000000000000000000000 DUP2 MSTORE PUSH1 0x4 ADD PUSH2 0x1174 SWAP1 PUSH2 0x4FEE JUMP JUMPDEST PUSH1 0x40 MLOAD DUP1 SWAP2 SUB SWAP1 REVERT JUMPDEST PUSH1 0x0 SELFBALANCE GT PUSH2 0x11C0 JUMPI PUSH1 0x40 MLOAD PUSH32 0x8C379A000000000000000000000000000000000000000000000000000000000 DUP2 MSTORE PUSH1 0x4 ADD PUSH2 0x11B7 SWAP1 PUSH2 0x4F8E JUMP JUMPDEST PUSH1 0x40 MLOAD DUP1 SWAP2 SUB SWAP1 REVERT JUMPDEST PUSH1 0x0 SELFBALANCE SWAP1 POP PUSH1 0x0 PUSH1 0x14 PUSH1 0x0 SWAP1 SLOAD SWAP1 PUSH2 0x100 EXP SWAP1 DIV PUSH20 0xFFFFFFFFFFFFFFFFFFFFFFFFFFFFFFFFFFFFFFFF AND PUSH20 0xFFFFFFFFFFFFFFFFFFFFFFFFFFFFFFFFFFFFFFFF AND PUSH2 0x1229 PUSH2 0x2710 PUSH2 0x121B PUSH2 0x6C6 DUP7 PUSH2 0x3740 SWAP1 SWAP2 SWAP1 PUSH4 0xFFFFFFFF AND JUMP JUMPDEST PUSH2 0x3756 SWAP1 SWAP2 SWAP1 PUSH4 0xFFFFFFFF AND JUMP JUMPDEST PUSH1 0x40 MLOAD PUSH2 0x1235 SWAP1 PUSH2 0x4C95 JUMP JUMPDEST PUSH1 0x0 PUSH1 0x40 MLOAD DUP1 DUP4 SUB DUP2 DUP6 DUP8 GAS CALL SWAP3 POP POP POP RETURNDATASIZE DUP1 PUSH1 0x0 DUP2 EQ PUSH2 0x1272 JUMPI PUSH1 0x40 MLOAD SWAP2 POP PUSH1 0x1F NOT PUSH1 0x3F RETURNDATASIZE ADD AND DUP3 ADD PUSH1 0x40 MSTORE RETURNDATASIZE DUP3 MSTORE RETURNDATASIZE PUSH1 0x0 PUSH1 0x20 DUP5 ADD RETURNDATACOPY PUSH2 0x1277 JUMP JUMPDEST PUSH1 0x60 SWAP2 POP JUMPDEST POP POP SWAP1 POP PUSH1 0x0 PUSH1 0x15 PUSH1 0x0 SWAP1 SLOAD SWAP1 PUSH2 0x100 EXP SWAP1 DIV PUSH20 0xFFFFFFFFFFFFFFFFFFFFFFFFFFFFFFFFFFFFFFFF AND PUSH20 0xFFFFFFFFFFFFFFFFFFFFFFFFFFFFFFFFFFFFFFFF AND PUSH2 0x12DF PUSH2 0x2710 PUSH2 0x12D1 PUSH2 0x6C6 DUP8 PUSH2 0x3740 SWAP1 SWAP2 SWAP1 PUSH4 0xFFFFFFFF AND JUMP JUMPDEST PUSH2 0x3756 SWAP1 SWAP2 SWAP1 PUSH4 0xFFFFFFFF AND JUMP JUMPDEST PUSH1 0x40 MLOAD PUSH2 0x12EB SWAP1 PUSH2 0x4C95 JUMP JUMPDEST PUSH1 0x0 PUSH1 0x40 MLOAD DUP1 DUP4 SUB DUP2 DUP6 DUP8 GAS CALL SWAP3 POP POP POP RETURNDATASIZE DUP1 PUSH1 0x0 DUP2 EQ PUSH2 0x1328 JUMPI PUSH1 0x40 MLOAD SWAP2 POP PUSH1 0x1F NOT PUSH1 0x3F RETURNDATASIZE ADD AND DUP3 ADD PUSH1 0x40 MSTORE RETURNDATASIZE DUP3 MSTORE RETURNDATASIZE PUSH1 0x0 PUSH1 0x20 DUP5 ADD RETURNDATACOPY PUSH2 0x132D JUMP JUMPDEST PUSH1 0x60 SWAP2 POP JUMPDEST POP POP SWAP1 POP PUSH1 0x0 PUSH1 0x16 PUSH1 0x0 SWAP1 SLOAD SWAP1 PUSH2 0x100 EXP SWAP1 DIV PUSH20 0xFFFFFFFFFFFFFFFFFFFFFFFFFFFFFFFFFFFFFFFF AND PUSH20 0xFFFFFFFFFFFFFFFFFFFFFFFFFFFFFFFFFFFFFFFF AND PUSH2 0x1395 PUSH2 0x2710 PUSH2 0x1387 PUSH2 0x6C6 DUP9 PUSH2 0x3740 SWAP1 SWAP2 SWAP1 PUSH4 0xFFFFFFFF AND JUMP JUMPDEST PUSH2 0x3756 SWAP1 SWAP2 SWAP1 PUSH4 0xFFFFFFFF AND JUMP JUMPDEST PUSH1 0x40 MLOAD PUSH2 0x13A1 SWAP1 PUSH2 0x4C95 JUMP JUMPDEST PUSH1 0x0 PUSH1 0x40 MLOAD DUP1 DUP4 SUB DUP2 DUP6 DUP8 GAS CALL SWAP3 POP POP POP RETURNDATASIZE DUP1 PUSH1 0x0 DUP2 EQ PUSH2 0x13DE JUMPI PUSH1 0x40 MLOAD SWAP2 POP PUSH1 0x1F NOT PUSH1 0x3F RETURNDATASIZE ADD AND DUP3 ADD PUSH1 0x40 MSTORE RETURNDATASIZE DUP3 MSTORE RETURNDATASIZE PUSH1 0x0 PUSH1 0x20 DUP5 ADD RETURNDATACOPY PUSH2 0x13E3 JUMP JUMPDEST PUSH1 0x60 SWAP2 POP JUMPDEST POP POP SWAP1 POP PUSH1 0x0 PUSH1 0x17 PUSH1 0x0 SWAP1 SLOAD SWAP1 PUSH2 0x100 EXP SWAP1 DIV PUSH20 0xFFFFFFFFFFFFFFFFFFFFFFFFFFFFFFFFFFFFFFFF AND PUSH20 0xFFFFFFFFFFFFFFFFFFFFFFFFFFFFFFFFFFFFFFFF AND PUSH2 0x1449 PUSH1 0x64 PUSH2 0x143B PUSH1 0xB DUP10 PUSH2 0x3740 SWAP1 SWAP2 SWAP1 PUSH4 0xFFFFFFFF AND JUMP JUMPDEST PUSH2 0x3756 SWAP1 SWAP2 SWAP1 PUSH4 0xFFFFFFFF AND JUMP JUMPDEST PUSH1 0x40 MLOAD PUSH2 0x1455 SWAP1 PUSH2 0x4C95 JUMP JUMPDEST PUSH1 0x0 PUSH1 0x40 MLOAD DUP1 DUP4 SUB DUP2 DUP6 DUP8 GAS CALL SWAP3 POP POP POP RETURNDATASIZE DUP1 PUSH1 0x0 DUP2 EQ PUSH2 0x1492 JUMPI PUSH1 0x40 MLOAD SWAP2 POP PUSH1 0x1F NOT PUSH1 0x3F RETURNDATASIZE ADD AND DUP3 ADD PUSH1 0x40 MSTORE RETURNDATASIZE DUP3 MSTORE RETURNDATASIZE PUSH1 0x0 PUSH1 0x20 DUP5 ADD RETURNDATACOPY PUSH2 0x1497 JUMP JUMPDEST PUSH1 0x60 SWAP2 POP JUMPDEST POP POP SWAP1 POP PUSH1 0x0 PUSH1 0x18 PUSH1 0x0 SWAP1 SLOAD SWAP1 PUSH2 0x100 EXP SWAP1 DIV PUSH20 0xFFFFFFFFFFFFFFFFFFFFFFFFFFFFFFFFFFFFFFFF AND PUSH20 0xFFFFFFFFFFFFFFFFFFFFFFFFFFFFFFFFFFFFFFFF AND PUSH2 0x14FE PUSH2 0x3E8 PUSH2 0x14F0 PUSH1 0xF DUP11 PUSH2 0x3740 SWAP1 SWAP2 SWAP1 PUSH4 0xFFFFFFFF AND JUMP JUMPDEST PUSH2 0x3756 SWAP1 SWAP2 SWAP1 PUSH4 0xFFFFFFFF AND JUMP JUMPDEST PUSH1 0x40 MLOAD PUSH2 0x150A SWAP1 PUSH2 0x4C95 JUMP JUMPDEST PUSH1 0x0 PUSH1 0x40 MLOAD DUP1 DUP4 SUB DUP2 DUP6 DUP8 GAS CALL SWAP3 POP POP POP RETURNDATASIZE DUP1 PUSH1 0x0 DUP2 EQ PUSH2 0x1547 JUMPI PUSH1 0x40 MLOAD SWAP2 POP PUSH1 0x1F NOT PUSH1 0x3F RETURNDATASIZE ADD AND DUP3 ADD PUSH1 0x40 MSTORE RETURNDATASIZE DUP3 MSTORE RETURNDATASIZE PUSH1 0x0 PUSH1 0x20 DUP5 ADD RETURNDATACOPY PUSH2 0x154C JUMP JUMPDEST PUSH1 0x60 SWAP2 POP JUMPDEST POP POP SWAP1 POP PUSH1 0x0 PUSH1 0x19 PUSH1 0x0 SWAP1 SLOAD SWAP1 PUSH2 0x100 EXP SWAP1 DIV PUSH20 0xFFFFFFFFFFFFFFFFFFFFFFFFFFFFFFFFFFFFFFFF AND PUSH20 0xFFFFFFFFFFFFFFFFFFFFFFFFFFFFFFFFFFFFFFFF AND PUSH2 0x15B2 PUSH1 0x64 PUSH2 0x15A4 PUSH1 0x3 DUP12 PUSH2 0x3740 SWAP1 SWAP2 SWAP1 PUSH4 0xFFFFFFFF AND JUMP JUMPDEST PUSH2 0x3756 SWAP1 SWAP2 SWAP1 PUSH4 0xFFFFFFFF AND JUMP JUMPDEST PUSH1 0x40 MLOAD PUSH2 0x15BE SWAP1 PUSH2 0x4C95 JUMP JUMPDEST PUSH1 0x0 PUSH1 0x40 MLOAD DUP1 DUP4 SUB DUP2 DUP6 DUP8 GAS CALL SWAP3 POP POP POP RETURNDATASIZE DUP1 PUSH1 0x0 DUP2 EQ PUSH2 0x15FB JUMPI PUSH1 0x40 MLOAD SWAP2 POP PUSH1 0x1F NOT PUSH1 0x3F RETURNDATASIZE ADD AND DUP3 ADD PUSH1 0x40 MSTORE RETURNDATASIZE DUP3 MSTORE RETURNDATASIZE PUSH1 0x0 PUSH1 0x20 DUP5 ADD RETURNDATACOPY PUSH2 0x1600 JUMP JUMPDEST PUSH1 0x60 SWAP2 POP JUMPDEST POP POP SWAP1 POP PUSH1 0x0 PUSH1 0x1A PUSH1 0x0 SWAP1 SLOAD SWAP1 PUSH2 0x100 EXP SWAP1 DIV PUSH20 0xFFFFFFFFFFFFFFFFFFFFFFFFFFFFFFFFFFFFFFFF AND PUSH20 0xFFFFFFFFFFFFFFFFFFFFFFFFFFFFFFFFFFFFFFFF AND PUSH2 0x1667 PUSH2 0x3E8 PUSH2 0x1659 PUSH1 0xAF DUP13 PUSH2 0x3740 SWAP1 SWAP2 SWAP1 PUSH4 0xFFFFFFFF AND JUMP JUMPDEST PUSH2 0x3756 SWAP1 SWAP2 SWAP1 PUSH4 0xFFFFFFFF AND JUMP JUMPDEST PUSH1 0x40 MLOAD PUSH2 0x1673 SWAP1 PUSH2 0x4C95 JUMP JUMPDEST PUSH1 0x0 PUSH1 0x40 MLOAD DUP1 DUP4 SUB DUP2 DUP6 DUP8 GAS CALL SWAP3 POP POP POP RETURNDATASIZE DUP1 PUSH1 0x0 DUP2 EQ PUSH2 0x16B0 JUMPI PUSH1 0x40 MLOAD SWAP2 POP PUSH1 0x1F NOT PUSH1 0x3F RETURNDATASIZE ADD AND DUP3 ADD PUSH1 0x40 MSTORE RETURNDATASIZE DUP3 MSTORE RETURNDATASIZE PUSH1 0x0 PUSH1 0x20 DUP5 ADD RETURNDATACOPY PUSH2 0x16B5 JUMP JUMPDEST PUSH1 0x60 SWAP2 POP JUMPDEST POP POP SWAP1 POP PUSH1 0x0 PUSH1 0x1B PUSH1 0x0 SWAP1 SLOAD SWAP1 PUSH2 0x100 EXP SWAP1 DIV PUSH20 0xFFFFFFFFFFFFFFFFFFFFFFFFFFFFFFFFFFFFFFFF AND PUSH20 0xFFFFFFFFFFFFFFFFFFFFFFFFFFFFFFFFFFFFFFFF AND PUSH2 0x171B PUSH1 0x64 PUSH2 0x170D PUSH1 0x5 DUP14 PUSH2 0x3740 SWAP1 SWAP2 SWAP1 PUSH4 0xFFFFFFFF AND JUMP JUMPDEST PUSH2 0x3756 SWAP1 SWAP2 SWAP1 PUSH4 0xFFFFFFFF AND JUMP JUMPDEST PUSH1 0x40 MLOAD PUSH2 0x1727 SWAP1 PUSH2 0x4C95 JUMP JUMPDEST PUSH1 0x0 PUSH1 0x40 MLOAD DUP1 DUP4 SUB DUP2 DUP6 DUP8 GAS CALL SWAP3 POP POP POP RETURNDATASIZE DUP1 PUSH1 0x0 DUP2 EQ PUSH2 0x1764 JUMPI PUSH1 0x40 MLOAD SWAP2 POP PUSH1 0x1F NOT PUSH1 0x3F RETURNDATASIZE ADD AND DUP3 ADD PUSH1 0x40 MSTORE RETURNDATASIZE DUP3 MSTORE RETURNDATASIZE PUSH1 0x0 PUSH1 0x20 DUP5 ADD RETURNDATACOPY PUSH2 0x1769 JUMP JUMPDEST PUSH1 0x60 SWAP2 POP JUMPDEST POP POP SWAP1 POP PUSH1 0x0 PUSH1 0x1C PUSH1 0x0 SWAP1 SLOAD SWAP1 PUSH2 0x100 EXP SWAP1 DIV PUSH20 0xFFFFFFFFFFFFFFFFFFFFFFFFFFFFFFFFFFFFFFFF AND PUSH20 0xFFFFFFFFFFFFFFFFFFFFFFFFFFFFFFFFFFFFFFFF AND PUSH2 0x17CF PUSH1 0x64 PUSH2 0x17C1 PUSH1 0xA DUP15 PUSH2 0x3740 SWAP1 SWAP2 SWAP1 PUSH4 0xFFFFFFFF AND JUMP JUMPDEST PUSH2 0x3756 SWAP1 SWAP2 SWAP1 PUSH4 0xFFFFFFFF AND JUMP JUMPDEST PUSH1 0x40 MLOAD PUSH2 0x17DB SWAP1 PUSH2 0x4C95 JUMP JUMPDEST PUSH1 0x0 PUSH1 0x40 MLOAD DUP1 DUP4 SUB DUP2 DUP6 DUP8 GAS CALL SWAP3 POP POP POP RETURNDATASIZE DUP1 PUSH1 0x0 DUP2 EQ PUSH2 0x1818 JUMPI PUSH1 0x40 MLOAD SWAP2 POP PUSH1 0x1F NOT PUSH1 0x3F RETURNDATASIZE ADD AND DUP3 ADD PUSH1 0x40 MSTORE RETURNDATASIZE DUP3 MSTORE RETURNDATASIZE PUSH1 0x0 PUSH1 0x20 DUP5 ADD RETURNDATACOPY PUSH2 0x181D JUMP JUMPDEST PUSH1 0x60 SWAP2 POP JUMPDEST POP POP SWAP1 POP DUP9 DUP1 ISZERO PUSH2 0x182B JUMPI POP DUP8 JUMPDEST DUP1 ISZERO PUSH2 0x1834 JUMPI POP DUP7 JUMPDEST DUP1 ISZERO PUSH2 0x183D JUMPI POP DUP6 JUMPDEST DUP1 ISZERO PUSH2 0x1846 JUMPI POP DUP5 JUMPDEST DUP1 ISZERO PUSH2 0x184F JUMPI POP DUP4 JUMPDEST DUP1 ISZERO PUSH2 0x1858 JUMPI POP DUP3 JUMPDEST DUP1 ISZERO PUSH2 0x1861 JUMPI POP DUP2 JUMPDEST DUP1 ISZERO PUSH2 0x186A JUMPI POP DUP1 JUMPDEST PUSH2 0x18A9 JUMPI PUSH1 0x40 MLOAD PUSH32 0x8C379A000000000000000000000000000000000000000000000000000000000 DUP2 MSTORE PUSH1 0x4 ADD PUSH2 0x18A0 SWAP1 PUSH2 0x514E JUMP JUMPDEST PUSH1 0x40 MLOAD DUP1 SWAP2 SUB SWAP1 REVERT JUMPDEST POP POP POP POP POP POP POP POP POP POP JUMP JUMPDEST PUSH2 0x18D0 DUP4 DUP4 DUP4 PUSH1 0x40 MLOAD DUP1 PUSH1 0x20 ADD PUSH1 0x40 MSTORE DUP1 PUSH1 0x0 DUP2 MSTORE POP PUSH2 0x2621 JUMP JUMPDEST POP POP POP JUMP JUMPDEST PUSH1 0x15 PUSH1 0x0 SWAP1 SLOAD SWAP1 PUSH2 0x100 EXP SWAP1 DIV PUSH20 0xFFFFFFFFFFFFFFFFFFFFFFFFFFFFFFFFFFFFFFFF AND DUP2 JUMP JUMPDEST PUSH1 0x0 DUP1 PUSH1 0x0 SWAP1 POP JUMPDEST PUSH1 0x13 DUP1 SLOAD SWAP1 POP DUP2 LT ISZERO PUSH2 0x19C5 JUMPI DUP3 PUSH20 0xFFFFFFFFFFFFFFFFFFFFFFFFFFFFFFFFFFFFFFFF AND PUSH1 0x13 DUP3 DUP2 SLOAD DUP2 LT PUSH2 0x1961 JUMPI PUSH32 0x4E487B7100000000000000000000000000000000000000000000000000000000 PUSH1 0x0 MSTORE PUSH1 0x32 PUSH1 0x4 MSTORE PUSH1 0x24 PUSH1 0x0 REVERT JUMPDEST SWAP1 PUSH1 0x0 MSTORE PUSH1 0x20 PUSH1 0x0 KECCAK256 ADD PUSH1 0x0 SWAP1 SLOAD SWAP1 PUSH2 0x100 EXP SWAP1 DIV PUSH20 0xFFFFFFFFFFFFFFFFFFFFFFFFFFFFFFFFFFFFFFFF AND PUSH20 0xFFFFFFFFFFFFFFFFFFFFFFFFFFFFFFFFFFFFFFFF AND EQ ISZERO PUSH2 0x19B2 JUMPI PUSH1 0x1 SWAP2 POP POP PUSH2 0x19CB JUMP JUMPDEST DUP1 DUP1 PUSH2 0x19BD SWAP1 PUSH2 0x550D JUMP JUMPDEST SWAP2 POP POP PUSH2 0x1903 JUMP JUMPDEST POP PUSH1 0x0 SWAP1 POP JUMPDEST SWAP2 SWAP1 POP JUMP JUMPDEST PUSH1 0xB SLOAD DUP2 JUMP JUMPDEST PUSH2 0x19DE PUSH2 0x3345 JUMP JUMPDEST PUSH20 0xFFFFFFFFFFFFFFFFFFFFFFFFFFFFFFFFFFFFFFFF AND PUSH2 0x19FC PUSH2 0x21AC JUMP JUMPDEST PUSH20 0xFFFFFFFFFFFFFFFFFFFFFFFFFFFFFFFFFFFFFFFF AND EQ PUSH2 0x1A52 JUMPI PUSH1 0x40 MLOAD PUSH32 0x8C379A000000000000000000000000000000000000000000000000000000000 DUP2 MSTORE PUSH1 0x4 ADD PUSH2 0x1A49 SWAP1 PUSH2 0x4FEE JUMP JUMPDEST PUSH1 0x40 MLOAD DUP1 SWAP2 SUB SWAP1 REVERT JUMPDEST PUSH1 0x0 SELFBALANCE GT PUSH2 0x1A95 JUMPI PUSH1 0x40 MLOAD PUSH32 0x8C379A000000000000000000000000000000000000000000000000000000000 DUP2 MSTORE PUSH1 0x4 ADD PUSH2 0x1A8C SWAP1 PUSH2 0x4E6E JUMP JUMPDEST PUSH1 0x40 MLOAD DUP1 SWAP2 SUB SWAP1 REVERT JUMPDEST PUSH1 0x0 PUSH1 0x1A PUSH1 0x0 SWAP1 SLOAD SWAP1 PUSH2 0x100 EXP SWAP1 DIV PUSH20 0xFFFFFFFFFFFFFFFFFFFFFFFFFFFFFFFFFFFFFFFF AND PUSH20 0xFFFFFFFFFFFFFFFFFFFFFFFFFFFFFFFFFFFFFFFF AND PUSH9 0x246DDF97976680000 PUSH1 0x40 MLOAD PUSH2 0x1AE6 SWAP1 PUSH2 0x4C95 JUMP JUMPDEST PUSH1 0x0 PUSH1 0x40 MLOAD DUP1 DUP4 SUB DUP2 DUP6 DUP8 GAS CALL SWAP3 POP POP POP RETURNDATASIZE DUP1 PUSH1 0x0 DUP2 EQ PUSH2 0x1B23 JUMPI PUSH1 0x40 MLOAD SWAP2 POP PUSH1 0x1F NOT PUSH1 0x3F RETURNDATASIZE ADD AND DUP3 ADD PUSH1 0x40 MSTORE RETURNDATASIZE DUP3 MSTORE RETURNDATASIZE PUSH1 0x0 PUSH1 0x20 DUP5 ADD RETURNDATACOPY PUSH2 0x1B28 JUMP JUMPDEST PUSH1 0x60 SWAP2 POP JUMPDEST POP POP SWAP1 POP DUP1 PUSH2 0x1B6C JUMPI PUSH1 0x40 MLOAD PUSH32 0x8C379A000000000000000000000000000000000000000000000000000000000 DUP2 MSTORE PUSH1 0x4 ADD PUSH2 0x1B63 SWAP1 PUSH2 0x512E JUMP JUMPDEST PUSH1 0x40 MLOAD DUP1 SWAP2 SUB SWAP1 REVERT JUMPDEST POP JUMP JUMPDEST PUSH1 0x12 PUSH1 0x1 SWAP1 SLOAD SWAP1 PUSH2 0x100 EXP SWAP1 DIV PUSH1 0xFF AND PUSH2 0x1BBE JUMPI PUSH1 0x40 MLOAD PUSH32 0x8C379A000000000000000000000000000000000000000000000000000000000 DUP2 MSTORE PUSH1 0x4 ADD PUSH2 0x1BB5 SWAP1 PUSH2 0x4E4E JUMP JUMPDEST PUSH1 0x40 MLOAD DUP1 SWAP2 SUB SWAP1 REVERT JUMPDEST PUSH1 0xF SLOAD DUP2 GT ISZERO PUSH2 0x1C03 JUMPI PUSH1 0x40 MLOAD PUSH32 0x8C379A000000000000000000000000000000000000000000000000000000000 DUP2 MSTORE PUSH1 0x4 ADD PUSH2 0x1BFA SWAP1 PUSH2 0x50CE JUMP JUMPDEST PUSH1 0x40 MLOAD DUP1 SWAP2 SUB SWAP1 REVERT JUMPDEST PUSH2 0x1C18 DUP2 PUSH1 0x9 SLOAD PUSH2 0x3740 SWAP1 SWAP2 SWAP1 PUSH4 0xFFFFFFFF AND JUMP JUMPDEST CALLVALUE LT ISZERO PUSH2 0x1C5A JUMPI PUSH1 0x40 MLOAD PUSH32 0x8C379A000000000000000000000000000000000000000000000000000000000 DUP2 MSTORE PUSH1 0x4 ADD PUSH2 0x1C51 SWAP1 PUSH2 0x4F4E JUMP JUMPDEST PUSH1 0x40 MLOAD DUP1 SWAP2 SUB SWAP1 REVERT JUMPDEST PUSH1 0xA SLOAD PUSH2 0x1C72 DUP3 PUSH1 0xC SLOAD PUSH2 0x376C SWAP1 SWAP2 SWAP1 PUSH4 0xFFFFFFFF AND JUMP JUMPDEST GT ISZERO PUSH2 0x1CB3 JUMPI PUSH1 0x40 MLOAD PUSH32 0x8C379A000000000000000000000000000000000000000000000000000000000 DUP2 MSTORE PUSH1 0x4 ADD PUSH2 0x1CAA SWAP1 PUSH2 0x500E JUMP JUMPDEST PUSH1 0x40 MLOAD DUP1 SWAP2 SUB SWAP1 REVERT JUMPDEST PUSH1 0x0 PUSH1 0xC SLOAD SWAP1 POP PUSH1 0x0 JUMPDEST DUP3 DUP2 LT ISZERO PUSH2 0x1D0D JUMPI PUSH1 0x1 DUP3 PUSH2 0x1CD2 SWAP2 SWAP1 PUSH2 0x52DF JUMP JUMPDEST SWAP2 POP PUSH2 0x1CEA PUSH1 0x1 PUSH1 0xC SLOAD PUSH2 0x376C SWAP1 SWAP2 SWAP1 PUSH4 0xFFFFFFFF AND JUMP JUMPDEST PUSH1 0xC DUP2 SWAP1 SSTORE POP PUSH2 0x1CFA CALLER DUP4 PUSH2 0x3782 JUMP JUMPDEST DUP1 DUP1 PUSH2 0x1D05 SWAP1 PUSH2 0x550D JUMP JUMPDEST SWAP2 POP POP PUSH2 0x1CBD JUMP JUMPDEST POP POP POP JUMP JUMPDEST PUSH1 0x18 PUSH1 0x0 SWAP1 SLOAD SWAP1 PUSH2 0x100 EXP SWAP1 DIV PUSH20 0xFFFFFFFFFFFFFFFFFFFFFFFFFFFFFFFFFFFFFFFF AND DUP2 JUMP JUMPDEST PUSH1 0x0 DUP1 PUSH1 0x3 PUSH1 0x0 DUP5 DUP2 MSTORE PUSH1 0x20 ADD SWAP1 DUP2 MSTORE PUSH1 0x20 ADD PUSH1 0x0 KECCAK256 PUSH1 0x0 SWAP1 SLOAD SWAP1 PUSH2 0x100 EXP SWAP1 DIV PUSH20 0xFFFFFFFFFFFFFFFFFFFFFFFFFFFFFFFFFFFFFFFF AND SWAP1 POP PUSH1 0x0 PUSH20 0xFFFFFFFFFFFFFFFFFFFFFFFFFFFFFFFFFFFFFFFF AND DUP2 PUSH20 0xFFFFFFFFFFFFFFFFFFFFFFFFFFFFFFFFFFFFFFFF AND EQ ISZERO PUSH2 0x1DE1 JUMPI PUSH1 0x40 MLOAD PUSH32 0x8C379A000000000000000000000000000000000000000000000000000000000 DUP2 MSTORE PUSH1 0x4 ADD PUSH2 0x1DD8 SWAP1 PUSH2 0x4F2E JUMP JUMPDEST PUSH1 0x40 MLOAD DUP1 SWAP2 SUB SWAP1 REVERT JUMPDEST DUP1 SWAP2 POP POP SWAP2 SWAP1 POP JUMP JUMPDEST PUSH1 0x11 DUP1 SLOAD PUSH2 0x1DF7 SWAP1 PUSH2 0x54AA JUMP JUMPDEST DUP1 PUSH1 0x1F ADD PUSH1 0x20 DUP1 SWAP2 DIV MUL PUSH1 0x20 ADD PUSH1 0x40 MLOAD SWAP1 DUP2 ADD PUSH1 0x40 MSTORE DUP1 SWAP3 SWAP2 SWAP1 DUP2 DUP2 MSTORE PUSH1 0x20 ADD DUP3 DUP1 SLOAD PUSH2 0x1E23 SWAP1 PUSH2 0x54AA JUMP JUMPDEST DUP1 ISZERO PUSH2 0x1E70 JUMPI DUP1 PUSH1 0x1F LT PUSH2 0x1E45 JUMPI PUSH2 0x100 DUP1 DUP4 SLOAD DIV MUL DUP4 MSTORE SWAP2 PUSH1 0x20 ADD SWAP2 PUSH2 0x1E70 JUMP JUMPDEST DUP3 ADD SWAP2 SWAP1 PUSH1 0x0 MSTORE PUSH1 0x20 PUSH1 0x0 KECCAK256 SWAP1 JUMPDEST DUP2 SLOAD DUP2 MSTORE SWAP1 PUSH1 0x1 ADD SWAP1 PUSH1 0x20 ADD DUP1 DUP4 GT PUSH2 0x1E53 JUMPI DUP3 SWAP1 SUB PUSH1 0x1F AND DUP3 ADD SWAP2 JUMPDEST POP POP POP POP POP DUP2 JUMP JUMPDEST PUSH1 0x0 DUP1 PUSH20 0xFFFFFFFFFFFFFFFFFFFFFFFFFFFFFFFFFFFFFFFF AND DUP3 PUSH20 0xFFFFFFFFFFFFFFFFFFFFFFFFFFFFFFFFFFFFFFFF AND EQ ISZERO PUSH2 0x1EE9 JUMPI PUSH1 0x40 MLOAD PUSH32 0x8C379A000000000000000000000000000000000000000000000000000000000 DUP2 MSTORE PUSH1 0x4 ADD PUSH2 0x1EE0 SWAP1 PUSH2 0x4F0E JUMP JUMPDEST PUSH1 0x40 MLOAD DUP1 SWAP2 SUB SWAP1 REVERT JUMPDEST PUSH1 0x4 PUSH1 0x0 DUP4 PUSH20 0xFFFFFFFFFFFFFFFFFFFFFFFFFFFFFFFFFFFFFFFF AND PUSH20 0xFFFFFFFFFFFFFFFFFFFFFFFFFFFFFFFFFFFFFFFF AND DUP2 MSTORE PUSH1 0x20 ADD SWAP1 DUP2 MSTORE PUSH1 0x20 ADD PUSH1 0x0 KECCAK256 SLOAD SWAP1 POP SWAP2 SWAP1 POP JUMP JUMPDEST PUSH2 0x1F38 PUSH2 0x3345 JUMP JUMPDEST PUSH20 0xFFFFFFFFFFFFFFFFFFFFFFFFFFFFFFFFFFFFFFFF AND PUSH2 0x1F56 PUSH2 0x21AC JUMP JUMPDEST PUSH20 0xFFFFFFFFFFFFFFFFFFFFFFFFFFFFFFFFFFFFFFFF AND EQ PUSH2 0x1FAC JUMPI PUSH1 0x40 MLOAD PUSH32 0x8C379A000000000000000000000000000000000000000000000000000000000 DUP2 MSTORE PUSH1 0x4 ADD PUSH2 0x1FA3 SWAP1 PUSH2 0x4FEE JUMP JUMPDEST PUSH1 0x40 MLOAD DUP1 SWAP2 SUB SWAP1 REVERT JUMPDEST PUSH2 0x1FB6 PUSH1 0x0 PUSH2 0x37A0 JUMP JUMPDEST JUMP JUMPDEST PUSH1 0xF SLOAD DUP2 JUMP JUMPDEST PUSH2 0x1FC6 PUSH2 0x3345 JUMP JUMPDEST PUSH20 0xFFFFFFFFFFFFFFFFFFFFFFFFFFFFFFFFFFFFFFFF AND PUSH2 0x1FE4 PUSH2 0x21AC JUMP JUMPDEST PUSH20 0xFFFFFFFFFFFFFFFFFFFFFFFFFFFFFFFFFFFFFFFF AND EQ PUSH2 0x203A JUMPI PUSH1 0x40 MLOAD PUSH32 0x8C379A000000000000000000000000000000000000000000000000000000000 DUP2 MSTORE PUSH1 0x4 ADD PUSH2 0x2031 SWAP1 PUSH2 0x4FEE JUMP JUMPDEST PUSH1 0x40 MLOAD DUP1 SWAP2 SUB SWAP1 REVERT JUMPDEST PUSH1 0xA SLOAD PUSH2 0x2052 DUP3 PUSH1 0xC SLOAD PUSH2 0x376C SWAP1 SWAP2 SWAP1 PUSH4 0xFFFFFFFF AND JUMP JUMPDEST GT ISZERO PUSH2 0x2093 JUMPI PUSH1 0x40 MLOAD PUSH32 0x8C379A000000000000000000000000000000000000000000000000000000000 DUP2 MSTORE PUSH1 0x4 ADD PUSH2 0x208A SWAP1 PUSH2 0x500E JUMP JUMPDEST PUSH1 0x40 MLOAD DUP1 SWAP2 SUB SWAP1 REVERT JUMPDEST PUSH1 0xE SLOAD PUSH2 0x20AB DUP3 PUSH1 0xD SLOAD PUSH2 0x376C SWAP1 SWAP2 SWAP1 PUSH4 0xFFFFFFFF AND JUMP JUMPDEST GT ISZERO PUSH2 0x20EC JUMPI PUSH1 0x40 MLOAD PUSH32 0x8C379A000000000000000000000000000000000000000000000000000000000 DUP2 MSTORE PUSH1 0x4 ADD PUSH2 0x20E3 SWAP1 PUSH2 0x4EAE JUMP JUMPDEST PUSH1 0x40 MLOAD DUP1 SWAP2 SUB SWAP1 REVERT JUMPDEST PUSH1 0x0 PUSH1 0xC SLOAD SWAP1 POP PUSH1 0x0 JUMPDEST DUP3 DUP2 LT ISZERO PUSH2 0x2162 JUMPI PUSH1 0x1 DUP3 PUSH2 0x210B SWAP2 SWAP1 PUSH2 0x52DF JUMP JUMPDEST SWAP2 POP PUSH2 0x2123 PUSH1 0x1 PUSH1 0xC SLOAD PUSH2 0x376C SWAP1 SWAP2 SWAP1 PUSH4 0xFFFFFFFF AND JUMP JUMPDEST PUSH1 0xC DUP2 SWAP1 SSTORE POP PUSH2 0x213F PUSH1 0x1 PUSH1 0xD SLOAD PUSH2 0x376C SWAP1 SWAP2 SWAP1 PUSH4 0xFFFFFFFF AND JUMP JUMPDEST PUSH1 0xD DUP2 SWAP1 SSTORE POP PUSH2 0x214F CALLER DUP4 PUSH2 0x3782 JUMP JUMPDEST DUP1 DUP1 PUSH2 0x215A SWAP1 PUSH2 0x550D JUMP JUMPDEST SWAP2 POP POP PUSH2 0x20F6 JUMP JUMPDEST POP POP POP JUMP JUMPDEST PUSH1 0x10 SLOAD DUP2 JUMP JUMPDEST PUSH1 0x13 DUP2 DUP2 SLOAD DUP2 LT PUSH2 0x217D JUMPI PUSH1 0x0 DUP1 REVERT JUMPDEST SWAP1 PUSH1 0x0 MSTORE PUSH1 0x20 PUSH1 0x0 KECCAK256 ADD PUSH1 0x0 SWAP2 POP SLOAD SWAP1 PUSH2 0x100 EXP SWAP1 DIV PUSH20 0xFFFFFFFFFFFFFFFFFFFFFFFFFFFFFFFFFFFFFFFF AND DUP2 JUMP JUMPDEST PUSH1 0x0 DUP1 PUSH1 0x0 SWAP1 SLOAD SWAP1 PUSH2 0x100 EXP SWAP1 DIV PUSH20 0xFFFFFFFFFFFFFFFFFFFFFFFFFFFFFFFFFFFFFFFF AND SWAP1 POP SWAP1 JUMP JUMPDEST PUSH2 0x21DD PUSH2 0x3345 JUMP JUMPDEST PUSH20 0xFFFFFFFFFFFFFFFFFFFFFFFFFFFFFFFFFFFFFFFF AND PUSH2 0x21FB PUSH2 0x21AC JUMP JUMPDEST PUSH20 0xFFFFFFFFFFFFFFFFFFFFFFFFFFFFFFFFFFFFFFFF AND EQ PUSH2 0x2251 JUMPI PUSH1 0x40 MLOAD PUSH32 0x8C379A000000000000000000000000000000000000000000000000000000000 DUP2 MSTORE PUSH1 0x4 ADD PUSH2 0x2248 SWAP1 PUSH2 0x4FEE JUMP JUMPDEST PUSH1 0x40 MLOAD DUP1 SWAP2 SUB SWAP1 REVERT JUMPDEST PUSH1 0x0 DUP2 EQ ISZERO PUSH2 0x2289 JUMPI PUSH1 0x12 PUSH1 0x3 SWAP1 SLOAD SWAP1 PUSH2 0x100 EXP SWAP1 DIV PUSH1 0xFF AND ISZERO PUSH1 0x12 PUSH1 0x3 PUSH2 0x100 EXP DUP2 SLOAD DUP2 PUSH1 0xFF MUL NOT AND SWAP1 DUP4 ISZERO ISZERO MUL OR SWAP1 SSTORE POP PUSH2 0x2330 JUMP JUMPDEST PUSH1 0x1 DUP2 EQ ISZERO PUSH2 0x22C1 JUMPI PUSH1 0x12 PUSH1 0x1 SWAP1 SLOAD SWAP1 PUSH2 0x100 EXP SWAP1 DIV PUSH1 0xFF AND ISZERO PUSH1 0x12 PUSH1 0x1 PUSH2 0x100 EXP DUP2 SLOAD DUP2 PUSH1 0xFF MUL NOT AND SWAP1 DUP4 ISZERO ISZERO MUL OR SWAP1 SSTORE POP PUSH2 0x232F JUMP JUMPDEST PUSH1 0x2 DUP2 EQ ISZERO PUSH2 0x22F9 JUMPI PUSH1 0x12 PUSH1 0x2 SWAP1 SLOAD SWAP1 PUSH2 0x100 EXP SWAP1 DIV PUSH1 0xFF AND ISZERO PUSH1 0x12 PUSH1 0x2 PUSH2 0x100 EXP DUP2 SLOAD DUP2 PUSH1 0xFF MUL NOT AND SWAP1 DUP4 ISZERO ISZERO MUL OR SWAP1 SSTORE POP PUSH2 0x232E JUMP JUMPDEST PUSH1 0x3 DUP2 EQ ISZERO PUSH2 0x232D JUMPI PUSH1 0x12 PUSH1 0x0 SWAP1 SLOAD SWAP1 PUSH2 0x100 EXP SWAP1 DIV PUSH1 0xFF AND ISZERO PUSH1 0x12 PUSH1 0x0 PUSH2 0x100 EXP DUP2 SLOAD DUP2 PUSH1 0xFF MUL NOT AND SWAP1 DUP4 ISZERO ISZERO MUL OR SWAP1 SSTORE POP JUMPDEST JUMPDEST JUMPDEST JUMPDEST POP JUMP JUMPDEST PUSH2 0x233B PUSH2 0x3345 JUMP JUMPDEST PUSH20 0xFFFFFFFFFFFFFFFFFFFFFFFFFFFFFFFFFFFFFFFF AND PUSH2 0x2359 PUSH2 0x21AC JUMP JUMPDEST PUSH20 0xFFFFFFFFFFFFFFFFFFFFFFFFFFFFFFFFFFFFFFFF AND EQ PUSH2 0x23AF JUMPI PUSH1 0x40 MLOAD PUSH32 0x8C379A000000000000000000000000000000000000000000000000000000000 DUP2 MSTORE PUSH1 0x4 ADD PUSH2 0x23A6 SWAP1 PUSH2 0x4FEE JUMP JUMPDEST PUSH1 0x40 MLOAD DUP1 SWAP2 SUB SWAP1 REVERT JUMPDEST DUP1 PUSH1 0x11 SWAP1 DUP1 MLOAD SWAP1 PUSH1 0x20 ADD SWAP1 PUSH2 0x23C5 SWAP3 SWAP2 SWAP1 PUSH2 0x3F56 JUMP JUMPDEST POP POP JUMP JUMPDEST PUSH1 0x1A PUSH1 0x0 SWAP1 SLOAD SWAP1 PUSH2 0x100 EXP SWAP1 DIV PUSH20 0xFFFFFFFFFFFFFFFFFFFFFFFFFFFFFFFFFFFFFFFF AND DUP2 JUMP JUMPDEST PUSH1 0x60 PUSH1 0x2 DUP1 SLOAD PUSH2 0x23FE SWAP1 PUSH2 0x54AA JUMP JUMPDEST DUP1 PUSH1 0x1F ADD PUSH1 0x20 DUP1 SWAP2 DIV MUL PUSH1 0x20 ADD PUSH1 0x40 MLOAD SWAP1 DUP2 ADD PUSH1 0x40 MSTORE DUP1 SWAP3 SWAP2 SWAP1 DUP2 DUP2 MSTORE PUSH1 0x20 ADD DUP3 DUP1 SLOAD PUSH2 0x242A SWAP1 PUSH2 0x54AA JUMP JUMPDEST DUP1 ISZERO PUSH2 0x2477 JUMPI DUP1 PUSH1 0x1F LT PUSH2 0x244C JUMPI PUSH2 0x100 DUP1 DUP4 SLOAD DIV MUL DUP4 MSTORE SWAP2 PUSH1 0x20 ADD SWAP2 PUSH2 0x2477 JUMP JUMPDEST DUP3 ADD SWAP2 SWAP1 PUSH1 0x0 MSTORE PUSH1 0x20 PUSH1 0x0 KECCAK256 SWAP1 JUMPDEST DUP2 SLOAD DUP2 MSTORE SWAP1 PUSH1 0x1 ADD SWAP1 PUSH1 0x20 ADD DUP1 DUP4 GT PUSH2 0x245A JUMPI DUP3 SWAP1 SUB PUSH1 0x1F AND DUP3 ADD SWAP2 JUMPDEST POP POP POP POP POP SWAP1 POP SWAP1 JUMP JUMPDEST PUSH1 0x8 SLOAD DUP2 JUMP JUMPDEST PUSH1 0x9 SLOAD DUP2 JUMP JUMPDEST PUSH2 0x2495 PUSH2 0x3345 JUMP JUMPDEST PUSH20 0xFFFFFFFFFFFFFFFFFFFFFFFFFFFFFFFFFFFFFFFF AND DUP3 PUSH20 0xFFFFFFFFFFFFFFFFFFFFFFFFFFFFFFFFFFFFFFFF AND EQ ISZERO PUSH2 0x2503 JUMPI PUSH1 0x40 MLOAD PUSH32 0x8C379A000000000000000000000000000000000000000000000000000000000 DUP2 MSTORE PUSH1 0x4 ADD PUSH2 0x24FA SWAP1 PUSH2 0x4E0E JUMP JUMPDEST PUSH1 0x40 MLOAD DUP1 SWAP2 SUB SWAP1 REVERT JUMPDEST DUP1 PUSH1 0x6 PUSH1 0x0 PUSH2 0x2510 PUSH2 0x3345 JUMP JUMPDEST PUSH20 0xFFFFFFFFFFFFFFFFFFFFFFFFFFFFFFFFFFFFFFFF AND PUSH20 0xFFFFFFFFFFFFFFFFFFFFFFFFFFFFFFFFFFFFFFFF AND DUP2 MSTORE PUSH1 0x20 ADD SWAP1 DUP2 MSTORE PUSH1 0x20 ADD PUSH1 0x0 KECCAK256 PUSH1 0x0 DUP5 PUSH20 0xFFFFFFFFFFFFFFFFFFFFFFFFFFFFFFFFFFFFFFFF AND PUSH20 0xFFFFFFFFFFFFFFFFFFFFFFFFFFFFFFFFFFFFFFFF AND DUP2 MSTORE PUSH1 0x20 ADD SWAP1 DUP2 MSTORE PUSH1 0x20 ADD PUSH1 0x0 KECCAK256 PUSH1 0x0 PUSH2 0x100 EXP DUP2 SLOAD DUP2 PUSH1 0xFF MUL NOT AND SWAP1 DUP4 ISZERO ISZERO MUL OR SWAP1 SSTORE POP DUP2 PUSH20 0xFFFFFFFFFFFFFFFFFFFFFFFFFFFFFFFFFFFFFFFF AND PUSH2 0x25BD PUSH2 0x3345 JUMP JUMPDEST PUSH20 0xFFFFFFFFFFFFFFFFFFFFFFFFFFFFFFFFFFFFFFFF AND PUSH32 0x17307EAB39AB6107E8899845AD3D59BD9653F200F220920489CA2B5937696C31 DUP4 PUSH1 0x40 MLOAD PUSH2 0x2602 SWAP2 SWAP1 PUSH2 0x4D11 JUMP JUMPDEST PUSH1 0x40 MLOAD DUP1 SWAP2 SUB SWAP1 LOG3 POP POP JUMP JUMPDEST PUSH1 0x12 PUSH1 0x3 SWAP1 SLOAD SWAP1 PUSH2 0x100 EXP SWAP1 DIV PUSH1 0xFF AND DUP2 JUMP JUMPDEST PUSH2 0x2632 PUSH2 0x262C PUSH2 0x3345 JUMP JUMPDEST DUP4 PUSH2 0x3406 JUMP JUMPDEST PUSH2 0x2671 JUMPI PUSH1 0x40 MLOAD PUSH32 0x8C379A000000000000000000000000000000000000000000000000000000000 DUP2 MSTORE PUSH1 0x4 ADD PUSH2 0x2668 SWAP1 PUSH2 0x50EE JUMP JUMPDEST PUSH1 0x40 MLOAD DUP1 SWAP2 SUB SWAP1 REVERT JUMPDEST PUSH2 0x267D DUP5 DUP5 DUP5 DUP5 PUSH2 0x3864 JUMP JUMPDEST POP POP POP POP JUMP JUMPDEST PUSH2 0x268B PUSH2 0x3345 JUMP JUMPDEST PUSH20 0xFFFFFFFFFFFFFFFFFFFFFFFFFFFFFFFFFFFFFFFF AND PUSH2 0x26A9 PUSH2 0x21AC JUMP JUMPDEST PUSH20 0xFFFFFFFFFFFFFFFFFFFFFFFFFFFFFFFFFFFFFFFF AND EQ PUSH2 0x26FF JUMPI PUSH1 0x40 MLOAD PUSH32 0x8C379A000000000000000000000000000000000000000000000000000000000 DUP2 MSTORE PUSH1 0x4 ADD PUSH2 0x26F6 SWAP1 PUSH2 0x4FEE JUMP JUMPDEST PUSH1 0x40 MLOAD DUP1 SWAP2 SUB SWAP1 REVERT JUMPDEST DUP1 PUSH1 0x8 DUP2 SWAP1 SSTORE POP POP JUMP JUMPDEST PUSH1 0x60 PUSH2 0x2714 DUP3 PUSH2 0x32D9 JUMP JUMPDEST PUSH2 0x2753 JUMPI PUSH1 0x40 MLOAD PUSH32 0x8C379A000000000000000000000000000000000000000000000000000000000 DUP2 MSTORE PUSH1 0x4 ADD PUSH2 0x274A SWAP1 PUSH2 0x4FCE JUMP JUMPDEST PUSH1 0x40 MLOAD DUP1 SWAP2 SUB SWAP1 REVERT JUMPDEST PUSH1 0x0 PUSH1 0x11 DUP1 SLOAD PUSH2 0x2762 SWAP1 PUSH2 0x54AA JUMP JUMPDEST SWAP1 POP GT PUSH2 0x277E JUMPI PUSH1 0x40 MLOAD DUP1 PUSH1 0x20 ADD PUSH1 0x40 MSTORE DUP1 PUSH1 0x0 DUP2 MSTORE POP PUSH2 0x27AA JUMP JUMPDEST PUSH1 0x11 PUSH2 0x2789 DUP4 PUSH2 0x38C0 JUMP JUMPDEST PUSH1 0x40 MLOAD PUSH1 0x20 ADD PUSH2 0x279A SWAP3 SWAP2 SWAP1 PUSH2 0x4C71 JUMP JUMPDEST PUSH1 0x40 MLOAD PUSH1 0x20 DUP2 DUP4 SUB SUB DUP2 MSTORE SWAP1 PUSH1 0x40 MSTORE JUMPDEST SWAP1 POP SWAP2 SWAP1 POP JUMP JUMPDEST PUSH1 0xE SLOAD DUP2 JUMP JUMPDEST DUP1 PUSH1 0x0 JUMPDEST DUP2 MLOAD DUP2 LT ISZERO PUSH2 0x290D JUMPI CALLER PUSH20 0xFFFFFFFFFFFFFFFFFFFFFFFFFFFFFFFFFFFFFFFF AND ADDRESS PUSH20 0xFFFFFFFFFFFFFFFFFFFFFFFFFFFFFFFFFFFFFFFF AND PUSH4 0x6352211E DUP5 DUP5 DUP2 MLOAD DUP2 LT PUSH2 0x2830 JUMPI PUSH32 0x4E487B7100000000000000000000000000000000000000000000000000000000 PUSH1 0x0 MSTORE PUSH1 0x32 PUSH1 0x4 MSTORE PUSH1 0x24 PUSH1 0x0 REVERT JUMPDEST PUSH1 0x20 MUL PUSH1 0x20 ADD ADD MLOAD PUSH1 0x40 MLOAD DUP3 PUSH4 0xFFFFFFFF AND PUSH1 0xE0 SHL DUP2 MSTORE PUSH1 0x4 ADD PUSH2 0x2854 SWAP2 SWAP1 PUSH2 0x51AE JUMP JUMPDEST PUSH1 0x20 PUSH1 0x40 MLOAD DUP1 DUP4 SUB DUP2 DUP7 DUP1 EXTCODESIZE ISZERO DUP1 ISZERO PUSH2 0x286C JUMPI PUSH1 0x0 DUP1 REVERT JUMPDEST POP GAS STATICCALL ISZERO DUP1 ISZERO PUSH2 0x2880 JUMPI RETURNDATASIZE PUSH1 0x0 DUP1 RETURNDATACOPY RETURNDATASIZE PUSH1 0x0 REVERT JUMPDEST POP POP POP POP PUSH1 0x40 MLOAD RETURNDATASIZE PUSH1 0x1F NOT PUSH1 0x1F DUP3 ADD AND DUP3 ADD DUP1 PUSH1 0x40 MSTORE POP DUP2 ADD SWAP1 PUSH2 0x28A4 SWAP2 SWAP1 PUSH2 0x4311 JUMP JUMPDEST PUSH20 0xFFFFFFFFFFFFFFFFFFFFFFFFFFFFFFFFFFFFFFFF AND EQ PUSH2 0x28FA JUMPI PUSH1 0x40 MLOAD PUSH32 0x8C379A000000000000000000000000000000000000000000000000000000000 DUP2 MSTORE PUSH1 0x4 ADD PUSH2 0x28F1 SWAP1 PUSH2 0x506E JUMP JUMPDEST PUSH1 0x40 MLOAD DUP1 SWAP2 SUB SWAP1 REVERT JUMPDEST DUP1 DUP1 PUSH2 0x2905 SWAP1 PUSH2 0x550D JUMP JUMPDEST SWAP2 POP POP PUSH2 0x27BB JUMP JUMPDEST POP PUSH1 0x0 PUSH1 0x7 SLOAD GT PUSH2 0x2953 JUMPI PUSH1 0x40 MLOAD PUSH32 0x8C379A000000000000000000000000000000000000000000000000000000000 DUP2 MSTORE PUSH1 0x4 ADD PUSH2 0x294A SWAP1 PUSH2 0x4EEE JUMP JUMPDEST PUSH1 0x40 MLOAD DUP1 SWAP2 SUB SWAP1 REVERT JUMPDEST PUSH1 0x12 PUSH1 0x0 SWAP1 SLOAD SWAP1 PUSH2 0x100 EXP SWAP1 DIV PUSH1 0xFF AND PUSH2 0x29A2 JUMPI PUSH1 0x40 MLOAD PUSH32 0x8C379A000000000000000000000000000000000000000000000000000000000 DUP2 MSTORE PUSH1 0x4 ADD PUSH2 0x2999 SWAP1 PUSH2 0x510E JUMP JUMPDEST PUSH1 0x40 MLOAD DUP1 SWAP2 SUB SWAP1 REVERT JUMPDEST PUSH1 0x2 DUP3 MLOAD LT ISZERO PUSH2 0x29E7 JUMPI PUSH1 0x40 MLOAD PUSH32 0x8C379A000000000000000000000000000000000000000000000000000000000 DUP2 MSTORE PUSH1 0x4 ADD PUSH2 0x29DE SWAP1 PUSH2 0x502E JUMP JUMPDEST PUSH1 0x40 MLOAD DUP1 SWAP2 SUB SWAP1 REVERT JUMPDEST PUSH1 0x0 JUMPDEST DUP3 MLOAD DUP2 LT ISZERO PUSH2 0x2A4F JUMPI PUSH2 0x2A3C DUP4 DUP3 DUP2 MLOAD DUP2 LT PUSH2 0x2A2F JUMPI PUSH32 0x4E487B7100000000000000000000000000000000000000000000000000000000 PUSH1 0x0 MSTORE PUSH1 0x32 PUSH1 0x4 MSTORE PUSH1 0x24 PUSH1 0x0 REVERT JUMPDEST PUSH1 0x20 MUL PUSH1 0x20 ADD ADD MLOAD PUSH2 0x3A6D JUMP JUMPDEST DUP1 DUP1 PUSH2 0x2A47 SWAP1 PUSH2 0x550D JUMP JUMPDEST SWAP2 POP POP PUSH2 0x29EA JUMP JUMPDEST POP PUSH1 0x0 PUSH1 0x8 SLOAD SWAP1 POP PUSH1 0x1 DUP2 PUSH2 0x2A64 SWAP2 SWAP1 PUSH2 0x52DF JUMP JUMPDEST SWAP1 POP PUSH2 0x2A7C PUSH1 0x1 PUSH1 0x8 SLOAD PUSH2 0x376C SWAP1 SWAP2 SWAP1 PUSH4 0xFFFFFFFF AND JUMP JUMPDEST PUSH1 0x8 DUP2 SWAP1 SSTORE POP PUSH2 0x2A8C CALLER DUP3 PUSH2 0x3782 JUMP JUMPDEST PUSH1 0x1 PUSH1 0x7 PUSH1 0x0 DUP3 DUP3 SLOAD PUSH2 0x2A9F SWAP2 SWAP1 PUSH2 0x53C0 JUMP JUMPDEST SWAP3 POP POP DUP2 SWAP1 SSTORE POP POP POP POP JUMP JUMPDEST PUSH1 0x12 PUSH1 0x3 SWAP1 SLOAD SWAP1 PUSH2 0x100 EXP SWAP1 DIV PUSH1 0xFF AND PUSH2 0x2AFA JUMPI PUSH1 0x40 MLOAD PUSH32 0x8C379A000000000000000000000000000000000000000000000000000000000 DUP2 MSTORE PUSH1 0x4 ADD PUSH2 0x2AF1 SWAP1 PUSH2 0x4D8E JUMP JUMPDEST PUSH1 0x40 MLOAD DUP1 SWAP2 SUB SWAP1 REVERT JUMPDEST PUSH1 0x10 SLOAD DUP2 GT ISZERO PUSH2 0x2B3F JUMPI PUSH1 0x40 MLOAD PUSH32 0x8C379A000000000000000000000000000000000000000000000000000000000 DUP2 MSTORE PUSH1 0x4 ADD PUSH2 0x2B36 SWAP1 PUSH2 0x50CE JUMP JUMPDEST PUSH1 0x40 MLOAD DUP1 SWAP2 SUB SWAP1 REVERT JUMPDEST PUSH2 0x2B54 DUP2 PUSH1 0x9 SLOAD PUSH2 0x3740 SWAP1 SWAP2 SWAP1 PUSH4 0xFFFFFFFF AND JUMP JUMPDEST CALLVALUE LT ISZERO PUSH2 0x2B96 JUMPI PUSH1 0x40 MLOAD PUSH32 0x8C379A000000000000000000000000000000000000000000000000000000000 DUP2 MSTORE PUSH1 0x4 ADD PUSH2 0x2B8D SWAP1 PUSH2 0x4F4E JUMP JUMPDEST PUSH1 0x40 MLOAD DUP1 SWAP2 SUB SWAP1 REVERT JUMPDEST PUSH1 0xB SLOAD PUSH2 0x2BAE DUP3 PUSH1 0xC SLOAD PUSH2 0x376C SWAP1 SWAP2 SWAP1 PUSH4 0xFFFFFFFF AND JUMP JUMPDEST GT ISZERO PUSH2 0x2BEF JUMPI PUSH1 0x40 MLOAD PUSH32 0x8C379A000000000000000000000000000000000000000000000000000000000 DUP2 MSTORE PUSH1 0x4 ADD PUSH2 0x2BE6 SWAP1 PUSH2 0x518E JUMP JUMPDEST PUSH1 0x40 MLOAD DUP1 SWAP2 SUB SWAP1 REVERT JUMPDEST PUSH1 0x12 PUSH1 0x2 SWAP1 SLOAD SWAP1 PUSH2 0x100 EXP SWAP1 DIV PUSH1 0xFF AND PUSH2 0x2C64 JUMPI PUSH1 0x0 PUSH1 0xC SLOAD SWAP1 POP PUSH1 0x0 JUMPDEST DUP3 DUP2 LT ISZERO PUSH2 0x2C5D JUMPI PUSH1 0x1 DUP3 PUSH2 0x2C22 SWAP2 SWAP1 PUSH2 0x52DF JUMP JUMPDEST SWAP2 POP PUSH2 0x2C3A PUSH1 0x1 PUSH1 0xC SLOAD PUSH2 0x376C SWAP1 SWAP2 SWAP1 PUSH4 0xFFFFFFFF AND JUMP JUMPDEST PUSH1 0xC DUP2 SWAP1 SSTORE POP PUSH2 0x2C4A CALLER DUP4 PUSH2 0x3782 JUMP JUMPDEST DUP1 DUP1 PUSH2 0x2C55 SWAP1 PUSH2 0x550D JUMP JUMPDEST SWAP2 POP POP PUSH2 0x2C0D JUMP JUMPDEST POP POP PUSH2 0x2D09 JUMP JUMPDEST PUSH2 0x2C6D CALLER PUSH2 0x18FB JUMP JUMPDEST PUSH2 0x2CAC JUMPI PUSH1 0x40 MLOAD PUSH32 0x8C379A000000000000000000000000000000000000000000000000000000000 DUP2 MSTORE PUSH1 0x4 ADD PUSH2 0x2CA3 SWAP1 PUSH2 0x4E8E JUMP JUMPDEST PUSH1 0x40 MLOAD DUP1 SWAP2 SUB SWAP1 REVERT JUMPDEST PUSH1 0x0 PUSH1 0xC SLOAD SWAP1 POP PUSH1 0x0 JUMPDEST DUP3 DUP2 LT ISZERO PUSH2 0x2D06 JUMPI PUSH1 0x1 DUP3 PUSH2 0x2CCB SWAP2 SWAP1 PUSH2 0x52DF JUMP JUMPDEST SWAP2 POP PUSH2 0x2CE3 PUSH1 0x1 PUSH1 0xC SLOAD PUSH2 0x376C SWAP1 SWAP2 SWAP1 PUSH4 0xFFFFFFFF AND JUMP JUMPDEST PUSH1 0xC DUP2 SWAP1 SSTORE POP PUSH2 0x2CF3 CALLER DUP4 PUSH2 0x3782 JUMP JUMPDEST DUP1 DUP1 PUSH2 0x2CFE SWAP1 PUSH2 0x550D JUMP JUMPDEST SWAP2 POP POP PUSH2 0x2CB6 JUMP JUMPDEST POP POP JUMPDEST POP JUMP JUMPDEST PUSH1 0x12 PUSH1 0x2 SWAP1 SLOAD SWAP1 PUSH2 0x100 EXP SWAP1 DIV PUSH1 0xFF AND DUP2 JUMP JUMPDEST PUSH1 0xD SLOAD DUP2 JUMP JUMPDEST PUSH1 0xA SLOAD DUP2 JUMP JUMPDEST PUSH2 0x2D33 PUSH2 0x3345 JUMP JUMPDEST PUSH20 0xFFFFFFFFFFFFFFFFFFFFFFFFFFFFFFFFFFFFFFFF AND PUSH2 0x2D51 PUSH2 0x21AC JUMP JUMPDEST PUSH20 0xFFFFFFFFFFFFFFFFFFFFFFFFFFFFFFFFFFFFFFFF AND EQ PUSH2 0x2DA7 JUMPI PUSH1 0x40 MLOAD PUSH32 0x8C379A000000000000000000000000000000000000000000000000000000000 DUP2 MSTORE PUSH1 0x4 ADD PUSH2 0x2D9E SWAP1 PUSH2 0x4FEE JUMP JUMPDEST PUSH1 0x40 MLOAD DUP1 SWAP2 SUB SWAP1 REVERT JUMPDEST PUSH1 0x0 PUSH1 0x1A PUSH1 0x0 SWAP1 SLOAD SWAP1 PUSH2 0x100 EXP SWAP1 DIV PUSH20 0xFFFFFFFFFFFFFFFFFFFFFFFFFFFFFFFFFFFFFFFF AND PUSH20 0xFFFFFFFFFFFFFFFFFFFFFFFFFFFFFFFFFFFFFFFF AND SELFBALANCE PUSH1 0x40 MLOAD PUSH2 0x2DEF SWAP1 PUSH2 0x4C95 JUMP JUMPDEST PUSH1 0x0 PUSH1 0x40 MLOAD DUP1 DUP4 SUB DUP2 DUP6 DUP8 GAS CALL SWAP3 POP POP POP RETURNDATASIZE DUP1 PUSH1 0x0 DUP2 EQ PUSH2 0x2E2C JUMPI PUSH1 0x40 MLOAD SWAP2 POP PUSH1 0x1F NOT PUSH1 0x3F RETURNDATASIZE ADD AND DUP3 ADD PUSH1 0x40 MSTORE RETURNDATASIZE DUP3 MSTORE RETURNDATASIZE PUSH1 0x0 PUSH1 0x20 DUP5 ADD RETURNDATACOPY PUSH2 0x2E31 JUMP JUMPDEST PUSH1 0x60 SWAP2 POP JUMPDEST POP POP SWAP1 POP DUP1 PUSH2 0x2E75 JUMPI PUSH1 0x40 MLOAD PUSH32 0x8C379A000000000000000000000000000000000000000000000000000000000 DUP2 MSTORE PUSH1 0x4 ADD PUSH2 0x2E6C SWAP1 PUSH2 0x50AE JUMP JUMPDEST PUSH1 0x40 MLOAD DUP1 SWAP2 SUB SWAP1 REVERT JUMPDEST POP JUMP JUMPDEST PUSH2 0x2E80 PUSH2 0x3345 JUMP JUMPDEST PUSH20 0xFFFFFFFFFFFFFFFFFFFFFFFFFFFFFFFFFFFFFFFF AND PUSH2 0x2E9E PUSH2 0x21AC JUMP JUMPDEST PUSH20 0xFFFFFFFFFFFFFFFFFFFFFFFFFFFFFFFFFFFFFFFF AND EQ PUSH2 0x2EF4 JUMPI PUSH1 0x40 MLOAD PUSH32 0x8C379A000000000000000000000000000000000000000000000000000000000 DUP2 MSTORE PUSH1 0x4 ADD PUSH2 0x2EEB SWAP1 PUSH2 0x4FEE JUMP JUMPDEST PUSH1 0x40 MLOAD DUP1 SWAP2 SUB SWAP1 REVERT JUMPDEST PUSH1 0x0 DUP2 EQ ISZERO PUSH2 0x2F4E JUMPI PUSH1 0xC SLOAD DUP3 LT ISZERO PUSH2 0x2F42 JUMPI PUSH1 0x40 MLOAD PUSH32 0x8C379A000000000000000000000000000000000000000000000000000000000 DUP2 MSTORE PUSH1 0x4 ADD PUSH2 0x2F39 SWAP1 PUSH2 0x4DCE JUMP JUMPDEST PUSH1 0x40 MLOAD DUP1 SWAP2 SUB SWAP1 REVERT JUMPDEST DUP2 PUSH1 0xA DUP2 SWAP1 SSTORE POP PUSH2 0x2F9B JUMP JUMPDEST PUSH1 0xB SLOAD DUP3 LT ISZERO PUSH2 0x2F93 JUMPI PUSH1 0x40 MLOAD PUSH32 0x8C379A000000000000000000000000000000000000000000000000000000000 DUP2 MSTORE PUSH1 0x4 ADD PUSH2 0x2F8A SWAP1 PUSH2 0x516E JUMP JUMPDEST PUSH1 0x40 MLOAD DUP1 SWAP2 SUB SWAP1 REVERT JUMPDEST DUP2 PUSH1 0xB DUP2 SWAP1 SSTORE POP JUMPDEST POP POP JUMP JUMPDEST PUSH1 0x7 SLOAD DUP2 JUMP JUMPDEST PUSH1 0x1B PUSH1 0x0 SWAP1 SLOAD SWAP1 PUSH2 0x100 EXP SWAP1 DIV PUSH20 0xFFFFFFFFFFFFFFFFFFFFFFFFFFFFFFFFFFFFFFFF AND DUP2 JUMP JUMPDEST PUSH2 0x2FD3 PUSH2 0x3345 JUMP JUMPDEST PUSH20 0xFFFFFFFFFFFFFFFFFFFFFFFFFFFFFFFFFFFFFFFF AND PUSH2 0x2FF1 PUSH2 0x21AC JUMP JUMPDEST PUSH20 0xFFFFFFFFFFFFFFFFFFFFFFFFFFFFFFFFFFFFFFFF AND EQ PUSH2 0x3047 JUMPI PUSH1 0x40 MLOAD PUSH32 0x8C379A000000000000000000000000000000000000000000000000000000000 DUP2 MSTORE PUSH1 0x4 ADD PUSH2 0x303E SWAP1 PUSH2 0x4FEE JUMP JUMPDEST PUSH1 0x40 MLOAD DUP1 SWAP2 SUB SWAP1 REVERT JUMPDEST PUSH1 0x13 PUSH1 0x0 PUSH2 0x3055 SWAP2 SWAP1 PUSH2 0x3FDC JUMP JUMPDEST DUP2 DUP2 PUSH1 0x13 SWAP2 SWAP1 PUSH2 0x3066 SWAP3 SWAP2 SWAP1 PUSH2 0x3FFD JUMP JUMPDEST POP POP POP JUMP JUMPDEST PUSH1 0x17 PUSH1 0x0 SWAP1 SLOAD SWAP1 PUSH2 0x100 EXP SWAP1 DIV PUSH20 0xFFFFFFFFFFFFFFFFFFFFFFFFFFFFFFFFFFFFFFFF AND DUP2 JUMP JUMPDEST PUSH1 0x0 PUSH1 0x6 PUSH1 0x0 DUP5 PUSH20 0xFFFFFFFFFFFFFFFFFFFFFFFFFFFFFFFFFFFFFFFF AND PUSH20 0xFFFFFFFFFFFFFFFFFFFFFFFFFFFFFFFFFFFFFFFF AND DUP2 MSTORE PUSH1 0x20 ADD SWAP1 DUP2 MSTORE PUSH1 0x20 ADD PUSH1 0x0 KECCAK256 PUSH1 0x0 DUP4 PUSH20 0xFFFFFFFFFFFFFFFFFFFFFFFFFFFFFFFFFFFFFFFF AND PUSH20 0xFFFFFFFFFFFFFFFFFFFFFFFFFFFFFFFFFFFFFFFF AND DUP2 MSTORE PUSH1 0x20 ADD SWAP1 DUP2 MSTORE PUSH1 0x20 ADD PUSH1 0x0 KECCAK256 PUSH1 0x0 SWAP1 SLOAD SWAP1 PUSH2 0x100 EXP SWAP1 DIV PUSH1 0xFF AND SWAP1 POP SWAP3 SWAP2 POP POP JUMP JUMPDEST PUSH1 0xC SLOAD DUP2 JUMP JUMPDEST PUSH2 0x3133 PUSH2 0x3345 JUMP JUMPDEST PUSH20 0xFFFFFFFFFFFFFFFFFFFFFFFFFFFFFFFFFFFFFFFF AND PUSH2 0x3151 PUSH2 0x21AC JUMP JUMPDEST PUSH20 0xFFFFFFFFFFFFFFFFFFFFFFFFFFFFFFFFFFFFFFFF AND EQ PUSH2 0x31A7 JUMPI PUSH1 0x40 MLOAD PUSH32 0x8C379A000000000000000000000000000000000000000000000000000000000 DUP2 MSTORE PUSH1 0x4 ADD PUSH2 0x319E SWAP1 PUSH2 0x4FEE JUMP JUMPDEST PUSH1 0x40 MLOAD DUP1 SWAP2 SUB SWAP1 REVERT JUMPDEST PUSH1 0x0 PUSH20 0xFFFFFFFFFFFFFFFFFFFFFFFFFFFFFFFFFFFFFFFF AND DUP2 PUSH20 0xFFFFFFFFFFFFFFFFFFFFFFFFFFFFFFFFFFFFFFFF AND EQ ISZERO PUSH2 0x3217 JUMPI PUSH1 0x40 MLOAD PUSH32 0x8C379A000000000000000000000000000000000000000000000000000000000 DUP2 MSTORE PUSH1 0x4 ADD PUSH2 0x320E SWAP1 PUSH2 0x4D6E JUMP JUMPDEST PUSH1 0x40 MLOAD DUP1 SWAP2 SUB SWAP1 REVERT JUMPDEST PUSH2 0x3220 DUP2 PUSH2 0x37A0 JUMP JUMPDEST POP JUMP JUMPDEST PUSH1 0x19 PUSH1 0x0 SWAP1 SLOAD SWAP1 PUSH2 0x100 EXP SWAP1 DIV PUSH20 0xFFFFFFFFFFFFFFFFFFFFFFFFFFFFFFFFFFFFFFFF AND DUP2 JUMP JUMPDEST PUSH1 0x1C PUSH1 0x0 SWAP1 SLOAD SWAP1 PUSH2 0x100 EXP SWAP1 DIV PUSH20 0xFFFFFFFFFFFFFFFFFFFFFFFFFFFFFFFFFFFFFFFF AND DUP2 JUMP JUMPDEST PUSH1 0x0 PUSH32 0x1FFC9A700000000000000000000000000000000000000000000000000000000 PUSH28 0xFFFFFFFFFFFFFFFFFFFFFFFFFFFFFFFFFFFFFFFFFFFFFFFFFFFFFFFF NOT AND DUP3 PUSH28 0xFFFFFFFFFFFFFFFFFFFFFFFFFFFFFFFFFFFFFFFFFFFFFFFFFFFFFFFF NOT AND EQ SWAP1 POP SWAP2 SWAP1 POP JUMP JUMPDEST PUSH1 0x0 DUP1 PUSH20 0xFFFFFFFFFFFFFFFFFFFFFFFFFFFFFFFFFFFFFFFF AND PUSH1 0x3 PUSH1 0x0 DUP5 DUP2 MSTORE PUSH1 0x20 ADD SWAP1 DUP2 MSTORE PUSH1 0x20 ADD PUSH1 0x0 KECCAK256 PUSH1 0x0 SWAP1 SLOAD SWAP1 PUSH2 0x100 EXP SWAP1 DIV PUSH20 0xFFFFFFFFFFFFFFFFFFFFFFFFFFFFFFFFFFFFFFFF AND PUSH20 0xFFFFFFFFFFFFFFFFFFFFFFFFFFFFFFFFFFFFFFFF AND EQ ISZERO SWAP1 POP SWAP2 SWAP1 POP JUMP JUMPDEST PUSH1 0x0 CALLER SWAP1 POP SWAP1 JUMP JUMPDEST DUP2 PUSH1 0x5 PUSH1 0x0 DUP4 DUP2 MSTORE PUSH1 0x20 ADD SWAP1 DUP2 MSTORE PUSH1 0x20 ADD PUSH1 0x0 KECCAK256 PUSH1 0x0 PUSH2 0x100 EXP DUP2 SLOAD DUP2 PUSH20 0xFFFFFFFFFFFFFFFFFFFFFFFFFFFFFFFFFFFFFFFF MUL NOT AND SWAP1 DUP4 PUSH20 0xFFFFFFFFFFFFFFFFFFFFFFFFFFFFFFFFFFFFFFFF AND MUL OR SWAP1 SSTORE POP DUP1 DUP3 PUSH20 0xFFFFFFFFFFFFFFFFFFFFFFFFFFFFFFFFFFFFFFFF AND PUSH2 0x33C0 DUP4 PUSH2 0x1D38 JUMP JUMPDEST PUSH20 0xFFFFFFFFFFFFFFFFFFFFFFFFFFFFFFFFFFFFFFFF AND PUSH32 0x8C5BE1E5EBEC7D5BD14F71427D1E84F3DD0314C0F7B2291E5B200AC8C7C3B925 PUSH1 0x40 MLOAD PUSH1 0x40 MLOAD DUP1 SWAP2 SUB SWAP1 LOG4 POP POP JUMP JUMPDEST PUSH1 0x0 PUSH2 0x3411 DUP3 PUSH2 0x32D9 JUMP JUMPDEST PUSH2 0x3450 JUMPI PUSH1 0x40 MLOAD PUSH32 0x8C379A000000000000000000000000000000000000000000000000000000000 DUP2 MSTORE PUSH1 0x4 ADD PUSH2 0x3447 SWAP1 PUSH2 0x4E2E JUMP JUMPDEST PUSH1 0x40 MLOAD DUP1 SWAP2 SUB SWAP1 REVERT JUMPDEST PUSH1 0x0 PUSH2 0x345B DUP4 PUSH2 0x1D38 JUMP JUMPDEST SWAP1 POP DUP1 PUSH20 0xFFFFFFFFFFFFFFFFFFFFFFFFFFFFFFFFFFFFFFFF AND DUP5 PUSH20 0xFFFFFFFFFFFFFFFFFFFFFFFFFFFFFFFFFFFFFFFF AND EQ DUP1 PUSH2 0x34CA JUMPI POP DUP4 PUSH20 0xFFFFFFFFFFFFFFFFFFFFFFFFFFFFFFFFFFFFFFFF AND PUSH2 0x34B2 DUP5 PUSH2 0xE0C JUMP JUMPDEST PUSH20 0xFFFFFFFFFFFFFFFFFFFFFFFFFFFFFFFFFFFFFFFF AND EQ JUMPDEST DUP1 PUSH2 0x34DB JUMPI POP PUSH2 0x34DA DUP2 DUP6 PUSH2 0x3091 JUMP JUMPDEST JUMPDEST SWAP2 POP POP SWAP3 SWAP2 POP POP JUMP JUMPDEST DUP3 PUSH20 0xFFFFFFFFFFFFFFFFFFFFFFFFFFFFFFFFFFFFFFFF AND PUSH2 0x3504 DUP3 PUSH2 0x1D38 JUMP JUMPDEST PUSH20 0xFFFFFFFFFFFFFFFFFFFFFFFFFFFFFFFFFFFFFFFF AND EQ PUSH2 0x355A JUMPI PUSH1 0x40 MLOAD PUSH32 0x8C379A000000000000000000000000000000000000000000000000000000000 DUP2 MSTORE PUSH1 0x4 ADD PUSH2 0x3551 SWAP1 PUSH2 0x504E JUMP JUMPDEST PUSH1 0x40 MLOAD DUP1 SWAP2 SUB SWAP1 REVERT JUMPDEST PUSH1 0x0 PUSH20 0xFFFFFFFFFFFFFFFFFFFFFFFFFFFFFFFFFFFFFFFF AND DUP3 PUSH20 0xFFFFFFFFFFFFFFFFFFFFFFFFFFFFFFFFFFFFFFFF AND EQ ISZERO PUSH2 0x35CA JUMPI PUSH1 0x40 MLOAD PUSH32 0x8C379A000000000000000000000000000000000000000000000000000000000 DUP2 MSTORE PUSH1 0x4 ADD PUSH2 0x35C1 SWAP1 PUSH2 0x4DEE JUMP JUMPDEST PUSH1 0x40 MLOAD DUP1 SWAP2 SUB SWAP1 REVERT JUMPDEST PUSH2 0x35D5 DUP4 DUP4 DUP4 PUSH2 0x3B7E JUMP JUMPDEST PUSH2 0x35E0 PUSH1 0x0 DUP3 PUSH2 0x334D JUMP JUMPDEST PUSH1 0x1 PUSH1 0x4 PUSH1 0x0 DUP6 PUSH20 0xFFFFFFFFFFFFFFFFFFFFFFFFFFFFFFFFFFFFFFFF AND PUSH20 0xFFFFFFFFFFFFFFFFFFFFFFFFFFFFFFFFFFFFFFFF AND DUP2 MSTORE PUSH1 0x20 ADD SWAP1 DUP2 MSTORE PUSH1 0x20 ADD PUSH1 0x0 KECCAK256 PUSH1 0x0 DUP3 DUP3 SLOAD PUSH2 0x3630 SWAP2 SWAP1 PUSH2 0x53C0 JUMP JUMPDEST SWAP3 POP POP DUP2 SWAP1 SSTORE POP PUSH1 0x1 PUSH1 0x4 PUSH1 0x0 DUP5 PUSH20 0xFFFFFFFFFFFFFFFFFFFFFFFFFFFFFFFFFFFFFFFF AND PUSH20 0xFFFFFFFFFFFFFFFFFFFFFFFFFFFFFFFFFFFFFFFF AND DUP2 MSTORE PUSH1 0x20 ADD SWAP1 DUP2 MSTORE PUSH1 0x20 ADD PUSH1 0x0 KECCAK256 PUSH1 0x0 DUP3 DUP3 SLOAD PUSH2 0x3687 SWAP2 SWAP1 PUSH2 0x52DF JUMP JUMPDEST SWAP3 POP POP DUP2 SWAP1 SSTORE POP DUP2 PUSH1 0x3 PUSH1 0x0 DUP4 DUP2 MSTORE PUSH1 0x20 ADD SWAP1 DUP2 MSTORE PUSH1 0x20 ADD PUSH1 0x0 KECCAK256 PUSH1 0x0 PUSH2 0x100 EXP DUP2 SLOAD DUP2 PUSH20 0xFFFFFFFFFFFFFFFFFFFFFFFFFFFFFFFFFFFFFFFF MUL NOT AND SWAP1 DUP4 PUSH20 0xFFFFFFFFFFFFFFFFFFFFFFFFFFFFFFFFFFFFFFFF AND MUL OR SWAP1 SSTORE POP DUP1 DUP3 PUSH20 0xFFFFFFFFFFFFFFFFFFFFFFFFFFFFFFFFFFFFFFFF AND DUP5 PUSH20 0xFFFFFFFFFFFFFFFFFFFFFFFFFFFFFFFFFFFFFFFF AND PUSH32 0xDDF252AD1BE2C89B69C2B068FC378DAA952BA7F163C4A11628F55A4DF523B3EF PUSH1 0x40 MLOAD PUSH1 0x40 MLOAD DUP1 SWAP2 SUB SWAP1 LOG4 POP POP POP JUMP JUMPDEST PUSH1 0x0 DUP2 DUP4 PUSH2 0x374E SWAP2 SWAP1 PUSH2 0x5366 JUMP JUMPDEST SWAP1 POP SWAP3 SWAP2 POP POP JUMP JUMPDEST PUSH1 0x0 DUP2 DUP4 PUSH2 0x3764 SWAP2 SWAP1 PUSH2 0x5335 JUMP JUMPDEST SWAP1 POP SWAP3 SWAP2 POP POP JUMP JUMPDEST PUSH1 0x0 DUP2 DUP4 PUSH2 0x377A SWAP2 SWAP1 PUSH2 0x52DF JUMP JUMPDEST SWAP1 POP SWAP3 SWAP2 POP POP JUMP JUMPDEST PUSH2 0x379C DUP3 DUP3 PUSH1 0x40 MLOAD DUP1 PUSH1 0x20 ADD PUSH1 0x40 MSTORE DUP1 PUSH1 0x0 DUP2 MSTORE POP PUSH2 0x3B83 JUMP JUMPDEST POP POP JUMP JUMPDEST PUSH1 0x0 DUP1 PUSH1 0x0 SWAP1 SLOAD SWAP1 PUSH2 0x100 EXP SWAP1 DIV PUSH20 0xFFFFFFFFFFFFFFFFFFFFFFFFFFFFFFFFFFFFFFFF AND SWAP1 POP DUP2 PUSH1 0x0 DUP1 PUSH2 0x100 EXP DUP2 SLOAD DUP2 PUSH20 0xFFFFFFFFFFFFFFFFFFFFFFFFFFFFFFFFFFFFFFFF MUL NOT AND SWAP1 DUP4 PUSH20 0xFFFFFFFFFFFFFFFFFFFFFFFFFFFFFFFFFFFFFFFF AND MUL OR SWAP1 SSTORE POP DUP2 PUSH20 0xFFFFFFFFFFFFFFFFFFFFFFFFFFFFFFFFFFFFFFFF AND DUP2 PUSH20 0xFFFFFFFFFFFFFFFFFFFFFFFFFFFFFFFFFFFFFFFF AND PUSH32 0x8BE0079C531659141344CD1FD0A4F28419497F9722A3DAAFE3B4186F6B6457E0 PUSH1 0x40 MLOAD PUSH1 0x40 MLOAD DUP1 SWAP2 SUB SWAP1 LOG3 POP POP JUMP JUMPDEST PUSH2 0x386F DUP5 DUP5 DUP5 PUSH2 0x34E4 JUMP JUMPDEST PUSH2 0x387B DUP5 DUP5 DUP5 DUP5 PUSH2 0x3BDE JUMP JUMPDEST PUSH2 0x38BA JUMPI PUSH1 0x40 MLOAD PUSH32 0x8C379A000000000000000000000000000000000000000000000000000000000 DUP2 MSTORE PUSH1 0x4 ADD PUSH2 0x38B1 SWAP1 PUSH2 0x4D4E JUMP JUMPDEST PUSH1 0x40 MLOAD DUP1 SWAP2 SUB SWAP1 REVERT JUMPDEST POP POP POP POP JUMP JUMPDEST PUSH1 0x60 PUSH1 0x0 DUP3 EQ ISZERO PUSH2 0x3908 JUMPI PUSH1 0x40 MLOAD DUP1 PUSH1 0x40 ADD PUSH1 0x40 MSTORE DUP1 PUSH1 0x1 DUP2 MSTORE PUSH1 0x20 ADD PUSH32 0x3000000000000000000000000000000000000000000000000000000000000000 DUP2 MSTORE POP SWAP1 POP PUSH2 0x3A68 JUMP JUMPDEST PUSH1 0x0 DUP3 SWAP1 POP PUSH1 0x0 JUMPDEST PUSH1 0x0 DUP3 EQ PUSH2 0x393A JUMPI DUP1 DUP1 PUSH2 0x3923 SWAP1 PUSH2 0x550D JUMP JUMPDEST SWAP2 POP POP PUSH1 0xA DUP3 PUSH2 0x3933 SWAP2 SWAP1 PUSH2 0x5335 JUMP JUMPDEST SWAP2 POP PUSH2 0x3910 JUMP JUMPDEST PUSH1 0x0 DUP2 PUSH8 0xFFFFFFFFFFFFFFFF DUP2 GT ISZERO PUSH2 0x397C JUMPI PUSH32 0x4E487B7100000000000000000000000000000000000000000000000000000000 PUSH1 0x0 MSTORE PUSH1 0x41 PUSH1 0x4 MSTORE PUSH1 0x24 PUSH1 0x0 REVERT JUMPDEST PUSH1 0x40 MLOAD SWAP1 DUP1 DUP3 MSTORE DUP1 PUSH1 0x1F ADD PUSH1 0x1F NOT AND PUSH1 0x20 ADD DUP3 ADD PUSH1 0x40 MSTORE DUP1 ISZERO PUSH2 0x39AE JUMPI DUP2 PUSH1 0x20 ADD PUSH1 0x1 DUP3 MUL DUP1 CALLDATASIZE DUP4 CALLDATACOPY DUP1 DUP3 ADD SWAP2 POP POP SWAP1 POP JUMPDEST POP SWAP1 POP JUMPDEST PUSH1 0x0 DUP6 EQ PUSH2 0x3A61 JUMPI PUSH1 0x1 DUP3 PUSH2 0x39C7 SWAP2 SWAP1 PUSH2 0x53C0 JUMP JUMPDEST SWAP2 POP PUSH1 0xA DUP6 PUSH2 0x39D6 SWAP2 SWAP1 PUSH2 0x5556 JUMP JUMPDEST PUSH1 0x30 PUSH2 0x39E2 SWAP2 SWAP1 PUSH2 0x52DF JUMP JUMPDEST PUSH1 0xF8 SHL DUP2 DUP4 DUP2 MLOAD DUP2 LT PUSH2 0x3A1E JUMPI PUSH32 0x4E487B7100000000000000000000000000000000000000000000000000000000 PUSH1 0x0 MSTORE PUSH1 0x32 PUSH1 0x4 MSTORE PUSH1 0x24 PUSH1 0x0 REVERT JUMPDEST PUSH1 0x20 ADD ADD SWAP1 PUSH31 0xFFFFFFFFFFFFFFFFFFFFFFFFFFFFFFFFFFFFFFFFFFFFFFFFFFFFFFFFFFFFFF NOT AND SWAP1 DUP2 PUSH1 0x0 BYTE SWAP1 MSTORE8 POP PUSH1 0xA DUP6 PUSH2 0x3A5A SWAP2 SWAP1 PUSH2 0x5335 JUMP JUMPDEST SWAP5 POP PUSH2 0x39B2 JUMP JUMPDEST DUP1 SWAP4 POP POP POP POP JUMPDEST SWAP2 SWAP1 POP JUMP JUMPDEST PUSH1 0x0 PUSH2 0x3A78 DUP3 PUSH2 0x1D38 JUMP JUMPDEST SWAP1 POP PUSH2 0x3A86 DUP2 PUSH1 0x0 DUP5 PUSH2 0x3B7E JUMP JUMPDEST PUSH2 0x3A91 PUSH1 0x0 DUP4 PUSH2 0x334D JUMP JUMPDEST PUSH1 0x1 PUSH1 0x4 PUSH1 0x0 DUP4 PUSH20 0xFFFFFFFFFFFFFFFFFFFFFFFFFFFFFFFFFFFFFFFF AND PUSH20 0xFFFFFFFFFFFFFFFFFFFFFFFFFFFFFFFFFFFFFFFF AND DUP2 MSTORE PUSH1 0x20 ADD SWAP1 DUP2 MSTORE PUSH1 0x20 ADD PUSH1 0x0 KECCAK256 PUSH1 0x0 DUP3 DUP3 SLOAD PUSH2 0x3AE1 SWAP2 SWAP1 PUSH2 0x53C0 JUMP JUMPDEST SWAP3 POP POP DUP2 SWAP1 SSTORE POP PUSH1 0x3 PUSH1 0x0 DUP4 DUP2 MSTORE PUSH1 0x20 ADD SWAP1 DUP2 MSTORE PUSH1 0x20 ADD PUSH1 0x0 KECCAK256 PUSH1 0x0 PUSH2 0x100 EXP DUP2 SLOAD SWAP1 PUSH20 0xFFFFFFFFFFFFFFFFFFFFFFFFFFFFFFFFFFFFFFFF MUL NOT AND SWAP1 SSTORE DUP2 PUSH1 0x0 PUSH20 0xFFFFFFFFFFFFFFFFFFFFFFFFFFFFFFFFFFFFFFFF AND DUP3 PUSH20 0xFFFFFFFFFFFFFFFFFFFFFFFFFFFFFFFFFFFFFFFF AND PUSH32 0xDDF252AD1BE2C89B69C2B068FC378DAA952BA7F163C4A11628F55A4DF523B3EF PUSH1 0x40 MLOAD PUSH1 0x40 MLOAD DUP1 SWAP2 SUB SWAP1 LOG4 POP POP JUMP JUMPDEST POP POP POP JUMP JUMPDEST PUSH2 0x3B8D DUP4 DUP4 PUSH2 0x3D75 JUMP JUMPDEST PUSH2 0x3B9A PUSH1 0x0 DUP5 DUP5 DUP5 PUSH2 0x3BDE JUMP JUMPDEST PUSH2 0x3BD9 JUMPI PUSH1 0x40 MLOAD PUSH32 0x8C379A000000000000000000000000000000000000000000000000000000000 DUP2 MSTORE PUSH1 0x4 ADD PUSH2 0x3BD0 SWAP1 PUSH2 0x4D4E JUMP JUMPDEST PUSH1 0x40 MLOAD DUP1 SWAP2 SUB SWAP1 REVERT JUMPDEST POP POP POP JUMP JUMPDEST PUSH1 0x0 PUSH2 0x3BFF DUP5 PUSH20 0xFFFFFFFFFFFFFFFFFFFFFFFFFFFFFFFFFFFFFFFF AND PUSH2 0x3F43 JUMP JUMPDEST ISZERO PUSH2 0x3D68 JUMPI DUP4 PUSH20 0xFFFFFFFFFFFFFFFFFFFFFFFFFFFFFFFFFFFFFFFF AND PUSH4 0x150B7A02 PUSH2 0x3C28 PUSH2 0x3345 JUMP JUMPDEST DUP8 DUP7 DUP7 PUSH1 0x40 MLOAD DUP6 PUSH4 0xFFFFFFFF AND PUSH1 0xE0 SHL DUP2 MSTORE PUSH1 0x4 ADD PUSH2 0x3C4A SWAP5 SWAP4 SWAP3 SWAP2 SWAP1 PUSH2 0x4CC5 JUMP JUMPDEST PUSH1 0x20 PUSH1 0x40 MLOAD DUP1 DUP4 SUB DUP2 PUSH1 0x0 DUP8 DUP1 EXTCODESIZE ISZERO DUP1 ISZERO PUSH2 0x3C64 JUMPI PUSH1 0x0 DUP1 REVERT JUMPDEST POP GAS CALL SWAP3 POP POP POP DUP1 ISZERO PUSH2 0x3C95 JUMPI POP PUSH1 0x40 MLOAD RETURNDATASIZE PUSH1 0x1F NOT PUSH1 0x1F DUP3 ADD AND DUP3 ADD DUP1 PUSH1 0x40 MSTORE POP DUP2 ADD SWAP1 PUSH2 0x3C92 SWAP2 SWAP1 PUSH2 0x4567 JUMP JUMPDEST PUSH1 0x1 JUMPDEST PUSH2 0x3D18 JUMPI RETURNDATASIZE DUP1 PUSH1 0x0 DUP2 EQ PUSH2 0x3CC5 JUMPI PUSH1 0x40 MLOAD SWAP2 POP PUSH1 0x1F NOT PUSH1 0x3F RETURNDATASIZE ADD AND DUP3 ADD PUSH1 0x40 MSTORE RETURNDATASIZE DUP3 MSTORE RETURNDATASIZE PUSH1 0x0 PUSH1 0x20 DUP5 ADD RETURNDATACOPY PUSH2 0x3CCA JUMP JUMPDEST PUSH1 0x60 SWAP2 POP JUMPDEST POP PUSH1 0x0 DUP2 MLOAD EQ ISZERO PUSH2 0x3D10 JUMPI PUSH1 0x40 MLOAD PUSH32 0x8C379A000000000000000000000000000000000000000000000000000000000 DUP2 MSTORE PUSH1 0x4 ADD PUSH2 0x3D07 SWAP1 PUSH2 0x4D4E JUMP JUMPDEST PUSH1 0x40 MLOAD DUP1 SWAP2 SUB SWAP1 REVERT JUMPDEST DUP1 MLOAD DUP2 PUSH1 0x20 ADD REVERT JUMPDEST PUSH4 0x150B7A02 PUSH1 0xE0 SHL PUSH28 0xFFFFFFFFFFFFFFFFFFFFFFFFFFFFFFFFFFFFFFFFFFFFFFFFFFFFFFFF NOT AND DUP2 PUSH28 0xFFFFFFFFFFFFFFFFFFFFFFFFFFFFFFFFFFFFFFFFFFFFFFFFFFFFFFFF NOT AND EQ SWAP2 POP POP PUSH2 0x3D6D JUMP JUMPDEST PUSH1 0x1 SWAP1 POP JUMPDEST SWAP5 SWAP4 POP POP POP POP JUMP JUMPDEST PUSH1 0x0 PUSH20 0xFFFFFFFFFFFFFFFFFFFFFFFFFFFFFFFFFFFFFFFF AND DUP3 PUSH20 0xFFFFFFFFFFFFFFFFFFFFFFFFFFFFFFFFFFFFFFFF AND EQ ISZERO PUSH2 0x3DE5 JUMPI PUSH1 0x40 MLOAD PUSH32 0x8C379A000000000000000000000000000000000000000000000000000000000 DUP2 MSTORE PUSH1 0x4 ADD PUSH2 0x3DDC SWAP1 PUSH2 0x4F6E JUMP JUMPDEST PUSH1 0x40 MLOAD DUP1 SWAP2 SUB SWAP1 REVERT JUMPDEST PUSH2 0x3DEE DUP2 PUSH2 0x32D9 JUMP JUMPDEST ISZERO PUSH2 0x3E2E JUMPI PUSH1 0x40 MLOAD PUSH32 0x8C379A000000000000000000000000000000000000000000000000000000000 DUP2 MSTORE PUSH1 0x4 ADD PUSH2 0x3E25 SWAP1 PUSH2 0x4DAE JUMP JUMPDEST PUSH1 0x40 MLOAD DUP1 SWAP2 SUB SWAP1 REVERT JUMPDEST PUSH2 0x3E3A PUSH1 0x0 DUP4 DUP4 PUSH2 0x3B7E JUMP JUMPDEST PUSH1 0x1 PUSH1 0x4 PUSH1 0x0 DUP5 PUSH20 0xFFFFFFFFFFFFFFFFFFFFFFFFFFFFFFFFFFFFFFFF AND PUSH20 0xFFFFFFFFFFFFFFFFFFFFFFFFFFFFFFFFFFFFFFFF AND DUP2 MSTORE PUSH1 0x20 ADD SWAP1 DUP2 MSTORE PUSH1 0x20 ADD PUSH1 0x0 KECCAK256 PUSH1 0x0 DUP3 DUP3 SLOAD PUSH2 0x3E8A SWAP2 SWAP1 PUSH2 0x52DF JUMP JUMPDEST SWAP3 POP POP DUP2 SWAP1 SSTORE POP DUP2 PUSH1 0x3 PUSH1 0x0 DUP4 DUP2 MSTORE PUSH1 0x20 ADD SWAP1 DUP2 MSTORE PUSH1 0x20 ADD PUSH1 0x0 KECCAK256 PUSH1 0x0 PUSH2 0x100 EXP DUP2 SLOAD DUP2 PUSH20 0xFFFFFFFFFFFFFFFFFFFFFFFFFFFFFFFFFFFFFFFF MUL NOT AND SWAP1 DUP4 PUSH20 0xFFFFFFFFFFFFFFFFFFFFFFFFFFFFFFFFFFFFFFFF AND MUL OR SWAP1 SSTORE POP DUP1 DUP3 PUSH20 0xFFFFFFFFFFFFFFFFFFFFFFFFFFFFFFFFFFFFFFFF AND PUSH1 0x0 PUSH20 0xFFFFFFFFFFFFFFFFFFFFFFFFFFFFFFFFFFFFFFFF AND PUSH32 0xDDF252AD1BE2C89B69C2B068FC378DAA952BA7F163C4A11628F55A4DF523B3EF PUSH1 0x40 MLOAD PUSH1 0x40 MLOAD DUP1 SWAP2 SUB SWAP1 LOG4 POP POP JUMP JUMPDEST PUSH1 0x0 DUP1 DUP3 EXTCODESIZE SWAP1 POP PUSH1 0x0 DUP2 GT SWAP2 POP POP SWAP2 SWAP1 POP JUMP JUMPDEST DUP3 DUP1 SLOAD PUSH2 0x3F62 SWAP1 PUSH2 0x54AA JUMP JUMPDEST SWAP1 PUSH1 0x0 MSTORE PUSH1 0x20 PUSH1 0x0 KECCAK256 SWAP1 PUSH1 0x1F ADD PUSH1 0x20 SWAP1 DIV DUP2 ADD SWAP3 DUP3 PUSH2 0x3F84 JUMPI PUSH1 0x0 DUP6 SSTORE PUSH2 0x3FCB JUMP JUMPDEST DUP3 PUSH1 0x1F LT PUSH2 0x3F9D JUMPI DUP1 MLOAD PUSH1 0xFF NOT AND DUP4 DUP1 ADD OR DUP6 SSTORE PUSH2 0x3FCB JUMP JUMPDEST DUP3 DUP1 ADD PUSH1 0x1 ADD DUP6 SSTORE DUP3 ISZERO PUSH2 0x3FCB JUMPI SWAP2 DUP3 ADD JUMPDEST DUP3 DUP2 GT ISZERO PUSH2 0x3FCA JUMPI DUP3 MLOAD DUP3 SSTORE SWAP2 PUSH1 0x20 ADD SWAP2 SWAP1 PUSH1 0x1 ADD SWAP1 PUSH2 0x3FAF JUMP JUMPDEST JUMPDEST POP SWAP1 POP PUSH2 0x3FD8 SWAP2 SWAP1 PUSH2 0x409D JUMP JUMPDEST POP SWAP1 JUMP JUMPDEST POP DUP1 SLOAD PUSH1 0x0 DUP3 SSTORE SWAP1 PUSH1 0x0 MSTORE PUSH1 0x20 PUSH1 0x0 KECCAK256 SWAP1 DUP2 ADD SWAP1 PUSH2 0x3FFA SWAP2 SWAP1 PUSH2 0x409D JUMP JUMPDEST POP JUMP JUMPDEST DUP3 DUP1 SLOAD DUP3 DUP3 SSTORE SWAP1 PUSH1 0x0 MSTORE PUSH1 0x20 PUSH1 0x0 KECCAK256 SWAP1 DUP2 ADD SWAP3 DUP3 ISZERO PUSH2 0x408C JUMPI SWAP2 PUSH1 0x20 MUL DUP3 ADD JUMPDEST DUP3 DUP2 GT ISZERO PUSH2 0x408B JUMPI DUP3 CALLDATALOAD PUSH20 0xFFFFFFFFFFFFFFFFFFFFFFFFFFFFFFFFFFFFFFFF AND DUP3 PUSH1 0x0 PUSH2 0x100 EXP DUP2 SLOAD DUP2 PUSH20 0xFFFFFFFFFFFFFFFFFFFFFFFFFFFFFFFFFFFFFFFF MUL NOT AND SWAP1 DUP4 PUSH20 0xFFFFFFFFFFFFFFFFFFFFFFFFFFFFFFFFFFFFFFFF AND MUL OR SWAP1 SSTORE POP SWAP2 PUSH1 0x20 ADD SWAP2 SWAP1 PUSH1 0x1 ADD SWAP1 PUSH2 0x401D JUMP JUMPDEST JUMPDEST POP SWAP1 POP PUSH2 0x4099 SWAP2 SWAP1 PUSH2 0x409D JUMP JUMPDEST POP SWAP1 JUMP JUMPDEST JUMPDEST DUP1 DUP3 GT ISZERO PUSH2 0x40B6 JUMPI PUSH1 0x0 DUP2 PUSH1 0x0 SWAP1 SSTORE POP PUSH1 0x1 ADD PUSH2 0x409E JUMP JUMPDEST POP SWAP1 JUMP JUMPDEST PUSH1 0x0 PUSH2 0x40CD PUSH2 0x40C8 DUP5 PUSH2 0x51EE JUMP JUMPDEST PUSH2 0x51C9 JUMP JUMPDEST SWAP1 POP DUP1 DUP4 DUP3 MSTORE PUSH1 0x20 DUP3 ADD SWAP1 POP DUP3 DUP6 PUSH1 0x20 DUP7 MUL DUP3 ADD GT ISZERO PUSH2 0x40EC JUMPI PUSH1 0x0 DUP1 REVERT JUMPDEST PUSH1 0x0 JUMPDEST DUP6 DUP2 LT ISZERO PUSH2 0x411C JUMPI DUP2 PUSH2 0x4102 DUP9 DUP3 PUSH2 0x42D3 JUMP JUMPDEST DUP5 MSTORE PUSH1 0x20 DUP5 ADD SWAP4 POP PUSH1 0x20 DUP4 ADD SWAP3 POP POP PUSH1 0x1 DUP2 ADD SWAP1 POP PUSH2 0x40EF JUMP JUMPDEST POP POP POP SWAP4 SWAP3 POP POP POP JUMP JUMPDEST PUSH1 0x0 PUSH2 0x4139 PUSH2 0x4134 DUP5 PUSH2 0x521A JUMP JUMPDEST PUSH2 0x51C9 JUMP JUMPDEST SWAP1 POP DUP3 DUP2 MSTORE PUSH1 0x20 DUP2 ADD DUP5 DUP5 DUP5 ADD GT ISZERO PUSH2 0x4151 JUMPI PUSH1 0x0 DUP1 REVERT JUMPDEST PUSH2 0x415C DUP5 DUP3 DUP6 PUSH2 0x5468 JUMP JUMPDEST POP SWAP4 SWAP3 POP POP POP JUMP JUMPDEST PUSH1 0x0 PUSH2 0x4177 PUSH2 0x4172 DUP5 PUSH2 0x524B JUMP JUMPDEST PUSH2 0x51C9 JUMP JUMPDEST SWAP1 POP DUP3 DUP2 MSTORE PUSH1 0x20 DUP2 ADD DUP5 DUP5 DUP5 ADD GT ISZERO PUSH2 0x418F JUMPI PUSH1 0x0 DUP1 REVERT JUMPDEST PUSH2 0x419A DUP5 DUP3 DUP6 PUSH2 0x5468 JUMP JUMPDEST POP SWAP4 SWAP3 POP POP POP JUMP JUMPDEST PUSH1 0x0 DUP2 CALLDATALOAD SWAP1 POP PUSH2 0x41B1 DUP2 PUSH2 0x5F10 JUMP JUMPDEST SWAP3 SWAP2 POP POP JUMP JUMPDEST PUSH1 0x0 DUP2 MLOAD SWAP1 POP PUSH2 0x41C6 DUP2 PUSH2 0x5F10 JUMP JUMPDEST SWAP3 SWAP2 POP POP JUMP JUMPDEST PUSH1 0x0 DUP1 DUP4 PUSH1 0x1F DUP5 ADD SLT PUSH2 0x41DE JUMPI PUSH1 0x0 DUP1 REVERT JUMPDEST DUP3 CALLDATALOAD SWAP1 POP PUSH8 0xFFFFFFFFFFFFFFFF DUP2 GT ISZERO PUSH2 0x41F7 JUMPI PUSH1 0x0 DUP1 REVERT JUMPDEST PUSH1 0x20 DUP4 ADD SWAP2 POP DUP4 PUSH1 0x20 DUP3 MUL DUP4 ADD GT ISZERO PUSH2 0x420F JUMPI PUSH1 0x0 DUP1 REVERT JUMPDEST SWAP3 POP SWAP3 SWAP1 POP JUMP JUMPDEST PUSH1 0x0 DUP3 PUSH1 0x1F DUP4 ADD SLT PUSH2 0x4227 JUMPI PUSH1 0x0 DUP1 REVERT JUMPDEST DUP2 CALLDATALOAD PUSH2 0x4237 DUP5 DUP3 PUSH1 0x20 DUP7 ADD PUSH2 0x40BA JUMP JUMPDEST SWAP2 POP POP SWAP3 SWAP2 POP POP JUMP JUMPDEST PUSH1 0x0 DUP2 CALLDATALOAD SWAP1 POP PUSH2 0x424F DUP2 PUSH2 0x5F27 JUMP JUMPDEST SWAP3 SWAP2 POP POP JUMP JUMPDEST PUSH1 0x0 DUP2 CALLDATALOAD SWAP1 POP PUSH2 0x4264 DUP2 PUSH2 0x5F3E JUMP JUMPDEST SWAP3 SWAP2 POP POP JUMP JUMPDEST PUSH1 0x0 DUP2 MLOAD SWAP1 POP PUSH2 0x4279 DUP2 PUSH2 0x5F3E JUMP JUMPDEST SWAP3 SWAP2 POP POP JUMP JUMPDEST PUSH1 0x0 DUP3 PUSH1 0x1F DUP4 ADD SLT PUSH2 0x4290 JUMPI PUSH1 0x0 DUP1 REVERT JUMPDEST DUP2 CALLDATALOAD PUSH2 0x42A0 DUP5 DUP3 PUSH1 0x20 DUP7 ADD PUSH2 0x4126 JUMP JUMPDEST SWAP2 POP POP SWAP3 SWAP2 POP POP JUMP JUMPDEST PUSH1 0x0 DUP3 PUSH1 0x1F DUP4 ADD SLT PUSH2 0x42BA JUMPI PUSH1 0x0 DUP1 REVERT JUMPDEST DUP2 CALLDATALOAD PUSH2 0x42CA DUP5 DUP3 PUSH1 0x20 DUP7 ADD PUSH2 0x4164 JUMP JUMPDEST SWAP2 POP POP SWAP3 SWAP2 POP POP JUMP JUMPDEST PUSH1 0x0 DUP2 CALLDATALOAD SWAP1 POP PUSH2 0x42E2 DUP2 PUSH2 0x5F55 JUMP JUMPDEST SWAP3 SWAP2 POP POP JUMP JUMPDEST PUSH1 0x0 PUSH1 0x20 DUP3 DUP5 SUB SLT ISZERO PUSH2 0x42FA JUMPI PUSH1 0x0 DUP1 REVERT JUMPDEST PUSH1 0x0 PUSH2 0x4308 DUP5 DUP3 DUP6 ADD PUSH2 0x41A2 JUMP JUMPDEST SWAP2 POP POP SWAP3 SWAP2 POP POP JUMP JUMPDEST PUSH1 0x0 PUSH1 0x20 DUP3 DUP5 SUB SLT ISZERO PUSH2 0x4323 JUMPI PUSH1 0x0 DUP1 REVERT JUMPDEST PUSH1 0x0 PUSH2 0x4331 DUP5 DUP3 DUP6 ADD PUSH2 0x41B7 JUMP JUMPDEST SWAP2 POP POP SWAP3 SWAP2 POP POP JUMP JUMPDEST PUSH1 0x0 DUP1 PUSH1 0x40 DUP4 DUP6 SUB SLT ISZERO PUSH2 0x434D JUMPI PUSH1 0x0 DUP1 REVERT JUMPDEST PUSH1 0x0 PUSH2 0x435B DUP6 DUP3 DUP7 ADD PUSH2 0x41A2 JUMP JUMPDEST SWAP3 POP POP PUSH1 0x20 PUSH2 0x436C DUP6 DUP3 DUP7 ADD PUSH2 0x41A2 JUMP JUMPDEST SWAP2 POP POP SWAP3 POP SWAP3 SWAP1 POP JUMP JUMPDEST PUSH1 0x0 DUP1 PUSH1 0x0 PUSH1 0x60 DUP5 DUP7 SUB SLT ISZERO PUSH2 0x438B JUMPI PUSH1 0x0 DUP1 REVERT JUMPDEST PUSH1 0x0 PUSH2 0x4399 DUP7 DUP3 DUP8 ADD PUSH2 0x41A2 JUMP JUMPDEST SWAP4 POP POP PUSH1 0x20 PUSH2 0x43AA DUP7 DUP3 DUP8 ADD PUSH2 0x41A2 JUMP JUMPDEST SWAP3 POP POP PUSH1 0x40 PUSH2 0x43BB DUP7 DUP3 DUP8 ADD PUSH2 0x42D3 JUMP JUMPDEST SWAP2 POP POP SWAP3 POP SWAP3 POP SWAP3 JUMP JUMPDEST PUSH1 0x0 DUP1 PUSH1 0x0 DUP1 PUSH1 0x80 DUP6 DUP8 SUB SLT ISZERO PUSH2 0x43DB JUMPI PUSH1 0x0 DUP1 REVERT JUMPDEST PUSH1 0x0 PUSH2 0x43E9 DUP8 DUP3 DUP9 ADD PUSH2 0x41A2 JUMP JUMPDEST SWAP5 POP POP PUSH1 0x20 PUSH2 0x43FA DUP8 DUP3 DUP9 ADD PUSH2 0x41A2 JUMP JUMPDEST SWAP4 POP POP PUSH1 0x40 PUSH2 0x440B DUP8 DUP3 DUP9 ADD PUSH2 0x42D3 JUMP JUMPDEST SWAP3 POP POP PUSH1 0x60 DUP6 ADD CALLDATALOAD PUSH8 0xFFFFFFFFFFFFFFFF DUP2 GT ISZERO PUSH2 0x4428 JUMPI PUSH1 0x0 DUP1 REVERT JUMPDEST PUSH2 0x4434 DUP8 DUP3 DUP9 ADD PUSH2 0x427F JUMP JUMPDEST SWAP2 POP POP SWAP3 SWAP6 SWAP2 SWAP5 POP SWAP3 POP JUMP JUMPDEST PUSH1 0x0 DUP1 PUSH1 0x40 DUP4 DUP6 SUB SLT ISZERO PUSH2 0x4453 JUMPI PUSH1 0x0 DUP1 REVERT JUMPDEST PUSH1 0x0 PUSH2 0x4461 DUP6 DUP3 DUP7 ADD PUSH2 0x41A2 JUMP JUMPDEST SWAP3 POP POP PUSH1 0x20 PUSH2 0x4472 DUP6 DUP3 DUP7 ADD PUSH2 0x4240 JUMP JUMPDEST SWAP2 POP POP SWAP3 POP SWAP3 SWAP1 POP JUMP JUMPDEST PUSH1 0x0 DUP1 PUSH1 0x40 DUP4 DUP6 SUB SLT ISZERO PUSH2 0x448F JUMPI PUSH1 0x0 DUP1 REVERT JUMPDEST PUSH1 0x0 PUSH2 0x449D DUP6 DUP3 DUP7 ADD PUSH2 0x41A2 JUMP JUMPDEST SWAP3 POP POP PUSH1 0x20 PUSH2 0x44AE DUP6 DUP3 DUP7 ADD PUSH2 0x42D3 JUMP JUMPDEST SWAP2 POP POP SWAP3 POP SWAP3 SWAP1 POP JUMP JUMPDEST PUSH1 0x0 DUP1 PUSH1 0x20 DUP4 DUP6 SUB SLT ISZERO PUSH2 0x44CB JUMPI PUSH1 0x0 DUP1 REVERT JUMPDEST PUSH1 0x0 DUP4 ADD CALLDATALOAD PUSH8 0xFFFFFFFFFFFFFFFF DUP2 GT ISZERO PUSH2 0x44E5 JUMPI PUSH1 0x0 DUP1 REVERT JUMPDEST PUSH2 0x44F1 DUP6 DUP3 DUP7 ADD PUSH2 0x41CC JUMP JUMPDEST SWAP3 POP SWAP3 POP POP SWAP3 POP SWAP3 SWAP1 POP JUMP JUMPDEST PUSH1 0x0 PUSH1 0x20 DUP3 DUP5 SUB SLT ISZERO PUSH2 0x450F JUMPI PUSH1 0x0 DUP1 REVERT JUMPDEST PUSH1 0x0 DUP3 ADD CALLDATALOAD PUSH8 0xFFFFFFFFFFFFFFFF DUP2 GT ISZERO PUSH2 0x4529 JUMPI PUSH1 0x0 DUP1 REVERT JUMPDEST PUSH2 0x4535 DUP5 DUP3 DUP6 ADD PUSH2 0x4216 JUMP JUMPDEST SWAP2 POP POP SWAP3 SWAP2 POP POP JUMP JUMPDEST PUSH1 0x0 PUSH1 0x20 DUP3 DUP5 SUB SLT ISZERO PUSH2 0x4550 JUMPI PUSH1 0x0 DUP1 REVERT JUMPDEST PUSH1 0x0 PUSH2 0x455E DUP5 DUP3 DUP6 ADD PUSH2 0x4255 JUMP JUMPDEST SWAP2 POP POP SWAP3 SWAP2 POP POP JUMP JUMPDEST PUSH1 0x0 PUSH1 0x20 DUP3 DUP5 SUB SLT ISZERO PUSH2 0x4579 JUMPI PUSH1 0x0 DUP1 REVERT JUMPDEST PUSH1 0x0 PUSH2 0x4587 DUP5 DUP3 DUP6 ADD PUSH2 0x426A JUMP JUMPDEST SWAP2 POP POP SWAP3 SWAP2 POP POP JUMP JUMPDEST PUSH1 0x0 PUSH1 0x20 DUP3 DUP5 SUB SLT ISZERO PUSH2 0x45A2 JUMPI PUSH1 0x0 DUP1 REVERT JUMPDEST PUSH1 0x0 DUP3 ADD CALLDATALOAD PUSH8 0xFFFFFFFFFFFFFFFF DUP2 GT ISZERO PUSH2 0x45BC JUMPI PUSH1 0x0 DUP1 REVERT JUMPDEST PUSH2 0x45C8 DUP5 DUP3 DUP6 ADD PUSH2 0x42A9 JUMP JUMPDEST SWAP2 POP POP SWAP3 SWAP2 POP POP JUMP JUMPDEST PUSH1 0x0 PUSH1 0x20 DUP3 DUP5 SUB SLT ISZERO PUSH2 0x45E3 JUMPI PUSH1 0x0 DUP1 REVERT JUMPDEST PUSH1 0x0 PUSH2 0x45F1 DUP5 DUP3 DUP6 ADD PUSH2 0x42D3 JUMP JUMPDEST SWAP2 POP POP SWAP3 SWAP2 POP POP JUMP JUMPDEST PUSH1 0x0 DUP1 PUSH1 0x40 DUP4 DUP6 SUB SLT ISZERO PUSH2 0x460D JUMPI PUSH1 0x0 DUP1 REVERT JUMPDEST PUSH1 0x0 PUSH2 0x461B DUP6 DUP3 DUP7 ADD PUSH2 0x42D3 JUMP JUMPDEST SWAP3 POP POP PUSH1 0x20 PUSH2 0x462C DUP6 DUP3 DUP7 ADD PUSH2 0x42D3 JUMP JUMPDEST SWAP2 POP POP SWAP3 POP SWAP3 SWAP1 POP JUMP JUMPDEST PUSH2 0x463F DUP2 PUSH2 0x53F4 JUMP JUMPDEST DUP3 MSTORE POP POP JUMP JUMPDEST PUSH2 0x464E DUP2 PUSH2 0x5406 JUMP JUMPDEST DUP3 MSTORE POP POP JUMP JUMPDEST PUSH1 0x0 PUSH2 0x465F DUP3 PUSH2 0x5291 JUMP JUMPDEST PUSH2 0x4669 DUP2 DUP6 PUSH2 0x52A7 JUMP JUMPDEST SWAP4 POP PUSH2 0x4679 DUP2 DUP6 PUSH1 0x20 DUP7 ADD PUSH2 0x5477 JUMP JUMPDEST PUSH2 0x4682 DUP2 PUSH2 0x5643 JUMP JUMPDEST DUP5 ADD SWAP2 POP POP SWAP3 SWAP2 POP POP JUMP JUMPDEST PUSH1 0x0 PUSH2 0x4698 DUP3 PUSH2 0x529C JUMP JUMPDEST PUSH2 0x46A2 DUP2 DUP6 PUSH2 0x52C3 JUMP JUMPDEST SWAP4 POP PUSH2 0x46B2 DUP2 DUP6 PUSH1 0x20 DUP7 ADD PUSH2 0x5477 JUMP JUMPDEST PUSH2 0x46BB DUP2 PUSH2 0x5643 JUMP JUMPDEST DUP5 ADD SWAP2 POP POP SWAP3 SWAP2 POP POP JUMP JUMPDEST PUSH1 0x0 PUSH2 0x46D1 DUP3 PUSH2 0x529C JUMP JUMPDEST PUSH2 0x46DB DUP2 DUP6 PUSH2 0x52D4 JUMP JUMPDEST SWAP4 POP PUSH2 0x46EB DUP2 DUP6 PUSH1 0x20 DUP7 ADD PUSH2 0x5477 JUMP JUMPDEST DUP1 DUP5 ADD SWAP2 POP POP SWAP3 SWAP2 POP POP JUMP JUMPDEST PUSH1 0x0 DUP2 SLOAD PUSH2 0x4704 DUP2 PUSH2 0x54AA JUMP JUMPDEST PUSH2 0x470E DUP2 DUP7 PUSH2 0x52D4 JUMP JUMPDEST SWAP5 POP PUSH1 0x1 DUP3 AND PUSH1 0x0 DUP2 EQ PUSH2 0x4729 JUMPI PUSH1 0x1 DUP2 EQ PUSH2 0x473A JUMPI PUSH2 0x476D JUMP JUMPDEST PUSH1 0xFF NOT DUP4 AND DUP7 MSTORE DUP2 DUP7 ADD SWAP4 POP PUSH2 0x476D JUMP JUMPDEST PUSH2 0x4743 DUP6 PUSH2 0x527C JUMP JUMPDEST PUSH1 0x0 JUMPDEST DUP4 DUP2 LT ISZERO PUSH2 0x4765 JUMPI DUP2 SLOAD DUP2 DUP10 ADD MSTORE PUSH1 0x1 DUP3 ADD SWAP2 POP PUSH1 0x20 DUP2 ADD SWAP1 POP PUSH2 0x4746 JUMP JUMPDEST DUP4 DUP9 ADD SWAP6 POP POP POP JUMPDEST POP POP POP SWAP3 SWAP2 POP POP JUMP JUMPDEST PUSH1 0x0 PUSH2 0x4783 PUSH1 0x32 DUP4 PUSH2 0x52C3 JUMP JUMPDEST SWAP2 POP PUSH2 0x478E DUP3 PUSH2 0x5654 JUMP JUMPDEST PUSH1 0x40 DUP3 ADD SWAP1 POP SWAP2 SWAP1 POP JUMP JUMPDEST PUSH1 0x0 PUSH2 0x47A6 PUSH1 0x26 DUP4 PUSH2 0x52C3 JUMP JUMPDEST SWAP2 POP PUSH2 0x47B1 DUP3 PUSH2 0x56A3 JUMP JUMPDEST PUSH1 0x40 DUP3 ADD SWAP1 POP SWAP2 SWAP1 POP JUMP JUMPDEST PUSH1 0x0 PUSH2 0x47C9 PUSH1 0x2D DUP4 PUSH2 0x52C3 JUMP JUMPDEST SWAP2 POP PUSH2 0x47D4 DUP3 PUSH2 0x56F2 JUMP JUMPDEST PUSH1 0x40 DUP3 ADD SWAP1 POP SWAP2 SWAP1 POP JUMP JUMPDEST PUSH1 0x0 PUSH2 0x47EC PUSH1 0x1C DUP4 PUSH2 0x52C3 JUMP JUMPDEST SWAP2 POP PUSH2 0x47F7 DUP3 PUSH2 0x5741 JUMP JUMPDEST PUSH1 0x20 DUP3 ADD SWAP1 POP SWAP2 SWAP1 POP JUMP JUMPDEST PUSH1 0x0 PUSH2 0x480F PUSH1 0x1E DUP4 PUSH2 0x52C3 JUMP JUMPDEST SWAP2 POP PUSH2 0x481A DUP3 PUSH2 0x576A JUMP JUMPDEST PUSH1 0x20 DUP3 ADD SWAP1 POP SWAP2 SWAP1 POP JUMP JUMPDEST PUSH1 0x0 PUSH2 0x4832 PUSH1 0x24 DUP4 PUSH2 0x52C3 JUMP JUMPDEST SWAP2 POP PUSH2 0x483D DUP3 PUSH2 0x5793 JUMP JUMPDEST PUSH1 0x40 DUP3 ADD SWAP1 POP SWAP2 SWAP1 POP JUMP JUMPDEST PUSH1 0x0 PUSH2 0x4855 PUSH1 0x19 DUP4 PUSH2 0x52C3 JUMP JUMPDEST SWAP2 POP PUSH2 0x4860 DUP3 PUSH2 0x57E2 JUMP JUMPDEST PUSH1 0x20 DUP3 ADD SWAP1 POP SWAP2 SWAP1 POP JUMP JUMPDEST PUSH1 0x0 PUSH2 0x4878 PUSH1 0x2C DUP4 PUSH2 0x52C3 JUMP JUMPDEST SWAP2 POP PUSH2 0x4883 DUP3 PUSH2 0x580B JUMP JUMPDEST PUSH1 0x40 DUP3 ADD SWAP1 POP SWAP2 SWAP1 POP JUMP JUMPDEST PUSH1 0x0 PUSH2 0x489B PUSH1 0x2E DUP4 PUSH2 0x52C3 JUMP JUMPDEST SWAP2 POP PUSH2 0x48A6 DUP3 PUSH2 0x585A JUMP JUMPDEST PUSH1 0x40 DUP3 ADD SWAP1 POP SWAP2 SWAP1 POP JUMP JUMPDEST PUSH1 0x0 PUSH2 0x48BE PUSH1 0xE DUP4 PUSH2 0x52C3 JUMP JUMPDEST SWAP2 POP PUSH2 0x48C9 DUP3 PUSH2 0x58A9 JUMP JUMPDEST PUSH1 0x20 DUP3 ADD SWAP1 POP SWAP2 SWAP1 POP JUMP JUMPDEST PUSH1 0x0 PUSH2 0x48E1 PUSH1 0xE DUP4 PUSH2 0x52C3 JUMP JUMPDEST SWAP2 POP PUSH2 0x48EC DUP3 PUSH2 0x58D2 JUMP JUMPDEST PUSH1 0x20 DUP3 ADD SWAP1 POP SWAP2 SWAP1 POP JUMP JUMPDEST PUSH1 0x0 PUSH2 0x4904 PUSH1 0x47 DUP4 PUSH2 0x52C3 JUMP JUMPDEST SWAP2 POP PUSH2 0x490F DUP3 PUSH2 0x58FB JUMP JUMPDEST PUSH1 0x60 DUP3 ADD SWAP1 POP SWAP2 SWAP1 POP JUMP JUMPDEST PUSH1 0x0 PUSH2 0x4927 PUSH1 0x38 DUP4 PUSH2 0x52C3 JUMP JUMPDEST SWAP2 POP PUSH2 0x4932 DUP3 PUSH2 0x5970 JUMP JUMPDEST PUSH1 0x40 DUP3 ADD SWAP1 POP SWAP2 SWAP1 POP JUMP JUMPDEST PUSH1 0x0 PUSH2 0x494A PUSH1 0xE DUP4 PUSH2 0x52C3 JUMP JUMPDEST SWAP2 POP PUSH2 0x4955 DUP3 PUSH2 0x59BF JUMP JUMPDEST PUSH1 0x20 DUP3 ADD SWAP1 POP SWAP2 SWAP1 POP JUMP JUMPDEST PUSH1 0x0 PUSH2 0x496D PUSH1 0x2A DUP4 PUSH2 0x52C3 JUMP JUMPDEST SWAP2 POP PUSH2 0x4978 DUP3 PUSH2 0x59E8 JUMP JUMPDEST PUSH1 0x40 DUP3 ADD SWAP1 POP SWAP2 SWAP1 POP JUMP JUMPDEST PUSH1 0x0 PUSH2 0x4990 PUSH1 0x29 DUP4 PUSH2 0x52C3 JUMP JUMPDEST SWAP2 POP PUSH2 0x499B DUP3 PUSH2 0x5A37 JUMP JUMPDEST PUSH1 0x40 DUP3 ADD SWAP1 POP SWAP2 SWAP1 POP JUMP JUMPDEST PUSH1 0x0 PUSH2 0x49B3 PUSH1 0x34 DUP4 PUSH2 0x52C3 JUMP JUMPDEST SWAP2 POP PUSH2 0x49BE DUP3 PUSH2 0x5A86 JUMP JUMPDEST PUSH1 0x40 DUP3 ADD SWAP1 POP SWAP2 SWAP1 POP JUMP JUMPDEST PUSH1 0x0 PUSH2 0x49D6 PUSH1 0x20 DUP4 PUSH2 0x52C3 JUMP JUMPDEST SWAP2 POP PUSH2 0x49E1 DUP3 PUSH2 0x5AD5 JUMP JUMPDEST PUSH1 0x20 DUP3 ADD SWAP1 POP SWAP2 SWAP1 POP JUMP JUMPDEST PUSH1 0x0 PUSH2 0x49F9 PUSH1 0x4 DUP4 PUSH2 0x52C3 JUMP JUMPDEST SWAP2 POP PUSH2 0x4A04 DUP3 PUSH2 0x5AFE JUMP JUMPDEST PUSH1 0x20 DUP3 ADD SWAP1 POP SWAP2 SWAP1 POP JUMP JUMPDEST PUSH1 0x0 PUSH2 0x4A1C PUSH1 0x2C DUP4 PUSH2 0x52C3 JUMP JUMPDEST SWAP2 POP PUSH2 0x4A27 DUP3 PUSH2 0x5B27 JUMP JUMPDEST PUSH1 0x40 DUP3 ADD SWAP1 POP SWAP2 SWAP1 POP JUMP JUMPDEST PUSH1 0x0 PUSH2 0x4A3F PUSH1 0x11 DUP4 PUSH2 0x52C3 JUMP JUMPDEST SWAP2 POP PUSH2 0x4A4A DUP3 PUSH2 0x5B76 JUMP JUMPDEST PUSH1 0x20 DUP3 ADD SWAP1 POP SWAP2 SWAP1 POP JUMP JUMPDEST PUSH1 0x0 PUSH2 0x4A62 PUSH1 0x20 DUP4 PUSH2 0x52C3 JUMP JUMPDEST SWAP2 POP PUSH2 0x4A6D DUP3 PUSH2 0x5B9F JUMP JUMPDEST PUSH1 0x20 DUP3 ADD SWAP1 POP SWAP2 SWAP1 POP JUMP JUMPDEST PUSH1 0x0 PUSH2 0x4A85 PUSH1 0x1C DUP4 PUSH2 0x52C3 JUMP JUMPDEST SWAP2 POP PUSH2 0x4A90 DUP3 PUSH2 0x5BC8 JUMP JUMPDEST PUSH1 0x20 DUP3 ADD SWAP1 POP SWAP2 SWAP1 POP JUMP JUMPDEST PUSH1 0x0 PUSH2 0x4AA8 PUSH1 0x24 DUP4 PUSH2 0x52C3 JUMP JUMPDEST SWAP2 POP PUSH2 0x4AB3 DUP3 PUSH2 0x5BF1 JUMP JUMPDEST PUSH1 0x40 DUP3 ADD SWAP1 POP SWAP2 SWAP1 POP JUMP JUMPDEST PUSH1 0x0 PUSH2 0x4ACB PUSH1 0x29 DUP4 PUSH2 0x52C3 JUMP JUMPDEST SWAP2 POP PUSH2 0x4AD6 DUP3 PUSH2 0x5C40 JUMP JUMPDEST PUSH1 0x40 DUP3 ADD SWAP1 POP SWAP2 SWAP1 POP JUMP JUMPDEST PUSH1 0x0 PUSH2 0x4AEE PUSH1 0x13 DUP4 PUSH2 0x52C3 JUMP JUMPDEST SWAP2 POP PUSH2 0x4AF9 DUP3 PUSH2 0x5C8F JUMP JUMPDEST PUSH1 0x20 DUP3 ADD SWAP1 POP SWAP2 SWAP1 POP JUMP JUMPDEST PUSH1 0x0 PUSH2 0x4B11 PUSH1 0x21 DUP4 PUSH2 0x52C3 JUMP JUMPDEST SWAP2 POP PUSH2 0x4B1C DUP3 PUSH2 0x5CB8 JUMP JUMPDEST PUSH1 0x40 DUP3 ADD SWAP1 POP SWAP2 SWAP1 POP JUMP JUMPDEST PUSH1 0x0 PUSH2 0x4B34 PUSH1 0x0 DUP4 PUSH2 0x52B8 JUMP JUMPDEST SWAP2 POP PUSH2 0x4B3F DUP3 PUSH2 0x5D07 JUMP JUMPDEST PUSH1 0x0 DUP3 ADD SWAP1 POP SWAP2 SWAP1 POP JUMP JUMPDEST PUSH1 0x0 PUSH2 0x4B57 PUSH1 0xE DUP4 PUSH2 0x52C3 JUMP JUMPDEST SWAP2 POP PUSH2 0x4B62 DUP3 PUSH2 0x5D0A JUMP JUMPDEST PUSH1 0x20 DUP3 ADD SWAP1 POP SWAP2 SWAP1 POP JUMP JUMPDEST PUSH1 0x0 PUSH2 0x4B7A PUSH1 0x2C DUP4 PUSH2 0x52C3 JUMP JUMPDEST SWAP2 POP PUSH2 0x4B85 DUP3 PUSH2 0x5D33 JUMP JUMPDEST PUSH1 0x40 DUP3 ADD SWAP1 POP SWAP2 SWAP1 POP JUMP JUMPDEST PUSH1 0x0 PUSH2 0x4B9D PUSH1 0x31 DUP4 PUSH2 0x52C3 JUMP JUMPDEST SWAP2 POP PUSH2 0x4BA8 DUP3 PUSH2 0x5D82 JUMP JUMPDEST PUSH1 0x40 DUP3 ADD SWAP1 POP SWAP2 SWAP1 POP JUMP JUMPDEST PUSH1 0x0 PUSH2 0x4BC0 PUSH1 0x13 DUP4 PUSH2 0x52C3 JUMP JUMPDEST SWAP2 POP PUSH2 0x4BCB DUP3 PUSH2 0x5DD1 JUMP JUMPDEST PUSH1 0x20 DUP3 ADD SWAP1 POP SWAP2 SWAP1 POP JUMP JUMPDEST PUSH1 0x0 PUSH2 0x4BE3 PUSH1 0x24 DUP4 PUSH2 0x52C3 JUMP JUMPDEST SWAP2 POP PUSH2 0x4BEE DUP3 PUSH2 0x5DFA JUMP JUMPDEST PUSH1 0x40 DUP3 ADD SWAP1 POP SWAP2 SWAP1 POP JUMP JUMPDEST PUSH1 0x0 PUSH2 0x4C06 PUSH1 0x1A DUP4 PUSH2 0x52C3 JUMP JUMPDEST SWAP2 POP PUSH2 0x4C11 DUP3 PUSH2 0x5E49 JUMP JUMPDEST PUSH1 0x20 DUP3 ADD SWAP1 POP SWAP2 SWAP1 POP JUMP JUMPDEST PUSH1 0x0 PUSH2 0x4C29 PUSH1 0x26 DUP4 PUSH2 0x52C3 JUMP JUMPDEST SWAP2 POP PUSH2 0x4C34 DUP3 PUSH2 0x5E72 JUMP JUMPDEST PUSH1 0x40 DUP3 ADD SWAP1 POP SWAP2 SWAP1 POP JUMP JUMPDEST PUSH1 0x0 PUSH2 0x4C4C PUSH1 0x28 DUP4 PUSH2 0x52C3 JUMP JUMPDEST SWAP2 POP PUSH2 0x4C57 DUP3 PUSH2 0x5EC1 JUMP JUMPDEST PUSH1 0x40 DUP3 ADD SWAP1 POP SWAP2 SWAP1 POP JUMP JUMPDEST PUSH2 0x4C6B DUP2 PUSH2 0x545E JUMP JUMPDEST DUP3 MSTORE POP POP JUMP JUMPDEST PUSH1 0x0 PUSH2 0x4C7D DUP3 DUP6 PUSH2 0x46F7 JUMP JUMPDEST SWAP2 POP PUSH2 0x4C89 DUP3 DUP5 PUSH2 0x46C6 JUMP JUMPDEST SWAP2 POP DUP2 SWAP1 POP SWAP4 SWAP3 POP POP POP JUMP JUMPDEST PUSH1 0x0 PUSH2 0x4CA0 DUP3 PUSH2 0x4B27 JUMP JUMPDEST SWAP2 POP DUP2 SWAP1 POP SWAP2 SWAP1 POP JUMP JUMPDEST PUSH1 0x0 PUSH1 0x20 DUP3 ADD SWAP1 POP PUSH2 0x4CBF PUSH1 0x0 DUP4 ADD DUP5 PUSH2 0x4636 JUMP JUMPDEST SWAP3 SWAP2 POP POP JUMP JUMPDEST PUSH1 0x0 PUSH1 0x80 DUP3 ADD SWAP1 POP PUSH2 0x4CDA PUSH1 0x0 DUP4 ADD DUP8 PUSH2 0x4636 JUMP JUMPDEST PUSH2 0x4CE7 PUSH1 0x20 DUP4 ADD DUP7 PUSH2 0x4636 JUMP JUMPDEST PUSH2 0x4CF4 PUSH1 0x40 DUP4 ADD DUP6 PUSH2 0x4C62 JUMP JUMPDEST DUP2 DUP2 SUB PUSH1 0x60 DUP4 ADD MSTORE PUSH2 0x4D06 DUP2 DUP5 PUSH2 0x4654 JUMP JUMPDEST SWAP1 POP SWAP6 SWAP5 POP POP POP POP POP JUMP JUMPDEST PUSH1 0x0 PUSH1 0x20 DUP3 ADD SWAP1 POP PUSH2 0x4D26 PUSH1 0x0 DUP4 ADD DUP5 PUSH2 0x4645 JUMP JUMPDEST SWAP3 SWAP2 POP POP JUMP JUMPDEST PUSH1 0x0 PUSH1 0x20 DUP3 ADD SWAP1 POP DUP2 DUP2 SUB PUSH1 0x0 DUP4 ADD MSTORE PUSH2 0x4D46 DUP2 DUP5 PUSH2 0x468D JUMP JUMPDEST SWAP1 POP SWAP3 SWAP2 POP POP JUMP JUMPDEST PUSH1 0x0 PUSH1 0x20 DUP3 ADD SWAP1 POP DUP2 DUP2 SUB PUSH1 0x0 DUP4 ADD MSTORE PUSH2 0x4D67 DUP2 PUSH2 0x4776 JUMP JUMPDEST SWAP1 POP SWAP2 SWAP1 POP JUMP JUMPDEST PUSH1 0x0 PUSH1 0x20 DUP3 ADD SWAP1 POP DUP2 DUP2 SUB PUSH1 0x0 DUP4 ADD MSTORE PUSH2 0x4D87 DUP2 PUSH2 0x4799 JUMP JUMPDEST SWAP1 POP SWAP2 SWAP1 POP JUMP JUMPDEST PUSH1 0x0 PUSH1 0x20 DUP3 ADD SWAP1 POP DUP2 DUP2 SUB PUSH1 0x0 DUP4 ADD MSTORE PUSH2 0x4DA7 DUP2 PUSH2 0x47BC JUMP JUMPDEST SWAP1 POP SWAP2 SWAP1 POP JUMP JUMPDEST PUSH1 0x0 PUSH1 0x20 DUP3 ADD SWAP1 POP DUP2 DUP2 SUB PUSH1 0x0 DUP4 ADD MSTORE PUSH2 0x4DC7 DUP2 PUSH2 0x47DF JUMP JUMPDEST SWAP1 POP SWAP2 SWAP1 POP JUMP JUMPDEST PUSH1 0x0 PUSH1 0x20 DUP3 ADD SWAP1 POP DUP2 DUP2 SUB PUSH1 0x0 DUP4 ADD MSTORE PUSH2 0x4DE7 DUP2 PUSH2 0x4802 JUMP JUMPDEST SWAP1 POP SWAP2 SWAP1 POP JUMP JUMPDEST PUSH1 0x0 PUSH1 0x20 DUP3 ADD SWAP1 POP DUP2 DUP2 SUB PUSH1 0x0 DUP4 ADD MSTORE PUSH2 0x4E07 DUP2 PUSH2 0x4825 JUMP JUMPDEST SWAP1 POP SWAP2 SWAP1 POP JUMP JUMPDEST PUSH1 0x0 PUSH1 0x20 DUP3 ADD SWAP1 POP DUP2 DUP2 SUB PUSH1 0x0 DUP4 ADD MSTORE PUSH2 0x4E27 DUP2 PUSH2 0x4848 JUMP JUMPDEST SWAP1 POP SWAP2 SWAP1 POP JUMP JUMPDEST PUSH1 0x0 PUSH1 0x20 DUP3 ADD SWAP1 POP DUP2 DUP2 SUB PUSH1 0x0 DUP4 ADD MSTORE PUSH2 0x4E47 DUP2 PUSH2 0x486B JUMP JUMPDEST SWAP1 POP SWAP2 SWAP1 POP JUMP JUMPDEST PUSH1 0x0 PUSH1 0x20 DUP3 ADD SWAP1 POP DUP2 DUP2 SUB PUSH1 0x0 DUP4 ADD MSTORE PUSH2 0x4E67 DUP2 PUSH2 0x488E JUMP JUMPDEST SWAP1 POP SWAP2 SWAP1 POP JUMP JUMPDEST PUSH1 0x0 PUSH1 0x20 DUP3 ADD SWAP1 POP DUP2 DUP2 SUB PUSH1 0x0 DUP4 ADD MSTORE PUSH2 0x4E87 DUP2 PUSH2 0x48B1 JUMP JUMPDEST SWAP1 POP SWAP2 SWAP1 POP JUMP JUMPDEST PUSH1 0x0 PUSH1 0x20 DUP3 ADD SWAP1 POP DUP2 DUP2 SUB PUSH1 0x0 DUP4 ADD MSTORE PUSH2 0x4EA7 DUP2 PUSH2 0x48D4 JUMP JUMPDEST SWAP1 POP SWAP2 SWAP1 POP JUMP JUMPDEST PUSH1 0x0 PUSH1 0x20 DUP3 ADD SWAP1 POP DUP2 DUP2 SUB PUSH1 0x0 DUP4 ADD MSTORE PUSH2 0x4EC7 DUP2 PUSH2 0x48F7 JUMP JUMPDEST SWAP1 POP SWAP2 SWAP1 POP JUMP JUMPDEST PUSH1 0x0 PUSH1 0x20 DUP3 ADD SWAP1 POP DUP2 DUP2 SUB PUSH1 0x0 DUP4 ADD MSTORE PUSH2 0x4EE7 DUP2 PUSH2 0x491A JUMP JUMPDEST SWAP1 POP SWAP2 SWAP1 POP JUMP JUMPDEST PUSH1 0x0 PUSH1 0x20 DUP3 ADD SWAP1 POP DUP2 DUP2 SUB PUSH1 0x0 DUP4 ADD MSTORE PUSH2 0x4F07 DUP2 PUSH2 0x493D JUMP JUMPDEST SWAP1 POP SWAP2 SWAP1 POP JUMP JUMPDEST PUSH1 0x0 PUSH1 0x20 DUP3 ADD SWAP1 POP DUP2 DUP2 SUB PUSH1 0x0 DUP4 ADD MSTORE PUSH2 0x4F27 DUP2 PUSH2 0x4960 JUMP JUMPDEST SWAP1 POP SWAP2 SWAP1 POP JUMP JUMPDEST PUSH1 0x0 PUSH1 0x20 DUP3 ADD SWAP1 POP DUP2 DUP2 SUB PUSH1 0x0 DUP4 ADD MSTORE PUSH2 0x4F47 DUP2 PUSH2 0x4983 JUMP JUMPDEST SWAP1 POP SWAP2 SWAP1 POP JUMP JUMPDEST PUSH1 0x0 PUSH1 0x20 DUP3 ADD SWAP1 POP DUP2 DUP2 SUB PUSH1 0x0 DUP4 ADD MSTORE PUSH2 0x4F67 DUP2 PUSH2 0x49A6 JUMP JUMPDEST SWAP1 POP SWAP2 SWAP1 POP JUMP JUMPDEST PUSH1 0x0 PUSH1 0x20 DUP3 ADD SWAP1 POP DUP2 DUP2 SUB PUSH1 0x0 DUP4 ADD MSTORE PUSH2 0x4F87 DUP2 PUSH2 0x49C9 JUMP JUMPDEST SWAP1 POP SWAP2 SWAP1 POP JUMP JUMPDEST PUSH1 0x0 PUSH1 0x20 DUP3 ADD SWAP1 POP DUP2 DUP2 SUB PUSH1 0x0 DUP4 ADD MSTORE PUSH2 0x4FA7 DUP2 PUSH2 0x49EC JUMP JUMPDEST SWAP1 POP SWAP2 SWAP1 POP JUMP JUMPDEST PUSH1 0x0 PUSH1 0x20 DUP3 ADD SWAP1 POP DUP2 DUP2 SUB PUSH1 0x0 DUP4 ADD MSTORE PUSH2 0x4FC7 DUP2 PUSH2 0x4A0F JUMP JUMPDEST SWAP1 POP SWAP2 SWAP1 POP JUMP JUMPDEST PUSH1 0x0 PUSH1 0x20 DUP3 ADD SWAP1 POP DUP2 DUP2 SUB PUSH1 0x0 DUP4 ADD MSTORE PUSH2 0x4FE7 DUP2 PUSH2 0x4A32 JUMP JUMPDEST SWAP1 POP SWAP2 SWAP1 POP JUMP JUMPDEST PUSH1 0x0 PUSH1 0x20 DUP3 ADD SWAP1 POP DUP2 DUP2 SUB PUSH1 0x0 DUP4 ADD MSTORE PUSH2 0x5007 DUP2 PUSH2 0x4A55 JUMP JUMPDEST SWAP1 POP SWAP2 SWAP1 POP JUMP JUMPDEST PUSH1 0x0 PUSH1 0x20 DUP3 ADD SWAP1 POP DUP2 DUP2 SUB PUSH1 0x0 DUP4 ADD MSTORE PUSH2 0x5027 DUP2 PUSH2 0x4A78 JUMP JUMPDEST SWAP1 POP SWAP2 SWAP1 POP JUMP JUMPDEST PUSH1 0x0 PUSH1 0x20 DUP3 ADD SWAP1 POP DUP2 DUP2 SUB PUSH1 0x0 DUP4 ADD MSTORE PUSH2 0x5047 DUP2 PUSH2 0x4A9B JUMP JUMPDEST SWAP1 POP SWAP2 SWAP1 POP JUMP JUMPDEST PUSH1 0x0 PUSH1 0x20 DUP3 ADD SWAP1 POP DUP2 DUP2 SUB PUSH1 0x0 DUP4 ADD MSTORE PUSH2 0x5067 DUP2 PUSH2 0x4ABE JUMP JUMPDEST SWAP1 POP SWAP2 SWAP1 POP JUMP JUMPDEST PUSH1 0x0 PUSH1 0x20 DUP3 ADD SWAP1 POP DUP2 DUP2 SUB PUSH1 0x0 DUP4 ADD MSTORE PUSH2 0x5087 DUP2 PUSH2 0x4AE1 JUMP JUMPDEST SWAP1 POP SWAP2 SWAP1 POP JUMP JUMPDEST PUSH1 0x0 PUSH1 0x20 DUP3 ADD SWAP1 POP DUP2 DUP2 SUB PUSH1 0x0 DUP4 ADD MSTORE PUSH2 0x50A7 DUP2 PUSH2 0x4B04 JUMP JUMPDEST SWAP1 POP SWAP2 SWAP1 POP JUMP JUMPDEST PUSH1 0x0 PUSH1 0x20 DUP3 ADD SWAP1 POP DUP2 DUP2 SUB PUSH1 0x0 DUP4 ADD MSTORE PUSH2 0x50C7 DUP2 PUSH2 0x4B4A JUMP JUMPDEST SWAP1 POP SWAP2 SWAP1 POP JUMP JUMPDEST PUSH1 0x0 PUSH1 0x20 DUP3 ADD SWAP1 POP DUP2 DUP2 SUB PUSH1 0x0 DUP4 ADD MSTORE PUSH2 0x50E7 DUP2 PUSH2 0x4B6D JUMP JUMPDEST SWAP1 POP SWAP2 SWAP1 POP JUMP JUMPDEST PUSH1 0x0 PUSH1 0x20 DUP3 ADD SWAP1 POP DUP2 DUP2 SUB PUSH1 0x0 DUP4 ADD MSTORE PUSH2 0x5107 DUP2 PUSH2 0x4B90 JUMP JUMPDEST SWAP1 POP SWAP2 SWAP1 POP JUMP JUMPDEST PUSH1 0x0 PUSH1 0x20 DUP3 ADD SWAP1 POP DUP2 DUP2 SUB PUSH1 0x0 DUP4 ADD MSTORE PUSH2 0x5127 DUP2 PUSH2 0x4BB3 JUMP JUMPDEST SWAP1 POP SWAP2 SWAP1 POP JUMP JUMPDEST PUSH1 0x0 PUSH1 0x20 DUP3 ADD SWAP1 POP DUP2 DUP2 SUB PUSH1 0x0 DUP4 ADD MSTORE PUSH2 0x5147 DUP2 PUSH2 0x4BD6 JUMP JUMPDEST SWAP1 POP SWAP2 SWAP1 POP JUMP JUMPDEST PUSH1 0x0 PUSH1 0x20 DUP3 ADD SWAP1 POP DUP2 DUP2 SUB PUSH1 0x0 DUP4 ADD MSTORE PUSH2 0x5167 DUP2 PUSH2 0x4BF9 JUMP JUMPDEST SWAP1 POP SWAP2 SWAP1 POP JUMP JUMPDEST PUSH1 0x0 PUSH1 0x20 DUP3 ADD SWAP1 POP DUP2 DUP2 SUB PUSH1 0x0 DUP4 ADD MSTORE PUSH2 0x5187 DUP2 PUSH2 0x4C1C JUMP JUMPDEST SWAP1 POP SWAP2 SWAP1 POP JUMP JUMPDEST PUSH1 0x0 PUSH1 0x20 DUP3 ADD SWAP1 POP DUP2 DUP2 SUB PUSH1 0x0 DUP4 ADD MSTORE PUSH2 0x51A7 DUP2 PUSH2 0x4C3F JUMP JUMPDEST SWAP1 POP SWAP2 SWAP1 POP JUMP JUMPDEST PUSH1 0x0 PUSH1 0x20 DUP3 ADD SWAP1 POP PUSH2 0x51C3 PUSH1 0x0 DUP4 ADD DUP5 PUSH2 0x4C62 JUMP JUMPDEST SWAP3 SWAP2 POP POP JUMP JUMPDEST PUSH1 0x0 PUSH2 0x51D3 PUSH2 0x51E4 JUMP JUMPDEST SWAP1 POP PUSH2 0x51DF DUP3 DUP3 PUSH2 0x54DC JUMP JUMPDEST SWAP2 SWAP1 POP JUMP JUMPDEST PUSH1 0x0 PUSH1 0x40 MLOAD SWAP1 POP SWAP1 JUMP JUMPDEST PUSH1 0x0 PUSH8 0xFFFFFFFFFFFFFFFF DUP3 GT ISZERO PUSH2 0x5209 JUMPI PUSH2 0x5208 PUSH2 0x5614 JUMP JUMPDEST JUMPDEST PUSH1 0x20 DUP3 MUL SWAP1 POP PUSH1 0x20 DUP2 ADD SWAP1 POP SWAP2 SWAP1 POP JUMP JUMPDEST PUSH1 0x0 PUSH8 0xFFFFFFFFFFFFFFFF DUP3 GT ISZERO PUSH2 0x5235 JUMPI PUSH2 0x5234 PUSH2 0x5614 JUMP JUMPDEST JUMPDEST PUSH2 0x523E DUP3 PUSH2 0x5643 JUMP JUMPDEST SWAP1 POP PUSH1 0x20 DUP2 ADD SWAP1 POP SWAP2 SWAP1 POP JUMP JUMPDEST PUSH1 0x0 PUSH8 0xFFFFFFFFFFFFFFFF DUP3 GT ISZERO PUSH2 0x5266 JUMPI PUSH2 0x5265 PUSH2 0x5614 JUMP JUMPDEST JUMPDEST PUSH2 0x526F DUP3 PUSH2 0x5643 JUMP JUMPDEST SWAP1 POP PUSH1 0x20 DUP2 ADD SWAP1 POP SWAP2 SWAP1 POP JUMP JUMPDEST PUSH1 0x0 DUP2 SWAP1 POP DUP2 PUSH1 0x0 MSTORE PUSH1 0x20 PUSH1 0x0 KECCAK256 SWAP1 POP SWAP2 SWAP1 POP JUMP JUMPDEST PUSH1 0x0 DUP2 MLOAD SWAP1 POP SWAP2 SWAP1 POP JUMP JUMPDEST PUSH1 0x0 DUP2 MLOAD SWAP1 POP SWAP2 SWAP1 POP JUMP JUMPDEST PUSH1 0x0 DUP3 DUP3 MSTORE PUSH1 0x20 DUP3 ADD SWAP1 POP SWAP3 SWAP2 POP POP JUMP JUMPDEST PUSH1 0x0 DUP2 SWAP1 POP SWAP3 SWAP2 POP POP JUMP JUMPDEST PUSH1 0x0 DUP3 DUP3 MSTORE PUSH1 0x20 DUP3 ADD SWAP1 POP SWAP3 SWAP2 POP POP JUMP JUMPDEST PUSH1 0x0 DUP2 SWAP1 POP SWAP3 SWAP2 POP POP JUMP JUMPDEST PUSH1 0x0 PUSH2 0x52EA DUP3 PUSH2 0x545E JUMP JUMPDEST SWAP2 POP PUSH2 0x52F5 DUP4 PUSH2 0x545E JUMP JUMPDEST SWAP3 POP DUP3 PUSH32 0xFFFFFFFFFFFFFFFFFFFFFFFFFFFFFFFFFFFFFFFFFFFFFFFFFFFFFFFFFFFFFFFF SUB DUP3 GT ISZERO PUSH2 0x532A JUMPI PUSH2 0x5329 PUSH2 0x5587 JUMP JUMPDEST JUMPDEST DUP3 DUP3 ADD SWAP1 POP SWAP3 SWAP2 POP POP JUMP JUMPDEST PUSH1 0x0 PUSH2 0x5340 DUP3 PUSH2 0x545E JUMP JUMPDEST SWAP2 POP PUSH2 0x534B DUP4 PUSH2 0x545E JUMP JUMPDEST SWAP3 POP DUP3 PUSH2 0x535B JUMPI PUSH2 0x535A PUSH2 0x55B6 JUMP JUMPDEST JUMPDEST DUP3 DUP3 DIV SWAP1 POP SWAP3 SWAP2 POP POP JUMP JUMPDEST PUSH1 0x0 PUSH2 0x5371 DUP3 PUSH2 0x545E JUMP JUMPDEST SWAP2 POP PUSH2 0x537C DUP4 PUSH2 0x545E JUMP JUMPDEST SWAP3 POP DUP2 PUSH32 0xFFFFFFFFFFFFFFFFFFFFFFFFFFFFFFFFFFFFFFFFFFFFFFFFFFFFFFFFFFFFFFFF DIV DUP4 GT DUP3 ISZERO ISZERO AND ISZERO PUSH2 0x53B5 JUMPI PUSH2 0x53B4 PUSH2 0x5587 JUMP JUMPDEST JUMPDEST DUP3 DUP3 MUL SWAP1 POP SWAP3 SWAP2 POP POP JUMP JUMPDEST PUSH1 0x0 PUSH2 0x53CB DUP3 PUSH2 0x545E JUMP JUMPDEST SWAP2 POP PUSH2 0x53D6 DUP4 PUSH2 0x545E JUMP JUMPDEST SWAP3 POP DUP3 DUP3 LT ISZERO PUSH2 0x53E9 JUMPI PUSH2 0x53E8 PUSH2 0x5587 JUMP JUMPDEST JUMPDEST DUP3 DUP3 SUB SWAP1 POP SWAP3 SWAP2 POP POP JUMP JUMPDEST PUSH1 0x0 PUSH2 0x53FF DUP3 PUSH2 0x543E JUMP JUMPDEST SWAP1 POP SWAP2 SWAP1 POP JUMP JUMPDEST PUSH1 0x0 DUP2 ISZERO ISZERO SWAP1 POP SWAP2 SWAP1 POP JUMP JUMPDEST PUSH1 0x0 PUSH32 0xFFFFFFFF00000000000000000000000000000000000000000000000000000000 DUP3 AND SWAP1 POP SWAP2 SWAP1 POP JUMP JUMPDEST PUSH1 0x0 PUSH20 0xFFFFFFFFFFFFFFFFFFFFFFFFFFFFFFFFFFFFFFFF DUP3 AND SWAP1 POP SWAP2 SWAP1 POP JUMP JUMPDEST PUSH1 0x0 DUP2 SWAP1 POP SWAP2 SWAP1 POP JUMP JUMPDEST DUP3 DUP2 DUP4 CALLDATACOPY PUSH1 0x0 DUP4 DUP4 ADD MSTORE POP POP POP JUMP JUMPDEST PUSH1 0x0 JUMPDEST DUP4 DUP2 LT ISZERO PUSH2 0x5495 JUMPI DUP1 DUP3 ADD MLOAD DUP2 DUP5 ADD MSTORE PUSH1 0x20 DUP2 ADD SWAP1 POP PUSH2 0x547A JUMP JUMPDEST DUP4 DUP2 GT ISZERO PUSH2 0x54A4 JUMPI PUSH1 0x0 DUP5 DUP5 ADD MSTORE JUMPDEST POP POP POP POP JUMP JUMPDEST PUSH1 0x0 PUSH1 0x2 DUP3 DIV SWAP1 POP PUSH1 0x1 DUP3 AND DUP1 PUSH2 0x54C2 JUMPI PUSH1 0x7F DUP3 AND SWAP2 POP JUMPDEST PUSH1 0x20 DUP3 LT DUP2 EQ ISZERO PUSH2 0x54D6 JUMPI PUSH2 0x54D5 PUSH2 0x55E5 JUMP JUMPDEST JUMPDEST POP SWAP2 SWAP1 POP JUMP JUMPDEST PUSH2 0x54E5 DUP3 PUSH2 0x5643 JUMP JUMPDEST DUP2 ADD DUP2 DUP2 LT PUSH8 0xFFFFFFFFFFFFFFFF DUP3 GT OR ISZERO PUSH2 0x5504 JUMPI PUSH2 0x5503 PUSH2 0x5614 JUMP JUMPDEST JUMPDEST DUP1 PUSH1 0x40 MSTORE POP POP POP JUMP JUMPDEST PUSH1 0x0 PUSH2 0x5518 DUP3 PUSH2 0x545E JUMP JUMPDEST SWAP2 POP PUSH32 0xFFFFFFFFFFFFFFFFFFFFFFFFFFFFFFFFFFFFFFFFFFFFFFFFFFFFFFFFFFFFFFFF DUP3 EQ ISZERO PUSH2 0x554B JUMPI PUSH2 0x554A PUSH2 0x5587 JUMP JUMPDEST JUMPDEST PUSH1 0x1 DUP3 ADD SWAP1 POP SWAP2 SWAP1 POP JUMP JUMPDEST PUSH1 0x0 PUSH2 0x5561 DUP3 PUSH2 0x545E JUMP JUMPDEST SWAP2 POP PUSH2 0x556C DUP4 PUSH2 0x545E JUMP JUMPDEST SWAP3 POP DUP3 PUSH2 0x557C JUMPI PUSH2 0x557B PUSH2 0x55B6 JUMP JUMPDEST JUMPDEST DUP3 DUP3 MOD SWAP1 POP SWAP3 SWAP2 POP POP JUMP JUMPDEST PUSH32 0x4E487B7100000000000000000000000000000000000000000000000000000000 PUSH1 0x0 MSTORE PUSH1 0x11 PUSH1 0x4 MSTORE PUSH1 0x24 PUSH1 0x0 REVERT JUMPDEST PUSH32 0x4E487B7100000000000000000000000000000000000000000000000000000000 PUSH1 0x0 MSTORE PUSH1 0x12 PUSH1 0x4 MSTORE PUSH1 0x24 PUSH1 0x0 REVERT JUMPDEST PUSH32 0x4E487B7100000000000000000000000000000000000000000000000000000000 PUSH1 0x0 MSTORE PUSH1 0x22 PUSH1 0x4 MSTORE PUSH1 0x24 PUSH1 0x0 REVERT JUMPDEST PUSH32 0x4E487B7100000000000000000000000000000000000000000000000000000000 PUSH1 0x0 MSTORE PUSH1 0x41 PUSH1 0x4 MSTORE PUSH1 0x24 PUSH1 0x0 REVERT JUMPDEST PUSH1 0x0 PUSH1 0x1F NOT PUSH1 0x1F DUP4 ADD AND SWAP1 POP SWAP2 SWAP1 POP JUMP JUMPDEST PUSH32 0x4552433732313A207472616E7366657220746F206E6F6E204552433732315265 PUSH1 0x0 DUP3 ADD MSTORE PUSH32 0x63656976657220696D706C656D656E7465720000000000000000000000000000 PUSH1 0x20 DUP3 ADD MSTORE POP JUMP JUMPDEST PUSH32 0x4F776E61626C653A206E6577206F776E657220697320746865207A65726F2061 PUSH1 0x0 DUP3 ADD MSTORE PUSH32 0x6464726573730000000000000000000000000000000000000000000000000000 PUSH1 0x20 DUP3 ADD MSTORE POP JUMP JUMPDEST PUSH32 0x536C6F7720446F776E21205072652053616C652069736E277420617661696C61 PUSH1 0x0 DUP3 ADD MSTORE PUSH32 0x626C65206A757374207965742E00000000000000000000000000000000000000 PUSH1 0x20 DUP3 ADD MSTORE POP JUMP JUMPDEST PUSH32 0x4552433732313A20746F6B656E20616C7265616479206D696E74656400000000 PUSH1 0x0 DUP3 ADD MSTORE POP JUMP JUMPDEST PUSH32 0x4572726F72206368616E67696E6720547566662047757920416D6F756E740000 PUSH1 0x0 DUP3 ADD MSTORE POP JUMP JUMPDEST PUSH32 0x4552433732313A207472616E7366657220746F20746865207A65726F20616464 PUSH1 0x0 DUP3 ADD MSTORE PUSH32 0x7265737300000000000000000000000000000000000000000000000000000000 PUSH1 0x20 DUP3 ADD MSTORE POP JUMP JUMPDEST PUSH32 0x4552433732313A20617070726F766520746F2063616C6C657200000000000000 PUSH1 0x0 DUP3 ADD MSTORE POP JUMP JUMPDEST PUSH32 0x4552433732313A206F70657261746F7220717565727920666F72206E6F6E6578 PUSH1 0x0 DUP3 ADD MSTORE PUSH32 0x697374656E7420746F6B656E0000000000000000000000000000000000000000 PUSH1 0x20 DUP3 ADD MSTORE POP JUMP JUMPDEST PUSH32 0x536C6F7720446F776E21204D61696E2053616C652069736E277420617661696C PUSH1 0x0 DUP3 ADD MSTORE PUSH32 0x61626C65206A757374207965742E000000000000000000000000000000000000 PUSH1 0x20 DUP3 ADD MSTORE POP JUMP JUMPDEST PUSH32 0x4E6F7420656E6F75676820657468000000000000000000000000000000000000 PUSH1 0x0 DUP3 ADD MSTORE POP JUMP JUMPDEST PUSH32 0x4E6F7420696E2050726573616C65000000000000000000000000000000000000 PUSH1 0x0 DUP3 ADD MSTORE POP JUMP JUMPDEST PUSH32 0x4E6F7420656E6F75676820547566662047757973206C65667420746F206D696E PUSH1 0x0 DUP3 ADD MSTORE PUSH32 0x7420666F722067697665617761797320616E6420636F6D6D756E697479206576 PUSH1 0x20 DUP3 ADD MSTORE PUSH32 0x656E7473203A2800000000000000000000000000000000000000000000000000 PUSH1 0x40 DUP3 ADD MSTORE POP JUMP JUMPDEST PUSH32 0x4552433732313A20617070726F76652063616C6C6572206973206E6F74206F77 PUSH1 0x0 DUP3 ADD MSTORE PUSH32 0x6E6572206E6F7220617070726F76656420666F7220616C6C0000000000000000 PUSH1 0x20 DUP3 ADD MSTORE POP JUMP JUMPDEST PUSH32 0x4E6F20467573696F6E204C656674000000000000000000000000000000000000 PUSH1 0x0 DUP3 ADD MSTORE POP JUMP JUMPDEST PUSH32 0x4552433732313A2062616C616E636520717565727920666F7220746865207A65 PUSH1 0x0 DUP3 ADD MSTORE PUSH32 0x726F206164647265737300000000000000000000000000000000000000000000 PUSH1 0x20 DUP3 ADD MSTORE POP JUMP JUMPDEST PUSH32 0x4552433732313A206F776E657220717565727920666F72206E6F6E6578697374 PUSH1 0x0 DUP3 ADD MSTORE PUSH32 0x656E7420746F6B656E0000000000000000000000000000000000000000000000 PUSH1 0x20 DUP3 ADD MSTORE POP JUMP JUMPDEST PUSH32 0x4F6F707321204C6F6F6B73206C696B65207765206469646E2774207265636569 PUSH1 0x0 DUP3 ADD MSTORE PUSH32 0x76652074686520726571756972652066756E6473000000000000000000000000 PUSH1 0x20 DUP3 ADD MSTORE POP JUMP JUMPDEST PUSH32 0x4552433732313A206D696E7420746F20746865207A65726F2061646472657373 PUSH1 0x0 DUP3 ADD MSTORE POP JUMP JUMPDEST PUSH32 0x4E6F6E6500000000000000000000000000000000000000000000000000000000 PUSH1 0x0 DUP3 ADD MSTORE POP JUMP JUMPDEST PUSH32 0x4552433732313A20617070726F76656420717565727920666F72206E6F6E6578 PUSH1 0x0 DUP3 ADD MSTORE PUSH32 0x697374656E7420746F6B656E0000000000000000000000000000000000000000 PUSH1 0x20 DUP3 ADD MSTORE POP JUMP JUMPDEST PUSH32 0x6E6F6E6578697374656E7420746F6B656E000000000000000000000000000000 PUSH1 0x0 DUP3 ADD MSTORE POP JUMP JUMPDEST PUSH32 0x4F776E61626C653A2063616C6C6572206973206E6F7420746865206F776E6572 PUSH1 0x0 DUP3 ADD MSTORE POP JUMP JUMPDEST PUSH32 0x4E6F7420656E6F75676820547566662047757973206C656674203A2800000000 PUSH1 0x0 DUP3 ADD MSTORE POP JUMP JUMPDEST PUSH32 0x576F61682E2050726F76696465206D6520736F6D65206D6F7265205475666620 PUSH1 0x0 DUP3 ADD MSTORE PUSH32 0x4775797300000000000000000000000000000000000000000000000000000000 PUSH1 0x20 DUP3 ADD MSTORE POP JUMP JUMPDEST PUSH32 0x4552433732313A207472616E73666572206F6620746F6B656E20746861742069 PUSH1 0x0 DUP3 ADD MSTORE PUSH32 0x73206E6F74206F776E0000000000000000000000000000000000000000000000 PUSH1 0x20 DUP3 ADD MSTORE POP JUMP JUMPDEST PUSH32 0x547566662047757973206E6F74206F776E656400000000000000000000000000 PUSH1 0x0 DUP3 ADD MSTORE POP JUMP JUMPDEST PUSH32 0x4552433732313A20617070726F76616C20746F2063757272656E74206F776E65 PUSH1 0x0 DUP3 ADD MSTORE PUSH32 0x7200000000000000000000000000000000000000000000000000000000000000 PUSH1 0x20 DUP3 ADD MSTORE POP JUMP JUMPDEST POP JUMP JUMPDEST PUSH32 0x43616E2774205769746864726177000000000000000000000000000000000000 PUSH1 0x0 DUP3 ADD MSTORE POP JUMP JUMPDEST PUSH32 0x576F616821204C6561766520736F6D6520547566664775797320666F72207468 PUSH1 0x0 DUP3 ADD MSTORE PUSH32 0x652072657374206F662075730000000000000000000000000000000000000000 PUSH1 0x20 DUP3 ADD MSTORE POP JUMP JUMPDEST PUSH32 0x4552433732313A207472616E736665722063616C6C6572206973206E6F74206F PUSH1 0x0 DUP3 ADD MSTORE PUSH32 0x776E6572206E6F7220617070726F766564000000000000000000000000000000 PUSH1 0x20 DUP3 ADD MSTORE POP JUMP JUMPDEST PUSH32 0x467573696F6E73206E6F7420656E61626C656400000000000000000000000000 PUSH1 0x0 DUP3 ADD MSTORE POP JUMP JUMPDEST PUSH32 0x576F616821204E6F7420656E6F7567682045544820696E2074686520636F6E74 PUSH1 0x0 DUP3 ADD MSTORE PUSH32 0x7261637400000000000000000000000000000000000000000000000000000000 PUSH1 0x20 DUP3 ADD MSTORE POP JUMP JUMPDEST PUSH32 0x5475666620477579205769746864726177616C204661696C6564000000000000 PUSH1 0x0 DUP3 ADD MSTORE POP JUMP JUMPDEST PUSH32 0x4572726F72206368616E676564205072652053616C6520547566662047757920 PUSH1 0x0 DUP3 ADD MSTORE PUSH32 0x416D6F756E740000000000000000000000000000000000000000000000000000 PUSH1 0x20 DUP3 ADD MSTORE POP JUMP JUMPDEST PUSH32 0x4E6F7420656E6F75676820547566662047757973206C65667420666F72207072 PUSH1 0x0 DUP3 ADD MSTORE PUSH32 0x6573616C65203A28000000000000000000000000000000000000000000000000 PUSH1 0x20 DUP3 ADD MSTORE POP JUMP JUMPDEST PUSH2 0x5F19 DUP2 PUSH2 0x53F4 JUMP JUMPDEST DUP2 EQ PUSH2 0x5F24 JUMPI PUSH1 0x0 DUP1 REVERT JUMPDEST POP JUMP JUMPDEST PUSH2 0x5F30 DUP2 PUSH2 0x5406 JUMP JUMPDEST DUP2 EQ PUSH2 0x5F3B JUMPI PUSH1 0x0 DUP1 REVERT JUMPDEST POP JUMP JUMPDEST PUSH2 0x5F47 DUP2 PUSH2 0x5412 JUMP JUMPDEST DUP2 EQ PUSH2 0x5F52 JUMPI PUSH1 0x0 DUP1 REVERT JUMPDEST POP JUMP JUMPDEST PUSH2 0x5F5E DUP2 PUSH2 0x545E JUMP JUMPDEST DUP2 EQ PUSH2 0x5F69 JUMPI PUSH1 0x0 DUP1 REVERT JUMPDEST POP JUMP INVALID LOG2 PUSH5 0x6970667358 0x22 SLT KECCAK256 0xA9 PUSH25 0x6D29B24B4CE510C6EB55F64C4727BA0FA3FD54C185790D4440 0xCF RETURNDATASIZE PUSH31 0xE75164736F6C63430008040033000000000000000000000000000000000000 "
    },
    "gasEstimates": {
      "creation": {
        "codeDepositCost": "4896400",
        "executionCost": "infinite",
        "totalCost": "infinite"
      },
      "external": {
        "CurrentGiveawayTuffGuys()": "1219",
        "CurrentTuffGuys()": "1195",
        "GiveawayTuffGuyAmount()": "1218",
        "MainSaleActive()": "1289",
        "Maximum_Allowed_Mint()": "1241",
        "PreSaleActive()": "1289",
        "PreSaleTuffGuyAmount()": "1220",
        "PreSaleWhitelistActive()": "1289",
        "Presale_Maximum_Allowed_Mint()": "1218",
        "TuffGuy1()": "1283",
        "TuffGuy10()": "1346",
        "TuffGuy2()": "1348",
        "TuffGuy3()": "1327",
        "TuffGuy4()": "1303",
        "TuffGuy5()": "1304",
        "TuffGuy6()": "1324",
        "TuffGuy7()": "1327",
        "TuffGuy9()": "1347",
        "TuffGuyAmount()": "1241",
        "TuffGuysPresale(uint256)": "2467",
        "_fusionID()": "1219",
        "allowThrough(address)": "infinite",
        "approve(address,uint256)": "infinite",
        "balanceOf(address)": "1647",
        "baseURI()": "infinite",
        "emergencyWithdraw()": "infinite",
        "fusion(uint256[])": "infinite",
        "fusionEnabled()": "1306",
        "fusionSupply()": "1240",
        "getApproved(uint256)": "2651",
        "isApprovedForAll(address,address)": "infinite",
        "mint_giveaway(uint256)": "infinite",
        "name()": "infinite",
        "owner()": "1355",
        "ownerOf(uint256)": "1789",
        "populate_PreSaleWhitelist(address[])": "infinite",
        "price()": "1241",
        "purchase_mainSale(uint256)": "infinite",
        "purchase_preSale(uint256)": "infinite",
        "renounceOwnership()": "24464",
        "safeTransferFrom(address,address,uint256)": "infinite",
        "safeTransferFrom(address,address,uint256,bytes)": "infinite",
        "setApprovalForAll(address,bool)": "infinite",
        "setFuseID(uint256)": "21472",
        "setfusionSupply(uint256)": "21517",
        "supportsInterface(bytes4)": "820",
        "symbol()": "infinite",
        "toggle_sales(uint256)": "23312",
        "tokenURI(uint256)": "infinite",
        "transferFrom(address,address,uint256)": "infinite",
        "transferOwnership(address)": "24811",
        "withdraw()": "infinite",
        "withdraw_first()": "infinite",
        "write_TuffGuyAmount(uint256,uint256)": "infinite",
        "write_URI(string)": "infinite"
      }
    },
    "methodIdentifiers": {
      "CurrentGiveawayTuffGuys()": "d7be7e2f",
      "CurrentTuffGuys()": "e9999ea8",
      "GiveawayTuffGuyAmount()": "ccaac9e9",
      "MainSaleActive()": "37a50397",
      "Maximum_Allowed_Mint()": "780d6409",
      "PreSaleActive()": "a7395056",
      "PreSaleTuffGuyAmount()": "56e6bded",
      "PreSaleWhitelistActive()": "d2e31447",
      "Presale_Maximum_Allowed_Mint()": "879ac153",
      "TuffGuy1()": "2381c76f",
      "TuffGuy10()": "fc05ce55",
      "TuffGuy2()": "47f1339e",
      "TuffGuy3()": "2a95d6c7",
      "TuffGuy4()": "e933beaa",
      "TuffGuy5()": "60334aa6",
      "TuffGuy6()": "f5bb8cce",
      "TuffGuy7()": "95ae6611",
      "TuffGuy9()": "de618306",
      "TuffGuyAmount()": "d93a9f45",
      "TuffGuysPresale(uint256)": "88f9e835",
      "_fusionID()": "9c84cff6",
      "allowThrough(address)": "52ec383b",
      "approve(address,uint256)": "095ea7b3",
      "balanceOf(address)": "70a08231",
      "baseURI()": "6c0360eb",
      "emergencyWithdraw()": "db2e21bc",
      "fusion(uint256[])": "cf0b3f38",
      "fusionEnabled()": "0a036ef2",
      "fusionSupply()": "de33dfbe",
      "getApproved(uint256)": "081812fc",
      "isApprovedForAll(address,address)": "e985e9c5",
      "mint_giveaway(uint256)": "81b9bb13",
      "name()": "06fdde03",
      "owner()": "8da5cb5b",
      "ownerOf(uint256)": "6352211e",
      "populate_PreSaleWhitelist(address[])": "e6f17045",
      "price()": "a035b1fe",
      "purchase_mainSale(uint256)": "5e487f1c",
      "purchase_preSale(uint256)": "d1563931",
      "renounceOwnership()": "715018a6",
      "safeTransferFrom(address,address,uint256)": "42842e0e",
      "safeTransferFrom(address,address,uint256,bytes)": "b88d4fde",
      "setApprovalForAll(address,bool)": "a22cb465",
      "setFuseID(uint256)": "c8624b7b",
      "setfusionSupply(uint256)": "1a2e50e1",
      "supportsInterface(bytes4)": "01ffc9a7",
      "symbol()": "95d89b41",
      "toggle_sales(uint256)": "94034b39",
      "tokenURI(uint256)": "c87b56dd",
      "transferFrom(address,address,uint256)": "23b872dd",
      "transferOwnership(address)": "f2fde38b",
      "withdraw()": "3ccfd60b",
      "withdraw_first()": "5d06c482",
      "write_TuffGuyAmount(uint256,uint256)": "db3e269b",
      "write_URI(string)": "94df9199"
    }
  },
  "abi": [
    {
      "inputs": [
        {
          "internalType": "uint256",
          "name": "TotalTuffGuys",
          "type": "uint256"
        },
        {
          "internalType": "uint256",
          "name": "PresaleTuffGuys",
          "type": "uint256"
        },
        {
          "internalType": "string",
          "name": "_baseURI",
          "type": "string"
        }
      ],
      "stateMutability": "nonpayable",
      "type": "constructor"
    },
    {
      "anonymous": false,
      "inputs": [
        {
          "indexed": true,
          "internalType": "address",
          "name": "owner",
          "type": "address"
        },
        {
          "indexed": true,
          "internalType": "address",
          "name": "approved",
          "type": "address"
        },
        {
          "indexed": true,
          "internalType": "uint256",
          "name": "tokenId",
          "type": "uint256"
        }
      ],
      "name": "Approval",
      "type": "event"
    },
    {
      "anonymous": false,
      "inputs": [
        {
          "indexed": true,
          "internalType": "address",
          "name": "owner",
          "type": "address"
        },
        {
          "indexed": true,
          "internalType": "address",
          "name": "operator",
          "type": "address"
        },
        {
          "indexed": false,
          "internalType": "bool",
          "name": "approved",
          "type": "bool"
        }
      ],
      "name": "ApprovalForAll",
      "type": "event"
    },
    {
      "anonymous": false,
      "inputs": [
        {
          "indexed": true,
          "internalType": "address",
          "name": "previousOwner",
          "type": "address"
        },
        {
          "indexed": true,
          "internalType": "address",
          "name": "newOwner",
          "type": "address"
        }
      ],
      "name": "OwnershipTransferred",
      "type": "event"
    },
    {
      "anonymous": false,
      "inputs": [
        {
          "indexed": true,
          "internalType": "address",
          "name": "from",
          "type": "address"
        },
        {
          "indexed": true,
          "internalType": "address",
          "name": "to",
          "type": "address"
        },
        {
          "indexed": true,
          "internalType": "uint256",
          "name": "tokenId",
          "type": "uint256"
        }
      ],
      "name": "Transfer",
      "type": "event"
    },
    {
      "inputs": [],
      "name": "CurrentGiveawayTuffGuys",
      "outputs": [
        {
          "internalType": "uint256",
          "name": "",
          "type": "uint256"
        }
      ],
      "stateMutability": "view",
      "type": "function"
    },
    {
      "inputs": [],
      "name": "CurrentTuffGuys",
      "outputs": [
        {
          "internalType": "uint256",
          "name": "",
          "type": "uint256"
        }
      ],
      "stateMutability": "view",
      "type": "function"
    },
    {
      "inputs": [],
      "name": "GiveawayTuffGuyAmount",
      "outputs": [
        {
          "internalType": "uint256",
          "name": "",
          "type": "uint256"
        }
      ],
      "stateMutability": "view",
      "type": "function"
    },
    {
      "inputs": [],
      "name": "MainSaleActive",
      "outputs": [
        {
          "internalType": "bool",
          "name": "",
          "type": "bool"
        }
      ],
      "stateMutability": "view",
      "type": "function"
    },
    {
      "inputs": [],
      "name": "Maximum_Allowed_Mint",
      "outputs": [
        {
          "internalType": "uint256",
          "name": "",
          "type": "uint256"
        }
      ],
      "stateMutability": "view",
      "type": "function"
    },
    {
      "inputs": [],
      "name": "PreSaleActive",
      "outputs": [
        {
          "internalType": "bool",
          "name": "",
          "type": "bool"
        }
      ],
      "stateMutability": "view",
      "type": "function"
    },
    {
      "inputs": [],
      "name": "PreSaleTuffGuyAmount",
      "outputs": [
        {
          "internalType": "uint256",
          "name": "",
          "type": "uint256"
        }
      ],
      "stateMutability": "view",
      "type": "function"
    },
    {
      "inputs": [],
      "name": "PreSaleWhitelistActive",
      "outputs": [
        {
          "internalType": "bool",
          "name": "",
          "type": "bool"
        }
      ],
      "stateMutability": "view",
      "type": "function"
    },
    {
      "inputs": [],
      "name": "Presale_Maximum_Allowed_Mint",
      "outputs": [
        {
          "internalType": "uint256",
          "name": "",
          "type": "uint256"
        }
      ],
      "stateMutability": "view",
      "type": "function"
    },
    {
      "inputs": [],
      "name": "TuffGuy1",
      "outputs": [
        {
          "internalType": "address",
          "name": "",
          "type": "address"
        }
      ],
      "stateMutability": "view",
      "type": "function"
    },
    {
      "inputs": [],
      "name": "TuffGuy10",
      "outputs": [
        {
          "internalType": "address",
          "name": "",
          "type": "address"
        }
      ],
      "stateMutability": "view",
      "type": "function"
    },
    {
      "inputs": [],
      "name": "TuffGuy2",
      "outputs": [
        {
          "internalType": "address",
          "name": "",
          "type": "address"
        }
      ],
      "stateMutability": "view",
      "type": "function"
    },
    {
      "inputs": [],
      "name": "TuffGuy3",
      "outputs": [
        {
          "internalType": "address",
          "name": "",
          "type": "address"
        }
      ],
      "stateMutability": "view",
      "type": "function"
    },
    {
      "inputs": [],
      "name": "TuffGuy4",
      "outputs": [
        {
          "internalType": "address",
          "name": "",
          "type": "address"
        }
      ],
      "stateMutability": "view",
      "type": "function"
    },
    {
      "inputs": [],
      "name": "TuffGuy5",
      "outputs": [
        {
          "internalType": "address",
          "name": "",
          "type": "address"
        }
      ],
      "stateMutability": "view",
      "type": "function"
    },
    {
      "inputs": [],
      "name": "TuffGuy6",
      "outputs": [
        {
          "internalType": "address",
          "name": "",
          "type": "address"
        }
      ],
      "stateMutability": "view",
      "type": "function"
    },
    {
      "inputs": [],
      "name": "TuffGuy7",
      "outputs": [
        {
          "internalType": "address",
          "name": "",
          "type": "address"
        }
      ],
      "stateMutability": "view",
      "type": "function"
    },
    {
      "inputs": [],
      "name": "TuffGuy9",
      "outputs": [
        {
          "internalType": "address",
          "name": "",
          "type": "address"
        }
      ],
      "stateMutability": "view",
      "type": "function"
    },
    {
      "inputs": [],
      "name": "TuffGuyAmount",
      "outputs": [
        {
          "internalType": "uint256",
          "name": "",
          "type": "uint256"
        }
      ],
      "stateMutability": "view",
      "type": "function"
    },
    {
      "inputs": [
        {
          "internalType": "uint256",
          "name": "",
          "type": "uint256"
        }
      ],
      "name": "TuffGuysPresale",
      "outputs": [
        {
          "internalType": "address",
          "name": "",
          "type": "address"
        }
      ],
      "stateMutability": "view",
      "type": "function"
    },
    {
      "inputs": [],
      "name": "_fusionID",
      "outputs": [
        {
          "internalType": "uint256",
          "name": "",
          "type": "uint256"
        }
      ],
      "stateMutability": "view",
      "type": "function"
    },
    {
      "inputs": [
        {
          "internalType": "address",
          "name": "__address",
          "type": "address"
        }
      ],
      "name": "allowThrough",
      "outputs": [
        {
          "internalType": "bool",
          "name": "",
          "type": "bool"
        }
      ],
      "stateMutability": "view",
      "type": "function"
    },
    {
      "inputs": [
        {
          "internalType": "address",
          "name": "to",
          "type": "address"
        },
        {
          "internalType": "uint256",
          "name": "tokenId",
          "type": "uint256"
        }
      ],
      "name": "approve",
      "outputs": [],
      "stateMutability": "nonpayable",
      "type": "function"
    },
    {
      "inputs": [
        {
          "internalType": "address",
          "name": "owner",
          "type": "address"
        }
      ],
      "name": "balanceOf",
      "outputs": [
        {
          "internalType": "uint256",
          "name": "",
          "type": "uint256"
        }
      ],
      "stateMutability": "view",
      "type": "function"
    },
    {
      "inputs": [],
      "name": "baseURI",
      "outputs": [
        {
          "internalType": "string",
          "name": "",
          "type": "string"
        }
      ],
      "stateMutability": "view",
      "type": "function"
    },
    {
      "inputs": [],
      "name": "emergencyWithdraw",
      "outputs": [],
      "stateMutability": "nonpayable",
      "type": "function"
    },
    {
      "inputs": [
        {
          "internalType": "uint256[]",
          "name": "_tg",
          "type": "uint256[]"
        }
      ],
      "name": "fusion",
      "outputs": [],
      "stateMutability": "nonpayable",
      "type": "function"
    },
    {
      "inputs": [],
      "name": "fusionEnabled",
      "outputs": [
        {
          "internalType": "bool",
          "name": "",
          "type": "bool"
        }
      ],
      "stateMutability": "view",
      "type": "function"
    },
    {
      "inputs": [],
      "name": "fusionSupply",
      "outputs": [
        {
          "internalType": "uint256",
          "name": "",
          "type": "uint256"
        }
      ],
      "stateMutability": "view",
      "type": "function"
    },
    {
      "inputs": [
        {
          "internalType": "uint256",
          "name": "tokenId",
          "type": "uint256"
        }
      ],
      "name": "getApproved",
      "outputs": [
        {
          "internalType": "address",
          "name": "",
          "type": "address"
        }
      ],
      "stateMutability": "view",
      "type": "function"
    },
    {
      "inputs": [
        {
          "internalType": "address",
          "name": "owner",
          "type": "address"
        },
        {
          "internalType": "address",
          "name": "operator",
          "type": "address"
        }
      ],
      "name": "isApprovedForAll",
      "outputs": [
        {
          "internalType": "bool",
          "name": "",
          "type": "bool"
        }
      ],
      "stateMutability": "view",
      "type": "function"
    },
    {
      "inputs": [
        {
          "internalType": "uint256",
          "name": "TuffGuyNFT",
          "type": "uint256"
        }
      ],
      "name": "mint_giveaway",
      "outputs": [],
      "stateMutability": "nonpayable",
      "type": "function"
    },
    {
      "inputs": [],
      "name": "name",
      "outputs": [
        {
          "internalType": "string",
          "name": "",
          "type": "string"
        }
      ],
      "stateMutability": "view",
      "type": "function"
    },
    {
      "inputs": [],
      "name": "owner",
      "outputs": [
        {
          "internalType": "address",
          "name": "",
          "type": "address"
        }
      ],
      "stateMutability": "view",
      "type": "function"
    },
    {
      "inputs": [
        {
          "internalType": "uint256",
          "name": "tokenId",
          "type": "uint256"
        }
      ],
      "name": "ownerOf",
      "outputs": [
        {
          "internalType": "address",
          "name": "",
          "type": "address"
        }
      ],
      "stateMutability": "view",
      "type": "function"
    },
    {
      "inputs": [
        {
          "internalType": "address[]",
          "name": "addresses",
          "type": "address[]"
        }
      ],
      "name": "populate_PreSaleWhitelist",
      "outputs": [],
      "stateMutability": "nonpayable",
      "type": "function"
    },
    {
      "inputs": [],
      "name": "price",
      "outputs": [
        {
          "internalType": "uint256",
          "name": "",
          "type": "uint256"
        }
      ],
      "stateMutability": "view",
      "type": "function"
    },
    {
      "inputs": [
        {
          "internalType": "uint256",
          "name": "TuffGuyNFT",
          "type": "uint256"
        }
      ],
      "name": "purchase_mainSale",
      "outputs": [],
      "stateMutability": "payable",
      "type": "function"
    },
    {
      "inputs": [
        {
          "internalType": "uint256",
          "name": "TuffGuyNFT",
          "type": "uint256"
        }
      ],
      "name": "purchase_preSale",
      "outputs": [],
      "stateMutability": "payable",
      "type": "function"
    },
    {
      "inputs": [],
      "name": "renounceOwnership",
      "outputs": [],
      "stateMutability": "nonpayable",
      "type": "function"
    },
    {
      "inputs": [
        {
          "internalType": "address",
          "name": "from",
          "type": "address"
        },
        {
          "internalType": "address",
          "name": "to",
          "type": "address"
        },
        {
          "internalType": "uint256",
          "name": "tokenId",
          "type": "uint256"
        }
      ],
      "name": "safeTransferFrom",
      "outputs": [],
      "stateMutability": "nonpayable",
      "type": "function"
    },
    {
      "inputs": [
        {
          "internalType": "address",
          "name": "from",
          "type": "address"
        },
        {
          "internalType": "address",
          "name": "to",
          "type": "address"
        },
        {
          "internalType": "uint256",
          "name": "tokenId",
          "type": "uint256"
        },
        {
          "internalType": "bytes",
          "name": "_data",
          "type": "bytes"
        }
      ],
      "name": "safeTransferFrom",
      "outputs": [],
      "stateMutability": "nonpayable",
      "type": "function"
    },
    {
      "inputs": [
        {
          "internalType": "address",
          "name": "operator",
          "type": "address"
        },
        {
          "internalType": "bool",
          "name": "approved",
          "type": "bool"
        }
      ],
      "name": "setApprovalForAll",
      "outputs": [],
      "stateMutability": "nonpayable",
      "type": "function"
    },
    {
      "inputs": [
        {
          "internalType": "uint256",
          "name": "fuseID",
          "type": "uint256"
        }
      ],
      "name": "setFuseID",
      "outputs": [],
      "stateMutability": "nonpayable",
      "type": "function"
    },
    {
      "inputs": [
        {
          "internalType": "uint256",
          "name": "newfusionSupply",
          "type": "uint256"
        }
      ],
      "name": "setfusionSupply",
      "outputs": [],
      "stateMutability": "nonpayable",
      "type": "function"
    },
    {
      "inputs": [
        {
          "internalType": "bytes4",
          "name": "interfaceId",
          "type": "bytes4"
        }
      ],
      "name": "supportsInterface",
      "outputs": [
        {
          "internalType": "bool",
          "name": "",
          "type": "bool"
        }
      ],
      "stateMutability": "view",
      "type": "function"
    },
    {
      "inputs": [],
      "name": "symbol",
      "outputs": [
        {
          "internalType": "string",
          "name": "",
          "type": "string"
        }
      ],
      "stateMutability": "view",
      "type": "function"
    },
    {
      "inputs": [
        {
          "internalType": "uint256",
          "name": "num",
          "type": "uint256"
        }
      ],
      "name": "toggle_sales",
      "outputs": [],
      "stateMutability": "nonpayable",
      "type": "function"
    },
    {
      "inputs": [
        {
          "internalType": "uint256",
          "name": "TuffGuyID",
          "type": "uint256"
        }
      ],
      "name": "tokenURI",
      "outputs": [
        {
          "internalType": "string",
          "name": "",
          "type": "string"
        }
      ],
      "stateMutability": "view",
      "type": "function"
    },
    {
      "inputs": [
        {
          "internalType": "address",
          "name": "from",
          "type": "address"
        },
        {
          "internalType": "address",
          "name": "to",
          "type": "address"
        },
        {
          "internalType": "uint256",
          "name": "tokenId",
          "type": "uint256"
        }
      ],
      "name": "transferFrom",
      "outputs": [],
      "stateMutability": "nonpayable",
      "type": "function"
    },
    {
      "inputs": [
        {
          "internalType": "address",
          "name": "newOwner",
          "type": "address"
        }
      ],
      "name": "transferOwnership",
      "outputs": [],
      "stateMutability": "nonpayable",
      "type": "function"
    },
    {
      "inputs": [],
      "name": "withdraw",
      "outputs": [],
      "stateMutability": "nonpayable",
      "type": "function"
    },
    {
      "inputs": [],
      "name": "withdraw_first",
      "outputs": [],
      "stateMutability": "nonpayable",
      "type": "function"
    },
    {
      "inputs": [
        {
          "internalType": "uint256",
          "name": "_TuffGuyAmount",
          "type": "uint256"
        },
        {
          "internalType": "uint256",
          "name": "num",
          "type": "uint256"
        }
      ],
      "name": "write_TuffGuyAmount",
      "outputs": [],
      "stateMutability": "nonpayable",
      "type": "function"
    },
    {
      "inputs": [
        {
          "internalType": "string",
          "name": "_baseURI",
          "type": "string"
        }
      ],
      "name": "write_URI",
      "outputs": [],
      "stateMutability": "nonpayable",
      "type": "function"
    }
  ]
}